{
	"SimpleSwap.sol": {
		"SimpleSwap": {
			"abi": [
				{
					"inputs": [
						{
							"internalType": "address",
							"name": "tokenA",
							"type": "address"
						},
						{
							"internalType": "address",
							"name": "tokenB",
							"type": "address"
						},
						{
							"internalType": "uint256",
							"name": "amountADesired",
							"type": "uint256"
						},
						{
							"internalType": "uint256",
							"name": "amountBDesired",
							"type": "uint256"
						},
						{
							"internalType": "uint256",
							"name": "amountAMin",
							"type": "uint256"
						},
						{
							"internalType": "uint256",
							"name": "amountBMin",
							"type": "uint256"
						},
						{
							"internalType": "address",
							"name": "to",
							"type": "address"
						},
						{
							"internalType": "uint256",
							"name": "deadline",
							"type": "uint256"
						}
					],
					"name": "addLiquidity",
					"outputs": [
						{
							"internalType": "uint256",
							"name": "amountASent",
							"type": "uint256"
						},
						{
							"internalType": "uint256",
							"name": "amountBSent",
							"type": "uint256"
						},
						{
							"internalType": "uint256",
							"name": "liquidity",
							"type": "uint256"
						}
					],
					"stateMutability": "nonpayable",
					"type": "function"
				},
				{
					"inputs": [
						{
							"internalType": "address",
							"name": "tokenA",
							"type": "address"
						},
						{
							"internalType": "address",
							"name": "tokenB",
							"type": "address"
						},
						{
							"internalType": "uint256",
							"name": "amountADesired",
							"type": "uint256"
						},
						{
							"internalType": "uint256",
							"name": "amountBDesired",
							"type": "uint256"
						},
						{
							"internalType": "uint256",
							"name": "amountAMin",
							"type": "uint256"
						},
						{
							"internalType": "uint256",
							"name": "amountBMin",
							"type": "uint256"
						},
						{
							"internalType": "address",
							"name": "to",
							"type": "address"
						},
						{
							"internalType": "uint256",
							"name": "ttlSeconds",
							"type": "uint256"
						}
					],
					"name": "addLiquidityWithTtl",
					"outputs": [
						{
							"internalType": "uint256",
							"name": "amountA",
							"type": "uint256"
						},
						{
							"internalType": "uint256",
							"name": "amountB",
							"type": "uint256"
						},
						{
							"internalType": "uint256",
							"name": "liquidity",
							"type": "uint256"
						}
					],
					"stateMutability": "nonpayable",
					"type": "function"
				},
				{
					"inputs": [
						{
							"internalType": "bytes32",
							"name": "",
							"type": "bytes32"
						},
						{
							"internalType": "address",
							"name": "",
							"type": "address"
						}
					],
					"name": "lpBalance",
					"outputs": [
						{
							"internalType": "uint256",
							"name": "",
							"type": "uint256"
						}
					],
					"stateMutability": "view",
					"type": "function"
				},
				{
					"inputs": [
						{
							"internalType": "bytes32",
							"name": "",
							"type": "bytes32"
						}
					],
					"name": "pools",
					"outputs": [
						{
							"internalType": "uint256",
							"name": "reserveA",
							"type": "uint256"
						},
						{
							"internalType": "uint256",
							"name": "reserveB",
							"type": "uint256"
						},
						{
							"internalType": "uint256",
							"name": "totalLiquidity",
							"type": "uint256"
						}
					],
					"stateMutability": "view",
					"type": "function"
				},
				{
					"inputs": [
						{
							"internalType": "address",
							"name": "tokenA",
							"type": "address"
						},
						{
							"internalType": "address",
							"name": "tokenB",
							"type": "address"
						},
						{
							"internalType": "uint256",
							"name": "liquidity",
							"type": "uint256"
						},
						{
							"internalType": "uint256",
							"name": "amountAMin",
							"type": "uint256"
						},
						{
							"internalType": "uint256",
							"name": "amountBMin",
							"type": "uint256"
						},
						{
							"internalType": "address",
							"name": "to",
							"type": "address"
						},
						{
							"internalType": "uint256",
							"name": "deadline",
							"type": "uint256"
						}
					],
					"name": "removeLiquidity",
					"outputs": [
						{
							"internalType": "uint256",
							"name": "amountASent",
							"type": "uint256"
						},
						{
							"internalType": "uint256",
							"name": "amountBSent",
							"type": "uint256"
						}
					],
					"stateMutability": "nonpayable",
					"type": "function"
				},
				{
					"inputs": [
						{
							"internalType": "address",
							"name": "tokenA",
							"type": "address"
						},
						{
							"internalType": "address",
							"name": "tokenB",
							"type": "address"
						},
						{
							"internalType": "uint256",
							"name": "liquidity",
							"type": "uint256"
						},
						{
							"internalType": "uint256",
							"name": "amountAMin",
							"type": "uint256"
						},
						{
							"internalType": "uint256",
							"name": "amountBMin",
							"type": "uint256"
						},
						{
							"internalType": "address",
							"name": "to",
							"type": "address"
						},
						{
							"internalType": "uint256",
							"name": "ttlSeconds",
							"type": "uint256"
						}
					],
					"name": "removeLiquidityWithTtl",
					"outputs": [
						{
							"internalType": "uint256",
							"name": "amountASent",
							"type": "uint256"
						},
						{
							"internalType": "uint256",
							"name": "amountBSent",
							"type": "uint256"
						}
					],
					"stateMutability": "nonpayable",
					"type": "function"
				}
			],
			"devdoc": {
				"kind": "dev",
				"methods": {
					"addLiquidityWithTtl(address,address,uint256,uint256,uint256,uint256,address,uint256)": {
						"details": "Wrapper function to allow deadline as ttl in seconds"
					},
					"removeLiquidityWithTtl(address,address,uint256,uint256,uint256,address,uint256)": {
						"details": "Wrapper function to allow deadline as ttl in seconds"
					}
				},
				"version": 1
			},
			"evm": {
				"assembly": "    /* \"SimpleSwap.sol\":170:4920  contract SimpleSwap {... */\n  mstore(0x40, 0x80)\n  callvalue\n  dup1\n  iszero\n  tag_1\n  jumpi\n  revert(0x00, 0x00)\ntag_1:\n  pop\n  dataSize(sub_0)\n  dup1\n  dataOffset(sub_0)\n  0x00\n  codecopy\n  0x00\n  return\nstop\n\nsub_0: assembly {\n        /* \"SimpleSwap.sol\":170:4920  contract SimpleSwap {... */\n      mstore(0x40, 0x80)\n      callvalue\n      dup1\n      iszero\n      tag_1\n      jumpi\n      revert(0x00, 0x00)\n    tag_1:\n      pop\n      jumpi(tag_2, lt(calldatasize, 0x04))\n      shr(0xe0, calldataload(0x00))\n      dup1\n      0x0760eaec\n      eq\n      tag_3\n      jumpi\n      dup1\n      0x5c923960\n      eq\n      tag_4\n      jumpi\n      dup1\n      0xb5217bb4\n      eq\n      tag_5\n      jumpi\n      dup1\n      0xbaa2abde\n      eq\n      tag_6\n      jumpi\n      dup1\n      0xe8e33700\n      eq\n      tag_7\n      jumpi\n      dup1\n      0xf4e3f766\n      eq\n      tag_8\n      jumpi\n    tag_2:\n      revert(0x00, 0x00)\n        /* \"SimpleSwap.sol\":4488:4917  function removeLiquidityWithTtl(... */\n    tag_3:\n      tag_9\n      0x04\n      dup1\n      calldatasize\n      sub\n      dup2\n      add\n      swap1\n      tag_10\n      swap2\n      swap1\n      tag_11\n      jump\t// in\n    tag_10:\n      tag_12\n      jump\t// in\n    tag_9:\n      mload(0x40)\n      tag_13\n      swap3\n      swap2\n      swap1\n      tag_14\n      jump\t// in\n    tag_13:\n      mload(0x40)\n      dup1\n      swap2\n      sub\n      swap1\n      return\n        /* \"SimpleSwap.sol\":2631:3117  function addLiquidityWithTtl(... */\n    tag_4:\n      tag_15\n      0x04\n      dup1\n      calldatasize\n      sub\n      dup2\n      add\n      swap1\n      tag_16\n      swap2\n      swap1\n      tag_17\n      jump\t// in\n    tag_16:\n      tag_18\n      jump\t// in\n    tag_15:\n      mload(0x40)\n      tag_19\n      swap4\n      swap3\n      swap2\n      swap1\n      tag_20\n      jump\t// in\n    tag_19:\n      mload(0x40)\n      dup1\n      swap2\n      sub\n      swap1\n      return\n        /* \"SimpleSwap.sol\":330:367  mapping(bytes32 => Pool) public pools */\n    tag_5:\n      tag_21\n      0x04\n      dup1\n      calldatasize\n      sub\n      dup2\n      add\n      swap1\n      tag_22\n      swap2\n      swap1\n      tag_23\n      jump\t// in\n    tag_22:\n      tag_24\n      jump\t// in\n    tag_21:\n      mload(0x40)\n      tag_25\n      swap4\n      swap3\n      swap2\n      swap1\n      tag_20\n      jump\t// in\n    tag_25:\n      mload(0x40)\n      dup1\n      swap2\n      sub\n      swap1\n      return\n        /* \"SimpleSwap.sol\":3125:4403  function removeLiquidity(address tokenA, ... */\n    tag_6:\n      tag_26\n      0x04\n      dup1\n      calldatasize\n      sub\n      dup2\n      add\n      swap1\n      tag_27\n      swap2\n      swap1\n      tag_11\n      jump\t// in\n    tag_27:\n      tag_28\n      jump\t// in\n    tag_26:\n      mload(0x40)\n      tag_29\n      swap3\n      swap2\n      swap1\n      tag_14\n      jump\t// in\n    tag_29:\n      mload(0x40)\n      dup1\n      swap2\n      sub\n      swap1\n      return\n        /* \"SimpleSwap.sol\":691:2546  function addLiquidity(... */\n    tag_7:\n      tag_30\n      0x04\n      dup1\n      calldatasize\n      sub\n      dup2\n      add\n      swap1\n      tag_31\n      swap2\n      swap1\n      tag_17\n      jump\t// in\n    tag_31:\n      tag_32\n      jump\t// in\n    tag_30:\n      mload(0x40)\n      tag_33\n      swap4\n      swap3\n      swap2\n      swap1\n      tag_20\n      jump\t// in\n    tag_33:\n      mload(0x40)\n      dup1\n      swap2\n      sub\n      swap1\n      return\n        /* \"SimpleSwap.sol\":373:434  mapping(bytes32 => mapping(address => uint)) public lpBalance */\n    tag_8:\n      tag_34\n      0x04\n      dup1\n      calldatasize\n      sub\n      dup2\n      add\n      swap1\n      tag_35\n      swap2\n      swap1\n      tag_36\n      jump\t// in\n    tag_35:\n      tag_37\n      jump\t// in\n    tag_34:\n      mload(0x40)\n      tag_38\n      swap2\n      swap1\n      tag_39\n      jump\t// in\n    tag_38:\n      mload(0x40)\n      dup1\n      swap2\n      sub\n      swap1\n      return\n        /* \"SimpleSwap.sol\":4488:4917  function removeLiquidityWithTtl(... */\n    tag_12:\n        /* \"SimpleSwap.sol\":4715:4731  uint amountASent */\n      0x00\n        /* \"SimpleSwap.sol\":4733:4749  uint amountBSent */\n      0x00\n        /* \"SimpleSwap.sol\":4765:4778  uint deadline */\n      0x00\n        /* \"SimpleSwap.sol\":4799:4809  ttlSeconds */\n      dup4\n        /* \"SimpleSwap.sol\":4781:4796  block.timestamp */\n      timestamp\n        /* \"SimpleSwap.sol\":4781:4809  block.timestamp + ttlSeconds */\n      tag_41\n      swap2\n      swap1\n      tag_42\n      jump\t// in\n    tag_41:\n        /* \"SimpleSwap.sol\":4765:4809  uint deadline = block.timestamp + ttlSeconds */\n      swap1\n      pop\n        /* \"SimpleSwap.sol\":4830:4910  removeLiquidity(tokenA, tokenB, liquidity, amountAMin, amountBMin, to, deadline) */\n      tag_43\n        /* \"SimpleSwap.sol\":4846:4852  tokenA */\n      dup11\n        /* \"SimpleSwap.sol\":4854:4860  tokenB */\n      dup11\n        /* \"SimpleSwap.sol\":4862:4871  liquidity */\n      dup11\n        /* \"SimpleSwap.sol\":4873:4883  amountAMin */\n      dup11\n        /* \"SimpleSwap.sol\":4885:4895  amountBMin */\n      dup11\n        /* \"SimpleSwap.sol\":4897:4899  to */\n      dup11\n        /* \"SimpleSwap.sol\":4901:4909  deadline */\n      dup8\n        /* \"SimpleSwap.sol\":4830:4845  removeLiquidity */\n      tag_28\n        /* \"SimpleSwap.sol\":4830:4910  removeLiquidity(tokenA, tokenB, liquidity, amountAMin, amountBMin, to, deadline) */\n      jump\t// in\n    tag_43:\n        /* \"SimpleSwap.sol\":4823:4910  return removeLiquidity(tokenA, tokenB, liquidity, amountAMin, amountBMin, to, deadline) */\n      swap3\n      pop\n      swap3\n      pop\n      pop\n        /* \"SimpleSwap.sol\":4488:4917  function removeLiquidityWithTtl(... */\n      swap8\n      pop\n      swap8\n      swap6\n      pop\n      pop\n      pop\n      pop\n      pop\n      pop\n      jump\t// out\n        /* \"SimpleSwap.sol\":2631:3117  function addLiquidityWithTtl(... */\n    tag_18:\n        /* \"SimpleSwap.sol\":2889:2901  uint amountA */\n      0x00\n        /* \"SimpleSwap.sol\":2903:2915  uint amountB */\n      0x00\n        /* \"SimpleSwap.sol\":2917:2931  uint liquidity */\n      0x00\n        /* \"SimpleSwap.sol\":2947:2960  uint deadline */\n      0x00\n        /* \"SimpleSwap.sol\":2981:2991  ttlSeconds */\n      dup5\n        /* \"SimpleSwap.sol\":2963:2978  block.timestamp */\n      timestamp\n        /* \"SimpleSwap.sol\":2963:2991  block.timestamp + ttlSeconds */\n      tag_45\n      swap2\n      swap1\n      tag_42\n      jump\t// in\n    tag_45:\n        /* \"SimpleSwap.sol\":2947:2991  uint deadline = block.timestamp + ttlSeconds */\n      swap1\n      pop\n        /* \"SimpleSwap.sol\":3012:3110  addLiquidity(tokenA, tokenB, amountADesired, amountBDesired, amountAMin, amountBMin, to, deadline) */\n      tag_46\n        /* \"SimpleSwap.sol\":3025:3031  tokenA */\n      dup13\n        /* \"SimpleSwap.sol\":3033:3039  tokenB */\n      dup13\n        /* \"SimpleSwap.sol\":3041:3055  amountADesired */\n      dup13\n        /* \"SimpleSwap.sol\":3057:3071  amountBDesired */\n      dup13\n        /* \"SimpleSwap.sol\":3073:3083  amountAMin */\n      dup13\n        /* \"SimpleSwap.sol\":3085:3095  amountBMin */\n      dup13\n        /* \"SimpleSwap.sol\":3097:3099  to */\n      dup13\n        /* \"SimpleSwap.sol\":3101:3109  deadline */\n      dup9\n        /* \"SimpleSwap.sol\":3012:3024  addLiquidity */\n      tag_32\n        /* \"SimpleSwap.sol\":3012:3110  addLiquidity(tokenA, tokenB, amountADesired, amountBDesired, amountAMin, amountBMin, to, deadline) */\n      jump\t// in\n    tag_46:\n        /* \"SimpleSwap.sol\":3005:3110  return addLiquidity(tokenA, tokenB, amountADesired, amountBDesired, amountAMin, amountBMin, to, deadline) */\n      swap4\n      pop\n      swap4\n      pop\n      swap4\n      pop\n      pop\n        /* \"SimpleSwap.sol\":2631:3117  function addLiquidityWithTtl(... */\n      swap9\n      pop\n      swap9\n      pop\n      swap9\n      swap6\n      pop\n      pop\n      pop\n      pop\n      pop\n      pop\n      jump\t// out\n        /* \"SimpleSwap.sol\":330:367  mapping(bytes32 => Pool) public pools */\n    tag_24:\n      mstore(0x20, 0x00)\n      dup1\n      0x00\n      mstore\n      keccak256(0x00, 0x40)\n      0x00\n      swap2\n      pop\n      swap1\n      pop\n      dup1\n      0x00\n      add\n      sload\n      swap1\n      dup1\n      0x01\n      add\n      sload\n      swap1\n      dup1\n      0x02\n      add\n      sload\n      swap1\n      pop\n      dup4\n      jump\t// out\n        /* \"SimpleSwap.sol\":3125:4403  function removeLiquidity(address tokenA, ... */\n    tag_28:\n        /* \"SimpleSwap.sol\":3449:3465  uint amountASent */\n      0x00\n        /* \"SimpleSwap.sol\":3467:3483  uint amountBSent */\n      0x00\n        /* \"SimpleSwap.sol\":3531:3539  deadline */\n      dup3\n        /* \"SimpleSwap.sol\":3512:3527  block.timestamp */\n      timestamp\n        /* \"SimpleSwap.sol\":3512:3539  block.timestamp <= deadline */\n      gt\n      iszero\n        /* \"SimpleSwap.sol\":3504:3551  require(block.timestamp <= deadline, \"Expired\") */\n      tag_48\n      jumpi\n      mload(0x40)\n      0x08c379a000000000000000000000000000000000000000000000000000000000\n      dup2\n      mstore\n      0x04\n      add\n      tag_49\n      swap1\n      tag_50\n      jump\t// in\n    tag_49:\n      mload(0x40)\n      dup1\n      swap2\n      sub\n      swap1\n      revert\n    tag_48:\n        /* \"SimpleSwap.sol\":3566:3581  bytes32 pairKey */\n      0x00\n        /* \"SimpleSwap.sol\":3584:3604  _key(tokenA, tokenB) */\n      tag_51\n        /* \"SimpleSwap.sol\":3589:3595  tokenA */\n      dup11\n        /* \"SimpleSwap.sol\":3597:3603  tokenB */\n      dup11\n        /* \"SimpleSwap.sol\":3584:3588  _key */\n      tag_52\n        /* \"SimpleSwap.sol\":3584:3604  _key(tokenA, tokenB) */\n      jump\t// in\n    tag_51:\n        /* \"SimpleSwap.sol\":3566:3604  bytes32 pairKey = _key(tokenA, tokenB) */\n      swap1\n      pop\n        /* \"SimpleSwap.sol\":3618:3632  Pool storage p */\n      0x00\n        /* \"SimpleSwap.sol\":3635:3640  pools */\n      0x00\n        /* \"SimpleSwap.sol\":3635:3649  pools[pairKey] */\n      0x00\n        /* \"SimpleSwap.sol\":3641:3648  pairKey */\n      dup4\n        /* \"SimpleSwap.sol\":3635:3649  pools[pairKey] */\n      dup2\n      mstore\n      0x20\n      add\n      swap1\n      dup2\n      mstore\n      0x20\n      add\n      0x00\n      keccak256\n        /* \"SimpleSwap.sol\":3618:3649  Pool storage p = pools[pairKey] */\n      swap1\n      pop\n        /* \"SimpleSwap.sol\":3705:3714  liquidity */\n      dup9\n        /* \"SimpleSwap.sol\":3671:3680  lpBalance */\n      0x01\n        /* \"SimpleSwap.sol\":3671:3689  lpBalance[pairKey] */\n      0x00\n        /* \"SimpleSwap.sol\":3681:3688  pairKey */\n      dup5\n        /* \"SimpleSwap.sol\":3671:3689  lpBalance[pairKey] */\n      dup2\n      mstore\n      0x20\n      add\n      swap1\n      dup2\n      mstore\n      0x20\n      add\n      0x00\n      keccak256\n        /* \"SimpleSwap.sol\":3671:3701  lpBalance[pairKey][msg.sender] */\n      0x00\n        /* \"SimpleSwap.sol\":3690:3700  msg.sender */\n      caller\n        /* \"SimpleSwap.sol\":3671:3701  lpBalance[pairKey][msg.sender] */\n      0xffffffffffffffffffffffffffffffffffffffff\n      and\n      0xffffffffffffffffffffffffffffffffffffffff\n      and\n      dup2\n      mstore\n      0x20\n      add\n      swap1\n      dup2\n      mstore\n      0x20\n      add\n      0x00\n      keccak256\n      sload\n        /* \"SimpleSwap.sol\":3671:3714  lpBalance[pairKey][msg.sender] >= liquidity */\n      lt\n      iszero\n        /* \"SimpleSwap.sol\":3663:3739  require(lpBalance[pairKey][msg.sender] >= liquidity, \"Not enough LP tokens\") */\n      tag_53\n      jumpi\n      mload(0x40)\n      0x08c379a000000000000000000000000000000000000000000000000000000000\n      dup2\n      mstore\n      0x04\n      add\n      tag_54\n      swap1\n      tag_55\n      jump\t// in\n    tag_54:\n      mload(0x40)\n      dup1\n      swap2\n      sub\n      swap1\n      revert\n    tag_53:\n        /* \"SimpleSwap.sol\":3808:3809  p */\n      dup1\n        /* \"SimpleSwap.sol\":3808:3824  p.totalLiquidity */\n      0x02\n      add\n      sload\n        /* \"SimpleSwap.sol\":3794:3795  p */\n      dup2\n        /* \"SimpleSwap.sol\":3794:3804  p.reserveA */\n      0x00\n      add\n      sload\n        /* \"SimpleSwap.sol\":3782:3791  liquidity */\n      dup11\n        /* \"SimpleSwap.sol\":3782:3804  liquidity * p.reserveA */\n      tag_56\n      swap2\n      swap1\n      tag_57\n      jump\t// in\n    tag_56:\n        /* \"SimpleSwap.sol\":3781:3824  (liquidity * p.reserveA) / p.totalLiquidity */\n      tag_58\n      swap2\n      swap1\n      tag_59\n      jump\t// in\n    tag_58:\n        /* \"SimpleSwap.sol\":3767:3824  amountASent = (liquidity * p.reserveA) / p.totalLiquidity */\n      swap4\n      pop\n        /* \"SimpleSwap.sol\":3879:3880  p */\n      dup1\n        /* \"SimpleSwap.sol\":3879:3895  p.totalLiquidity */\n      0x02\n      add\n      sload\n        /* \"SimpleSwap.sol\":3865:3866  p */\n      dup2\n        /* \"SimpleSwap.sol\":3865:3875  p.reserveB */\n      0x01\n      add\n      sload\n        /* \"SimpleSwap.sol\":3853:3862  liquidity */\n      dup11\n        /* \"SimpleSwap.sol\":3853:3875  liquidity * p.reserveB */\n      tag_60\n      swap2\n      swap1\n      tag_57\n      jump\t// in\n    tag_60:\n        /* \"SimpleSwap.sol\":3852:3895  (liquidity * p.reserveB) / p.totalLiquidity */\n      tag_61\n      swap2\n      swap1\n      tag_59\n      jump\t// in\n    tag_61:\n        /* \"SimpleSwap.sol\":3838:3895  amountBSent = (liquidity * p.reserveB) / p.totalLiquidity */\n      swap3\n      pop\n        /* \"SimpleSwap.sol\":3933:3943  amountAMin */\n      dup8\n        /* \"SimpleSwap.sol\":3918:3929  amountASent */\n      dup5\n        /* \"SimpleSwap.sol\":3918:3943  amountASent >= amountAMin */\n      lt\n      iszero\n        /* \"SimpleSwap.sol\":3910:3958  require(amountASent >= amountAMin, \"Slippage A\") */\n      tag_62\n      jumpi\n      mload(0x40)\n      0x08c379a000000000000000000000000000000000000000000000000000000000\n      dup2\n      mstore\n      0x04\n      add\n      tag_63\n      swap1\n      tag_64\n      jump\t// in\n    tag_63:\n      mload(0x40)\n      dup1\n      swap2\n      sub\n      swap1\n      revert\n    tag_62:\n        /* \"SimpleSwap.sol\":3995:4005  amountBMin */\n      dup7\n        /* \"SimpleSwap.sol\":3980:3991  amountBSent */\n      dup4\n        /* \"SimpleSwap.sol\":3980:4005  amountBSent >= amountBMin */\n      lt\n      iszero\n        /* \"SimpleSwap.sol\":3972:4020  require(amountBSent >= amountBMin, \"Slippage B\") */\n      tag_65\n      jumpi\n      mload(0x40)\n      0x08c379a000000000000000000000000000000000000000000000000000000000\n      dup2\n      mstore\n      0x04\n      add\n      tag_66\n      swap1\n      tag_67\n      jump\t// in\n    tag_66:\n      mload(0x40)\n      dup1\n      swap2\n      sub\n      swap1\n      revert\n    tag_65:\n        /* \"SimpleSwap.sol\":4062:4073  amountASent */\n      dup4\n        /* \"SimpleSwap.sol\":4048:4049  p */\n      dup2\n        /* \"SimpleSwap.sol\":4048:4058  p.reserveA */\n      0x00\n      add\n      0x00\n        /* \"SimpleSwap.sol\":4048:4073  p.reserveA -= amountASent */\n      dup3\n      dup3\n      sload\n      tag_68\n      swap2\n      swap1\n      tag_69\n      jump\t// in\n    tag_68:\n      swap3\n      pop\n      pop\n      dup2\n      swap1\n      sstore\n      pop\n        /* \"SimpleSwap.sol\":4101:4112  amountBSent */\n      dup3\n        /* \"SimpleSwap.sol\":4087:4088  p */\n      dup2\n        /* \"SimpleSwap.sol\":4087:4097  p.reserveB */\n      0x01\n      add\n      0x00\n        /* \"SimpleSwap.sol\":4087:4112  p.reserveB -= amountBSent */\n      dup3\n      dup3\n      sload\n      tag_70\n      swap2\n      swap1\n      tag_69\n      jump\t// in\n    tag_70:\n      swap3\n      pop\n      pop\n      dup2\n      swap1\n      sstore\n      pop\n        /* \"SimpleSwap.sol\":4146:4155  liquidity */\n      dup9\n        /* \"SimpleSwap.sol\":4126:4127  p */\n      dup2\n        /* \"SimpleSwap.sol\":4126:4142  p.totalLiquidity */\n      0x02\n      add\n      0x00\n        /* \"SimpleSwap.sol\":4126:4155  p.totalLiquidity -= liquidity */\n      dup3\n      dup3\n      sload\n      tag_71\n      swap2\n      swap1\n      tag_69\n      jump\t// in\n    tag_71:\n      swap3\n      pop\n      pop\n      dup2\n      swap1\n      sstore\n      pop\n        /* \"SimpleSwap.sol\":4217:4226  liquidity */\n      dup9\n        /* \"SimpleSwap.sol\":4183:4192  lpBalance */\n      0x01\n        /* \"SimpleSwap.sol\":4183:4201  lpBalance[pairKey] */\n      0x00\n        /* \"SimpleSwap.sol\":4193:4200  pairKey */\n      dup5\n        /* \"SimpleSwap.sol\":4183:4201  lpBalance[pairKey] */\n      dup2\n      mstore\n      0x20\n      add\n      swap1\n      dup2\n      mstore\n      0x20\n      add\n      0x00\n      keccak256\n        /* \"SimpleSwap.sol\":4183:4213  lpBalance[pairKey][msg.sender] */\n      0x00\n        /* \"SimpleSwap.sol\":4202:4212  msg.sender */\n      caller\n        /* \"SimpleSwap.sol\":4183:4213  lpBalance[pairKey][msg.sender] */\n      0xffffffffffffffffffffffffffffffffffffffff\n      and\n      0xffffffffffffffffffffffffffffffffffffffff\n      and\n      dup2\n      mstore\n      0x20\n      add\n      swap1\n      dup2\n      mstore\n      0x20\n      add\n      0x00\n      keccak256\n      0x00\n        /* \"SimpleSwap.sol\":4183:4226  lpBalance[pairKey][msg.sender] -= liquidity */\n      dup3\n      dup3\n      sload\n      tag_72\n      swap2\n      swap1\n      tag_69\n      jump\t// in\n    tag_72:\n      swap3\n      pop\n      pop\n      dup2\n      swap1\n      sstore\n      pop\n        /* \"SimpleSwap.sol\":4261:4267  tokenA */\n      dup11\n        /* \"SimpleSwap.sol\":4254:4277  IERC20(tokenA).transfer */\n      0xffffffffffffffffffffffffffffffffffffffff\n      and\n      0xa9059cbb\n        /* \"SimpleSwap.sol\":4278:4280  to */\n      dup8\n        /* \"SimpleSwap.sol\":4282:4293  amountASent */\n      dup7\n        /* \"SimpleSwap.sol\":4254:4294  IERC20(tokenA).transfer(to, amountASent) */\n      mload(0x40)\n      dup4\n      0xffffffff\n      and\n      0xe0\n      shl\n      dup2\n      mstore\n      0x04\n      add\n      tag_73\n      swap3\n      swap2\n      swap1\n      tag_74\n      jump\t// in\n    tag_73:\n      0x20\n      mload(0x40)\n      dup1\n      dup4\n      sub\n      dup2\n      0x00\n      dup8\n      gas\n      call\n      iszero\n      dup1\n      iszero\n      tag_76\n      jumpi\n      returndatacopy(0x00, 0x00, returndatasize)\n      revert(0x00, returndatasize)\n    tag_76:\n      pop\n      pop\n      pop\n      pop\n      mload(0x40)\n      returndatasize\n      not(0x1f)\n      0x1f\n      dup3\n      add\n      and\n      dup3\n      add\n      dup1\n      0x40\n      mstore\n      pop\n      dup2\n      add\n      swap1\n      tag_77\n      swap2\n      swap1\n      tag_78\n      jump\t// in\n    tag_77:\n      pop\n        /* \"SimpleSwap.sol\":4315:4321  tokenB */\n      dup10\n        /* \"SimpleSwap.sol\":4308:4331  IERC20(tokenB).transfer */\n      0xffffffffffffffffffffffffffffffffffffffff\n      and\n      0xa9059cbb\n        /* \"SimpleSwap.sol\":4332:4334  to */\n      dup8\n        /* \"SimpleSwap.sol\":4336:4347  amountBSent */\n      dup6\n        /* \"SimpleSwap.sol\":4308:4348  IERC20(tokenB).transfer(to, amountBSent) */\n      mload(0x40)\n      dup4\n      0xffffffff\n      and\n      0xe0\n      shl\n      dup2\n      mstore\n      0x04\n      add\n      tag_79\n      swap3\n      swap2\n      swap1\n      tag_74\n      jump\t// in\n    tag_79:\n      0x20\n      mload(0x40)\n      dup1\n      dup4\n      sub\n      dup2\n      0x00\n      dup8\n      gas\n      call\n      iszero\n      dup1\n      iszero\n      tag_81\n      jumpi\n      returndatacopy(0x00, 0x00, returndatasize)\n      revert(0x00, returndatasize)\n    tag_81:\n      pop\n      pop\n      pop\n      pop\n      mload(0x40)\n      returndatasize\n      not(0x1f)\n      0x1f\n      dup3\n      add\n      and\n      dup3\n      add\n      dup1\n      0x40\n      mstore\n      pop\n      dup2\n      add\n      swap1\n      tag_82\n      swap2\n      swap1\n      tag_78\n      jump\t// in\n    tag_82:\n      pop\n        /* \"SimpleSwap.sol\":4363:4396  return (amountASent, amountBSent) */\n      pop\n      pop\n        /* \"SimpleSwap.sol\":3125:4403  function removeLiquidity(address tokenA, ... */\n      swap8\n      pop\n      swap8\n      swap6\n      pop\n      pop\n      pop\n      pop\n      pop\n      pop\n      jump\t// out\n        /* \"SimpleSwap.sol\":691:2546  function addLiquidity(... */\n    tag_32:\n        /* \"SimpleSwap.sol\":934:950  uint amountASent */\n      0x00\n        /* \"SimpleSwap.sol\":952:968  uint amountBSent */\n      0x00\n        /* \"SimpleSwap.sol\":970:984  uint liquidity */\n      0x00\n        /* \"SimpleSwap.sol\":1027:1035  deadline */\n      dup4\n        /* \"SimpleSwap.sol\":1008:1023  block.timestamp */\n      timestamp\n        /* \"SimpleSwap.sol\":1008:1035  block.timestamp <= deadline */\n      gt\n      iszero\n        /* \"SimpleSwap.sol\":1000:1047  require(block.timestamp <= deadline, \"Expired\") */\n      tag_84\n      jumpi\n      mload(0x40)\n      0x08c379a000000000000000000000000000000000000000000000000000000000\n      dup2\n      mstore\n      0x04\n      add\n      tag_85\n      swap1\n      tag_50\n      jump\t// in\n    tag_85:\n      mload(0x40)\n      dup1\n      swap2\n      sub\n      swap1\n      revert\n    tag_84:\n        /* \"SimpleSwap.sol\":1057:1072  bytes32 pairKey */\n      0x00\n        /* \"SimpleSwap.sol\":1075:1095  _key(tokenA, tokenB) */\n      tag_86\n        /* \"SimpleSwap.sol\":1080:1086  tokenA */\n      dup13\n        /* \"SimpleSwap.sol\":1088:1094  tokenB */\n      dup13\n        /* \"SimpleSwap.sol\":1075:1079  _key */\n      tag_52\n        /* \"SimpleSwap.sol\":1075:1095  _key(tokenA, tokenB) */\n      jump\t// in\n    tag_86:\n        /* \"SimpleSwap.sol\":1057:1095  bytes32 pairKey = _key(tokenA, tokenB) */\n      swap1\n      pop\n        /* \"SimpleSwap.sol\":1106:1120  Pool storage p */\n      0x00\n        /* \"SimpleSwap.sol\":1123:1128  pools */\n      0x00\n        /* \"SimpleSwap.sol\":1123:1137  pools[pairKey] */\n      0x00\n        /* \"SimpleSwap.sol\":1129:1136  pairKey */\n      dup4\n        /* \"SimpleSwap.sol\":1123:1137  pools[pairKey] */\n      dup2\n      mstore\n      0x20\n      add\n      swap1\n      dup2\n      mstore\n      0x20\n      add\n      0x00\n      keccak256\n        /* \"SimpleSwap.sol\":1106:1137  Pool storage p = pools[pairKey] */\n      swap1\n      pop\n        /* \"SimpleSwap.sol\":1181:1182  0 */\n      0x00\n        /* \"SimpleSwap.sol\":1161:1162  p */\n      dup2\n        /* \"SimpleSwap.sol\":1161:1177  p.totalLiquidity */\n      0x02\n      add\n      sload\n        /* \"SimpleSwap.sol\":1161:1182  p.totalLiquidity == 0 */\n      sub\n        /* \"SimpleSwap.sol\":1157:2118  if (p.totalLiquidity == 0) {... */\n      tag_87\n      jumpi\n        /* \"SimpleSwap.sol\":1214:1228  amountADesired */\n      dup11\n        /* \"SimpleSwap.sol\":1198:1228  amountASent   = amountADesired */\n      swap5\n      pop\n        /* \"SimpleSwap.sol\":1258:1272  amountBDesired */\n      dup10\n        /* \"SimpleSwap.sol\":1242:1272  amountBSent   = amountBDesired */\n      swap4\n      pop\n        /* \"SimpleSwap.sol\":1298:1334  Math.sqrt(amountASent * amountBSent) */\n      tag_88\n        /* \"SimpleSwap.sol\":1322:1333  amountBSent */\n      dup5\n        /* \"SimpleSwap.sol\":1308:1319  amountASent */\n      dup7\n        /* \"SimpleSwap.sol\":1308:1333  amountASent * amountBSent */\n      tag_89\n      swap2\n      swap1\n      tag_57\n      jump\t// in\n    tag_89:\n        /* \"SimpleSwap.sol\":1298:1307  Math.sqrt */\n      tag_90\n        /* \"SimpleSwap.sol\":1298:1334  Math.sqrt(amountASent * amountBSent) */\n      jump\t// in\n    tag_88:\n        /* \"SimpleSwap.sol\":1286:1334  liquidity = Math.sqrt(amountASent * amountBSent) */\n      swap3\n      pop\n        /* \"SimpleSwap.sol\":1157:2118  if (p.totalLiquidity == 0) {... */\n      jump(tag_91)\n    tag_87:\n        /* \"SimpleSwap.sol\":1378:1397  uint amountBOptimal */\n      0x00\n        /* \"SimpleSwap.sol\":1432:1433  p */\n      dup2\n        /* \"SimpleSwap.sol\":1432:1442  p.reserveA */\n      0x00\n      add\n      sload\n        /* \"SimpleSwap.sol\":1418:1419  p */\n      dup3\n        /* \"SimpleSwap.sol\":1418:1428  p.reserveB */\n      0x01\n      add\n      sload\n        /* \"SimpleSwap.sol\":1401:1415  amountADesired */\n      dup14\n        /* \"SimpleSwap.sol\":1401:1428  amountADesired * p.reserveB */\n      tag_92\n      swap2\n      swap1\n      tag_57\n      jump\t// in\n    tag_92:\n        /* \"SimpleSwap.sol\":1400:1442  (amountADesired * p.reserveB) / p.reserveA */\n      tag_93\n      swap2\n      swap1\n      tag_59\n      jump\t// in\n    tag_93:\n        /* \"SimpleSwap.sol\":1378:1442  uint amountBOptimal = (amountADesired * p.reserveB) / p.reserveA */\n      swap1\n      pop\n        /* \"SimpleSwap.sol\":1478:1492  amountBDesired */\n      dup11\n        /* \"SimpleSwap.sol\":1460:1474  amountBOptimal */\n      dup2\n        /* \"SimpleSwap.sol\":1460:1492  amountBOptimal <= amountBDesired */\n      gt\n        /* \"SimpleSwap.sol\":1456:1934  if (amountBOptimal <= amountBDesired) {... */\n      tag_94\n      jumpi\n        /* \"SimpleSwap.sol\":1538:1548  amountBMin */\n      dup9\n        /* \"SimpleSwap.sol\":1520:1534  amountBOptimal */\n      dup2\n        /* \"SimpleSwap.sol\":1520:1548  amountBOptimal >= amountBMin */\n      lt\n      iszero\n        /* \"SimpleSwap.sol\":1512:1563  require(amountBOptimal >= amountBMin, \"Slippage B\") */\n      tag_95\n      jumpi\n      mload(0x40)\n      0x08c379a000000000000000000000000000000000000000000000000000000000\n      dup2\n      mstore\n      0x04\n      add\n      tag_96\n      swap1\n      tag_67\n      jump\t// in\n    tag_96:\n      mload(0x40)\n      dup1\n      swap2\n      sub\n      swap1\n      revert\n    tag_95:\n        /* \"SimpleSwap.sol\":1595:1609  amountADesired */\n      dup12\n        /* \"SimpleSwap.sol\":1581:1609  amountASent = amountADesired */\n      swap6\n      pop\n        /* \"SimpleSwap.sol\":1641:1655  amountBOptimal */\n      dup1\n        /* \"SimpleSwap.sol\":1627:1655  amountBSent = amountBOptimal */\n      swap5\n      pop\n        /* \"SimpleSwap.sol\":1456:1934  if (amountBOptimal <= amountBDesired) {... */\n      jump(tag_97)\n    tag_94:\n        /* \"SimpleSwap.sol\":1694:1713  uint amountAOptimal */\n      0x00\n        /* \"SimpleSwap.sol\":1748:1749  p */\n      dup3\n        /* \"SimpleSwap.sol\":1748:1758  p.reserveB */\n      0x01\n      add\n      sload\n        /* \"SimpleSwap.sol\":1734:1735  p */\n      dup4\n        /* \"SimpleSwap.sol\":1734:1744  p.reserveA */\n      0x00\n      add\n      sload\n        /* \"SimpleSwap.sol\":1717:1731  amountBDesired */\n      dup14\n        /* \"SimpleSwap.sol\":1717:1744  amountBDesired * p.reserveA */\n      tag_98\n      swap2\n      swap1\n      tag_57\n      jump\t// in\n    tag_98:\n        /* \"SimpleSwap.sol\":1716:1758  (amountBDesired * p.reserveA) / p.reserveB */\n      tag_99\n      swap2\n      swap1\n      tag_59\n      jump\t// in\n    tag_99:\n        /* \"SimpleSwap.sol\":1694:1758  uint amountAOptimal = (amountBDesired * p.reserveA) / p.reserveB */\n      swap1\n      pop\n        /* \"SimpleSwap.sol\":1802:1812  amountAMin */\n      dup11\n        /* \"SimpleSwap.sol\":1784:1798  amountAOptimal */\n      dup2\n        /* \"SimpleSwap.sol\":1784:1812  amountAOptimal >= amountAMin */\n      lt\n      iszero\n        /* \"SimpleSwap.sol\":1776:1827  require(amountAOptimal >= amountAMin, \"Slippage A\") */\n      tag_100\n      jumpi\n      mload(0x40)\n      0x08c379a000000000000000000000000000000000000000000000000000000000\n      dup2\n      mstore\n      0x04\n      add\n      tag_101\n      swap1\n      tag_64\n      jump\t// in\n    tag_101:\n      mload(0x40)\n      dup1\n      swap2\n      sub\n      swap1\n      revert\n    tag_100:\n        /* \"SimpleSwap.sol\":1859:1873  amountAOptimal */\n      dup1\n        /* \"SimpleSwap.sol\":1845:1873  amountASent = amountAOptimal */\n      swap7\n      pop\n        /* \"SimpleSwap.sol\":1905:1919  amountBDesired */\n      dup12\n        /* \"SimpleSwap.sol\":1891:1919  amountBSent = amountBDesired */\n      swap6\n      pop\n        /* \"SimpleSwap.sol\":1676:1934  {... */\n      pop\n        /* \"SimpleSwap.sol\":1456:1934  if (amountBOptimal <= amountBDesired) {... */\n    tag_97:\n        /* \"SimpleSwap.sol\":1959:2107  Math.min(... */\n      tag_102\n        /* \"SimpleSwap.sol\":2020:2021  p */\n      dup3\n        /* \"SimpleSwap.sol\":2020:2030  p.reserveA */\n      0x00\n      add\n      sload\n        /* \"SimpleSwap.sol\":2000:2001  p */\n      dup4\n        /* \"SimpleSwap.sol\":2000:2016  p.totalLiquidity */\n      0x02\n      add\n      sload\n        /* \"SimpleSwap.sol\":1986:1997  amountASent */\n      dup9\n        /* \"SimpleSwap.sol\":1986:2016  amountASent * p.totalLiquidity */\n      tag_103\n      swap2\n      swap1\n      tag_57\n      jump\t// in\n    tag_103:\n        /* \"SimpleSwap.sol\":1985:2030  (amountASent * p.totalLiquidity) / p.reserveA */\n      tag_104\n      swap2\n      swap1\n      tag_59\n      jump\t// in\n    tag_104:\n        /* \"SimpleSwap.sol\":2083:2084  p */\n      dup4\n        /* \"SimpleSwap.sol\":2083:2093  p.reserveB */\n      0x01\n      add\n      sload\n        /* \"SimpleSwap.sol\":2063:2064  p */\n      dup5\n        /* \"SimpleSwap.sol\":2063:2079  p.totalLiquidity */\n      0x02\n      add\n      sload\n        /* \"SimpleSwap.sol\":2049:2060  amountBSent */\n      dup9\n        /* \"SimpleSwap.sol\":2049:2079  amountBSent * p.totalLiquidity */\n      tag_105\n      swap2\n      swap1\n      tag_57\n      jump\t// in\n    tag_105:\n        /* \"SimpleSwap.sol\":2048:2093  (amountBSent * p.totalLiquidity) / p.reserveB */\n      tag_106\n      swap2\n      swap1\n      tag_59\n      jump\t// in\n    tag_106:\n        /* \"SimpleSwap.sol\":1959:1967  Math.min */\n      tag_107\n        /* \"SimpleSwap.sol\":1959:2107  Math.min(... */\n      jump\t// in\n    tag_102:\n        /* \"SimpleSwap.sol\":1947:2107  liquidity = Math.min(... */\n      swap4\n      pop\n        /* \"SimpleSwap.sol\":1351:2118  {... */\n      pop\n        /* \"SimpleSwap.sol\":1157:2118  if (p.totalLiquidity == 0) {... */\n    tag_91:\n        /* \"SimpleSwap.sol\":2147:2148  0 */\n      0x00\n        /* \"SimpleSwap.sol\":2135:2144  liquidity */\n      dup4\n        /* \"SimpleSwap.sol\":2135:2148  liquidity > 0 */\n      gt\n        /* \"SimpleSwap.sol\":2127:2158  require(liquidity > 0, \"LIQ=0\") */\n      tag_108\n      jumpi\n      mload(0x40)\n      0x08c379a000000000000000000000000000000000000000000000000000000000\n      dup2\n      mstore\n      0x04\n      add\n      tag_109\n      swap1\n      tag_110\n      jump\t// in\n    tag_109:\n      mload(0x40)\n      dup1\n      swap2\n      sub\n      swap1\n      revert\n    tag_108:\n        /* \"SimpleSwap.sol\":2185:2191  tokenA */\n      dup13\n        /* \"SimpleSwap.sol\":2178:2205  IERC20(tokenA).transferFrom */\n      0xffffffffffffffffffffffffffffffffffffffff\n      and\n      0x23b872dd\n        /* \"SimpleSwap.sol\":2206:2216  msg.sender */\n      caller\n        /* \"SimpleSwap.sol\":2218:2220  to */\n      dup10\n        /* \"SimpleSwap.sol\":2222:2233  amountASent */\n      dup9\n        /* \"SimpleSwap.sol\":2178:2234  IERC20(tokenA).transferFrom(msg.sender, to, amountASent) */\n      mload(0x40)\n      dup5\n      0xffffffff\n      and\n      0xe0\n      shl\n      dup2\n      mstore\n      0x04\n      add\n      tag_111\n      swap4\n      swap3\n      swap2\n      swap1\n      tag_112\n      jump\t// in\n    tag_111:\n      0x20\n      mload(0x40)\n      dup1\n      dup4\n      sub\n      dup2\n      0x00\n      dup8\n      gas\n      call\n      iszero\n      dup1\n      iszero\n      tag_114\n      jumpi\n      returndatacopy(0x00, 0x00, returndatasize)\n      revert(0x00, returndatasize)\n    tag_114:\n      pop\n      pop\n      pop\n      pop\n      mload(0x40)\n      returndatasize\n      not(0x1f)\n      0x1f\n      dup3\n      add\n      and\n      dup3\n      add\n      dup1\n      0x40\n      mstore\n      pop\n      dup2\n      add\n      swap1\n      tag_115\n      swap2\n      swap1\n      tag_78\n      jump\t// in\n    tag_115:\n      pop\n        /* \"SimpleSwap.sol\":2251:2257  tokenB */\n      dup12\n        /* \"SimpleSwap.sol\":2244:2271  IERC20(tokenB).transferFrom */\n      0xffffffffffffffffffffffffffffffffffffffff\n      and\n      0x23b872dd\n        /* \"SimpleSwap.sol\":2272:2282  msg.sender */\n      caller\n        /* \"SimpleSwap.sol\":2284:2286  to */\n      dup10\n        /* \"SimpleSwap.sol\":2288:2299  amountBSent */\n      dup8\n        /* \"SimpleSwap.sol\":2244:2300  IERC20(tokenB).transferFrom(msg.sender, to, amountBSent) */\n      mload(0x40)\n      dup5\n      0xffffffff\n      and\n      0xe0\n      shl\n      dup2\n      mstore\n      0x04\n      add\n      tag_116\n      swap4\n      swap3\n      swap2\n      swap1\n      tag_112\n      jump\t// in\n    tag_116:\n      0x20\n      mload(0x40)\n      dup1\n      dup4\n      sub\n      dup2\n      0x00\n      dup8\n      gas\n      call\n      iszero\n      dup1\n      iszero\n      tag_118\n      jumpi\n      returndatacopy(0x00, 0x00, returndatasize)\n      revert(0x00, returndatasize)\n    tag_118:\n      pop\n      pop\n      pop\n      pop\n      mload(0x40)\n      returndatasize\n      not(0x1f)\n      0x1f\n      dup3\n      add\n      and\n      dup3\n      add\n      dup1\n      0x40\n      mstore\n      pop\n      dup2\n      add\n      swap1\n      tag_119\n      swap2\n      swap1\n      tag_78\n      jump\t// in\n    tag_119:\n      pop\n        /* \"SimpleSwap.sol\":2340:2351  amountASent */\n      dup5\n        /* \"SimpleSwap.sol\":2320:2321  p */\n      dup2\n        /* \"SimpleSwap.sol\":2320:2330  p.reserveA */\n      0x00\n      add\n      0x00\n        /* \"SimpleSwap.sol\":2320:2351  p.reserveA       += amountASent */\n      dup3\n      dup3\n      sload\n      tag_120\n      swap2\n      swap1\n      tag_42\n      jump\t// in\n    tag_120:\n      swap3\n      pop\n      pop\n      dup2\n      swap1\n      sstore\n      pop\n        /* \"SimpleSwap.sol\":2381:2392  amountBSent */\n      dup4\n        /* \"SimpleSwap.sol\":2361:2362  p */\n      dup2\n        /* \"SimpleSwap.sol\":2361:2371  p.reserveB */\n      0x01\n      add\n      0x00\n        /* \"SimpleSwap.sol\":2361:2392  p.reserveB       += amountBSent */\n      dup3\n      dup3\n      sload\n      tag_121\n      swap2\n      swap1\n      tag_42\n      jump\t// in\n    tag_121:\n      swap3\n      pop\n      pop\n      dup2\n      swap1\n      sstore\n      pop\n        /* \"SimpleSwap.sol\":2422:2431  liquidity */\n      dup3\n        /* \"SimpleSwap.sol\":2402:2403  p */\n      dup2\n        /* \"SimpleSwap.sol\":2402:2418  p.totalLiquidity */\n      0x02\n      add\n      0x00\n        /* \"SimpleSwap.sol\":2402:2431  p.totalLiquidity += liquidity */\n      dup3\n      dup3\n      sload\n      tag_122\n      swap2\n      swap1\n      tag_42\n      jump\t// in\n    tag_122:\n      swap3\n      pop\n      pop\n      dup2\n      swap1\n      sstore\n      pop\n        /* \"SimpleSwap.sol\":2475:2484  liquidity */\n      dup3\n        /* \"SimpleSwap.sol\":2441:2450  lpBalance */\n      0x01\n        /* \"SimpleSwap.sol\":2441:2459  lpBalance[pairKey] */\n      0x00\n        /* \"SimpleSwap.sol\":2451:2458  pairKey */\n      dup5\n        /* \"SimpleSwap.sol\":2441:2459  lpBalance[pairKey] */\n      dup2\n      mstore\n      0x20\n      add\n      swap1\n      dup2\n      mstore\n      0x20\n      add\n      0x00\n      keccak256\n        /* \"SimpleSwap.sol\":2441:2471  lpBalance[pairKey][msg.sender] */\n      0x00\n        /* \"SimpleSwap.sol\":2460:2470  msg.sender */\n      caller\n        /* \"SimpleSwap.sol\":2441:2471  lpBalance[pairKey][msg.sender] */\n      0xffffffffffffffffffffffffffffffffffffffff\n      and\n      0xffffffffffffffffffffffffffffffffffffffff\n      and\n      dup2\n      mstore\n      0x20\n      add\n      swap1\n      dup2\n      mstore\n      0x20\n      add\n      0x00\n      keccak256\n      0x00\n        /* \"SimpleSwap.sol\":2441:2484  lpBalance[pairKey][msg.sender] += liquidity */\n      dup3\n      dup3\n      sload\n      tag_123\n      swap2\n      swap1\n      tag_42\n      jump\t// in\n    tag_123:\n      swap3\n      pop\n      pop\n      dup2\n      swap1\n      sstore\n      pop\n        /* \"SimpleSwap.sol\":2495:2539  return (amountASent, amountBSent, liquidity) */\n      pop\n      pop\n        /* \"SimpleSwap.sol\":691:2546  function addLiquidity(... */\n      swap9\n      pop\n      swap9\n      pop\n      swap9\n      swap6\n      pop\n      pop\n      pop\n      pop\n      pop\n      pop\n      jump\t// out\n        /* \"SimpleSwap.sol\":373:434  mapping(bytes32 => mapping(address => uint)) public lpBalance */\n    tag_37:\n      mstore(0x20, 0x01)\n      dup2\n      0x00\n      mstore\n      mstore(0x20, keccak256(0x00, 0x40))\n      dup1\n      0x00\n      mstore\n      keccak256(0x00, 0x40)\n      0x00\n      swap2\n      pop\n      swap2\n      pop\n      pop\n      sload\n      dup2\n      jump\t// out\n        /* \"SimpleSwap.sol\":446:679  function _key(address tokenA, address tokenB) internal pure returns (bytes32) {  ... */\n    tag_52:\n        /* \"SimpleSwap.sol\":515:522  bytes32 */\n      0x00\n        /* \"SimpleSwap.sol\":537:547  address t0 */\n      0x00\n        /* \"SimpleSwap.sol\":549:559  address t1 */\n      0x00\n        /* \"SimpleSwap.sol\":572:578  tokenB */\n      dup4\n        /* \"SimpleSwap.sol\":563:578  tokenA < tokenB */\n      0xffffffffffffffffffffffffffffffffffffffff\n      and\n        /* \"SimpleSwap.sol\":563:569  tokenA */\n      dup6\n        /* \"SimpleSwap.sol\":563:578  tokenA < tokenB */\n      0xffffffffffffffffffffffffffffffffffffffff\n      and\n      lt\n        /* \"SimpleSwap.sol\":563:616  tokenA < tokenB ? (tokenA, tokenB) : (tokenB, tokenA) */\n      tag_125\n      jumpi\n        /* \"SimpleSwap.sol\":601:607  tokenB */\n      dup4\n        /* \"SimpleSwap.sol\":609:615  tokenA */\n      dup6\n        /* \"SimpleSwap.sol\":563:616  tokenA < tokenB ? (tokenA, tokenB) : (tokenB, tokenA) */\n      jump(tag_126)\n    tag_125:\n        /* \"SimpleSwap.sol\":582:588  tokenA */\n      dup5\n        /* \"SimpleSwap.sol\":590:596  tokenB */\n      dup5\n        /* \"SimpleSwap.sol\":563:616  tokenA < tokenB ? (tokenA, tokenB) : (tokenB, tokenA) */\n    tag_126:\n        /* \"SimpleSwap.sol\":536:616  (address t0, address t1) = tokenA < tokenB ? (tokenA, tokenB) : (tokenB, tokenA) */\n      swap2\n      pop\n      swap2\n      pop\n        /* \"SimpleSwap.sol\":663:665  t0 */\n      dup2\n        /* \"SimpleSwap.sol\":667:669  t1 */\n      dup2\n        /* \"SimpleSwap.sol\":646:670  abi.encodePacked(t0, t1) */\n      add(0x20, mload(0x40))\n      tag_127\n      swap3\n      swap2\n      swap1\n      tag_128\n      jump\t// in\n    tag_127:\n      mload(0x40)\n      0x20\n      dup2\n      dup4\n      sub\n      sub\n      dup2\n      mstore\n      swap1\n      0x40\n      mstore\n        /* \"SimpleSwap.sol\":636:671  keccak256(abi.encodePacked(t0, t1)) */\n      dup1\n      mload\n      swap1\n      0x20\n      add\n      keccak256\n        /* \"SimpleSwap.sol\":629:671  return keccak256(abi.encodePacked(t0, t1)) */\n      swap3\n      pop\n      pop\n      pop\n        /* \"SimpleSwap.sol\":446:679  function _key(address tokenA, address tokenB) internal pure returns (bytes32) {  ... */\n      swap3\n      swap2\n      pop\n      pop\n      jump\t// out\n        /* \"@openzeppelin/contracts/utils/math/Math.sol\":20567:25748  function sqrt(uint256 a) internal pure returns (uint256) {... */\n    tag_90:\n        /* \"@openzeppelin/contracts/utils/math/Math.sol\":20615:20622  uint256 */\n      0x00\n        /* \"@openzeppelin/contracts/utils/math/Math.sol\":20733:20734  1 */\n      0x01\n        /* \"@openzeppelin/contracts/utils/math/Math.sol\":20728:20729  a */\n      dup3\n        /* \"@openzeppelin/contracts/utils/math/Math.sol\":20728:20734  a <= 1 */\n      gt\n        /* \"@openzeppelin/contracts/utils/math/Math.sol\":20724:20777  if (a <= 1) {... */\n      tag_130\n      jumpi\n        /* \"@openzeppelin/contracts/utils/math/Math.sol\":20761:20762  a */\n      dup2\n        /* \"@openzeppelin/contracts/utils/math/Math.sol\":20754:20762  return a */\n      swap1\n      pop\n      jump(tag_129)\n        /* \"@openzeppelin/contracts/utils/math/Math.sol\":20724:20777  if (a <= 1) {... */\n    tag_130:\n        /* \"@openzeppelin/contracts/utils/math/Math.sol\":21704:21714  uint256 aa */\n      0x00\n        /* \"@openzeppelin/contracts/utils/math/Math.sol\":21717:21718  a */\n      dup3\n        /* \"@openzeppelin/contracts/utils/math/Math.sol\":21704:21718  uint256 aa = a */\n      swap1\n      pop\n        /* \"@openzeppelin/contracts/utils/math/Math.sol\":21732:21742  uint256 xn */\n      0x00\n        /* \"@openzeppelin/contracts/utils/math/Math.sol\":21745:21746  1 */\n      0x01\n        /* \"@openzeppelin/contracts/utils/math/Math.sol\":21732:21746  uint256 xn = 1 */\n      swap1\n      pop\n        /* \"@openzeppelin/contracts/utils/math/Math.sol\":21772:21780  1 << 128 */\n      0x0100000000000000000000000000000000\n        /* \"@openzeppelin/contracts/utils/math/Math.sol\":21765:21767  aa */\n      dup3\n        /* \"@openzeppelin/contracts/utils/math/Math.sol\":21765:21781  aa >= (1 << 128) */\n      lt\n        /* \"@openzeppelin/contracts/utils/math/Math.sol\":21761:21853  if (aa >= (1 << 128)) {... */\n      tag_131\n      jumpi\n        /* \"@openzeppelin/contracts/utils/math/Math.sol\":21808:21811  128 */\n      0x80\n        /* \"@openzeppelin/contracts/utils/math/Math.sol\":21801:21811  aa >>= 128 */\n      dup3\n      swap1\n      shr\n      swap2\n      pop\n        /* \"@openzeppelin/contracts/utils/math/Math.sol\":21836:21838  64 */\n      0x40\n        /* \"@openzeppelin/contracts/utils/math/Math.sol\":21829:21838  xn <<= 64 */\n      dup2\n      swap1\n      shl\n      swap1\n      pop\n        /* \"@openzeppelin/contracts/utils/math/Math.sol\":21761:21853  if (aa >= (1 << 128)) {... */\n    tag_131:\n        /* \"@openzeppelin/contracts/utils/math/Math.sol\":21877:21884  1 << 64 */\n      0x010000000000000000\n        /* \"@openzeppelin/contracts/utils/math/Math.sol\":21870:21872  aa */\n      dup3\n        /* \"@openzeppelin/contracts/utils/math/Math.sol\":21870:21885  aa >= (1 << 64) */\n      lt\n        /* \"@openzeppelin/contracts/utils/math/Math.sol\":21866:21956  if (aa >= (1 << 64)) {... */\n      tag_132\n      jumpi\n        /* \"@openzeppelin/contracts/utils/math/Math.sol\":21912:21914  64 */\n      0x40\n        /* \"@openzeppelin/contracts/utils/math/Math.sol\":21905:21914  aa >>= 64 */\n      dup3\n      swap1\n      shr\n      swap2\n      pop\n        /* \"@openzeppelin/contracts/utils/math/Math.sol\":21939:21941  32 */\n      0x20\n        /* \"@openzeppelin/contracts/utils/math/Math.sol\":21932:21941  xn <<= 32 */\n      dup2\n      swap1\n      shl\n      swap1\n      pop\n        /* \"@openzeppelin/contracts/utils/math/Math.sol\":21866:21956  if (aa >= (1 << 64)) {... */\n    tag_132:\n        /* \"@openzeppelin/contracts/utils/math/Math.sol\":21980:21987  1 << 32 */\n      0x0100000000\n        /* \"@openzeppelin/contracts/utils/math/Math.sol\":21973:21975  aa */\n      dup3\n        /* \"@openzeppelin/contracts/utils/math/Math.sol\":21973:21988  aa >= (1 << 32) */\n      lt\n        /* \"@openzeppelin/contracts/utils/math/Math.sol\":21969:22059  if (aa >= (1 << 32)) {... */\n      tag_133\n      jumpi\n        /* \"@openzeppelin/contracts/utils/math/Math.sol\":22015:22017  32 */\n      0x20\n        /* \"@openzeppelin/contracts/utils/math/Math.sol\":22008:22017  aa >>= 32 */\n      dup3\n      swap1\n      shr\n      swap2\n      pop\n        /* \"@openzeppelin/contracts/utils/math/Math.sol\":22042:22044  16 */\n      0x10\n        /* \"@openzeppelin/contracts/utils/math/Math.sol\":22035:22044  xn <<= 16 */\n      dup2\n      swap1\n      shl\n      swap1\n      pop\n        /* \"@openzeppelin/contracts/utils/math/Math.sol\":21969:22059  if (aa >= (1 << 32)) {... */\n    tag_133:\n        /* \"@openzeppelin/contracts/utils/math/Math.sol\":22083:22090  1 << 16 */\n      0x010000\n        /* \"@openzeppelin/contracts/utils/math/Math.sol\":22076:22078  aa */\n      dup3\n        /* \"@openzeppelin/contracts/utils/math/Math.sol\":22076:22091  aa >= (1 << 16) */\n      lt\n        /* \"@openzeppelin/contracts/utils/math/Math.sol\":22072:22161  if (aa >= (1 << 16)) {... */\n      tag_134\n      jumpi\n        /* \"@openzeppelin/contracts/utils/math/Math.sol\":22118:22120  16 */\n      0x10\n        /* \"@openzeppelin/contracts/utils/math/Math.sol\":22111:22120  aa >>= 16 */\n      dup3\n      swap1\n      shr\n      swap2\n      pop\n        /* \"@openzeppelin/contracts/utils/math/Math.sol\":22145:22146  8 */\n      0x08\n        /* \"@openzeppelin/contracts/utils/math/Math.sol\":22138:22146  xn <<= 8 */\n      dup2\n      swap1\n      shl\n      swap1\n      pop\n        /* \"@openzeppelin/contracts/utils/math/Math.sol\":22072:22161  if (aa >= (1 << 16)) {... */\n    tag_134:\n        /* \"@openzeppelin/contracts/utils/math/Math.sol\":22185:22191  1 << 8 */\n      0x0100\n        /* \"@openzeppelin/contracts/utils/math/Math.sol\":22178:22180  aa */\n      dup3\n        /* \"@openzeppelin/contracts/utils/math/Math.sol\":22178:22192  aa >= (1 << 8) */\n      lt\n        /* \"@openzeppelin/contracts/utils/math/Math.sol\":22174:22261  if (aa >= (1 << 8)) {... */\n      tag_135\n      jumpi\n        /* \"@openzeppelin/contracts/utils/math/Math.sol\":22219:22220  8 */\n      0x08\n        /* \"@openzeppelin/contracts/utils/math/Math.sol\":22212:22220  aa >>= 8 */\n      dup3\n      swap1\n      shr\n      swap2\n      pop\n        /* \"@openzeppelin/contracts/utils/math/Math.sol\":22245:22246  4 */\n      0x04\n        /* \"@openzeppelin/contracts/utils/math/Math.sol\":22238:22246  xn <<= 4 */\n      dup2\n      swap1\n      shl\n      swap1\n      pop\n        /* \"@openzeppelin/contracts/utils/math/Math.sol\":22174:22261  if (aa >= (1 << 8)) {... */\n    tag_135:\n        /* \"@openzeppelin/contracts/utils/math/Math.sol\":22285:22291  1 << 4 */\n      0x10\n        /* \"@openzeppelin/contracts/utils/math/Math.sol\":22278:22280  aa */\n      dup3\n        /* \"@openzeppelin/contracts/utils/math/Math.sol\":22278:22292  aa >= (1 << 4) */\n      lt\n        /* \"@openzeppelin/contracts/utils/math/Math.sol\":22274:22361  if (aa >= (1 << 4)) {... */\n      tag_136\n      jumpi\n        /* \"@openzeppelin/contracts/utils/math/Math.sol\":22319:22320  4 */\n      0x04\n        /* \"@openzeppelin/contracts/utils/math/Math.sol\":22312:22320  aa >>= 4 */\n      dup3\n      swap1\n      shr\n      swap2\n      pop\n        /* \"@openzeppelin/contracts/utils/math/Math.sol\":22345:22346  2 */\n      0x02\n        /* \"@openzeppelin/contracts/utils/math/Math.sol\":22338:22346  xn <<= 2 */\n      dup2\n      swap1\n      shl\n      swap1\n      pop\n        /* \"@openzeppelin/contracts/utils/math/Math.sol\":22274:22361  if (aa >= (1 << 4)) {... */\n    tag_136:\n        /* \"@openzeppelin/contracts/utils/math/Math.sol\":22385:22391  1 << 2 */\n      0x04\n        /* \"@openzeppelin/contracts/utils/math/Math.sol\":22378:22380  aa */\n      dup3\n        /* \"@openzeppelin/contracts/utils/math/Math.sol\":22378:22392  aa >= (1 << 2) */\n      lt\n        /* \"@openzeppelin/contracts/utils/math/Math.sol\":22374:22435  if (aa >= (1 << 2)) {... */\n      tag_137\n      jumpi\n        /* \"@openzeppelin/contracts/utils/math/Math.sol\":22419:22420  1 */\n      0x01\n        /* \"@openzeppelin/contracts/utils/math/Math.sol\":22412:22420  xn <<= 1 */\n      dup2\n      swap1\n      shl\n      swap1\n      pop\n        /* \"@openzeppelin/contracts/utils/math/Math.sol\":22374:22435  if (aa >= (1 << 2)) {... */\n    tag_137:\n        /* \"@openzeppelin/contracts/utils/math/Math.sol\":22872:22873  1 */\n      0x01\n        /* \"@openzeppelin/contracts/utils/math/Math.sol\":22865:22867  xn */\n      dup2\n        /* \"@openzeppelin/contracts/utils/math/Math.sol\":22861:22862  3 */\n      0x03\n        /* \"@openzeppelin/contracts/utils/math/Math.sol\":22861:22867  3 * xn */\n      mul\n        /* \"@openzeppelin/contracts/utils/math/Math.sol\":22860:22873  (3 * xn) >> 1 */\n      swap1\n      shr\n        /* \"@openzeppelin/contracts/utils/math/Math.sol\":22855:22873  xn = (3 * xn) >> 1 */\n      swap1\n      pop\n        /* \"@openzeppelin/contracts/utils/math/Math.sol\":24782:24783  1 */\n      0x01\n        /* \"@openzeppelin/contracts/utils/math/Math.sol\":24775:24777  xn */\n      dup2\n        /* \"@openzeppelin/contracts/utils/math/Math.sol\":24771:24772  a */\n      dup6\n        /* \"@openzeppelin/contracts/utils/math/Math.sol\":24771:24777  a / xn */\n      dup2\n      tag_138\n      jumpi\n      tag_139\n      tag_140\n      jump\t// in\n    tag_139:\n    tag_138:\n      div\n        /* \"@openzeppelin/contracts/utils/math/Math.sol\":24766:24768  xn */\n      dup3\n        /* \"@openzeppelin/contracts/utils/math/Math.sol\":24766:24777  xn + a / xn */\n      add\n        /* \"@openzeppelin/contracts/utils/math/Math.sol\":24765:24783  (xn + a / xn) >> 1 */\n      swap1\n      shr\n        /* \"@openzeppelin/contracts/utils/math/Math.sol\":24760:24783  xn = (xn + a / xn) >> 1 */\n      swap1\n      pop\n        /* \"@openzeppelin/contracts/utils/math/Math.sol\":24891:24892  1 */\n      0x01\n        /* \"@openzeppelin/contracts/utils/math/Math.sol\":24884:24886  xn */\n      dup2\n        /* \"@openzeppelin/contracts/utils/math/Math.sol\":24880:24881  a */\n      dup6\n        /* \"@openzeppelin/contracts/utils/math/Math.sol\":24880:24886  a / xn */\n      dup2\n      tag_141\n      jumpi\n      tag_142\n      tag_140\n      jump\t// in\n    tag_142:\n    tag_141:\n      div\n        /* \"@openzeppelin/contracts/utils/math/Math.sol\":24875:24877  xn */\n      dup3\n        /* \"@openzeppelin/contracts/utils/math/Math.sol\":24875:24886  xn + a / xn */\n      add\n        /* \"@openzeppelin/contracts/utils/math/Math.sol\":24874:24892  (xn + a / xn) >> 1 */\n      swap1\n      shr\n        /* \"@openzeppelin/contracts/utils/math/Math.sol\":24869:24892  xn = (xn + a / xn) >> 1 */\n      swap1\n      pop\n        /* \"@openzeppelin/contracts/utils/math/Math.sol\":25002:25003  1 */\n      0x01\n        /* \"@openzeppelin/contracts/utils/math/Math.sol\":24995:24997  xn */\n      dup2\n        /* \"@openzeppelin/contracts/utils/math/Math.sol\":24991:24992  a */\n      dup6\n        /* \"@openzeppelin/contracts/utils/math/Math.sol\":24991:24997  a / xn */\n      dup2\n      tag_143\n      jumpi\n      tag_144\n      tag_140\n      jump\t// in\n    tag_144:\n    tag_143:\n      div\n        /* \"@openzeppelin/contracts/utils/math/Math.sol\":24986:24988  xn */\n      dup3\n        /* \"@openzeppelin/contracts/utils/math/Math.sol\":24986:24997  xn + a / xn */\n      add\n        /* \"@openzeppelin/contracts/utils/math/Math.sol\":24985:25003  (xn + a / xn) >> 1 */\n      swap1\n      shr\n        /* \"@openzeppelin/contracts/utils/math/Math.sol\":24980:25003  xn = (xn + a / xn) >> 1 */\n      swap1\n      pop\n        /* \"@openzeppelin/contracts/utils/math/Math.sol\":25111:25112  1 */\n      0x01\n        /* \"@openzeppelin/contracts/utils/math/Math.sol\":25104:25106  xn */\n      dup2\n        /* \"@openzeppelin/contracts/utils/math/Math.sol\":25100:25101  a */\n      dup6\n        /* \"@openzeppelin/contracts/utils/math/Math.sol\":25100:25106  a / xn */\n      dup2\n      tag_145\n      jumpi\n      tag_146\n      tag_140\n      jump\t// in\n    tag_146:\n    tag_145:\n      div\n        /* \"@openzeppelin/contracts/utils/math/Math.sol\":25095:25097  xn */\n      dup3\n        /* \"@openzeppelin/contracts/utils/math/Math.sol\":25095:25106  xn + a / xn */\n      add\n        /* \"@openzeppelin/contracts/utils/math/Math.sol\":25094:25112  (xn + a / xn) >> 1 */\n      swap1\n      shr\n        /* \"@openzeppelin/contracts/utils/math/Math.sol\":25089:25112  xn = (xn + a / xn) >> 1 */\n      swap1\n      pop\n        /* \"@openzeppelin/contracts/utils/math/Math.sol\":25221:25222  1 */\n      0x01\n        /* \"@openzeppelin/contracts/utils/math/Math.sol\":25214:25216  xn */\n      dup2\n        /* \"@openzeppelin/contracts/utils/math/Math.sol\":25210:25211  a */\n      dup6\n        /* \"@openzeppelin/contracts/utils/math/Math.sol\":25210:25216  a / xn */\n      dup2\n      tag_147\n      jumpi\n      tag_148\n      tag_140\n      jump\t// in\n    tag_148:\n    tag_147:\n      div\n        /* \"@openzeppelin/contracts/utils/math/Math.sol\":25205:25207  xn */\n      dup3\n        /* \"@openzeppelin/contracts/utils/math/Math.sol\":25205:25216  xn + a / xn */\n      add\n        /* \"@openzeppelin/contracts/utils/math/Math.sol\":25204:25222  (xn + a / xn) >> 1 */\n      swap1\n      shr\n        /* \"@openzeppelin/contracts/utils/math/Math.sol\":25199:25222  xn = (xn + a / xn) >> 1 */\n      swap1\n      pop\n        /* \"@openzeppelin/contracts/utils/math/Math.sol\":25331:25332  1 */\n      0x01\n        /* \"@openzeppelin/contracts/utils/math/Math.sol\":25324:25326  xn */\n      dup2\n        /* \"@openzeppelin/contracts/utils/math/Math.sol\":25320:25321  a */\n      dup6\n        /* \"@openzeppelin/contracts/utils/math/Math.sol\":25320:25326  a / xn */\n      dup2\n      tag_149\n      jumpi\n      tag_150\n      tag_140\n      jump\t// in\n    tag_150:\n    tag_149:\n      div\n        /* \"@openzeppelin/contracts/utils/math/Math.sol\":25315:25317  xn */\n      dup3\n        /* \"@openzeppelin/contracts/utils/math/Math.sol\":25315:25326  xn + a / xn */\n      add\n        /* \"@openzeppelin/contracts/utils/math/Math.sol\":25314:25332  (xn + a / xn) >> 1 */\n      swap1\n      shr\n        /* \"@openzeppelin/contracts/utils/math/Math.sol\":25309:25332  xn = (xn + a / xn) >> 1 */\n      swap1\n      pop\n        /* \"@openzeppelin/contracts/utils/math/Math.sol\":25703:25731  SafeCast.toUint(xn > a / xn) */\n      tag_151\n        /* \"@openzeppelin/contracts/utils/math/Math.sol\":25728:25730  xn */\n      dup2\n        /* \"@openzeppelin/contracts/utils/math/Math.sol\":25724:25725  a */\n      dup6\n        /* \"@openzeppelin/contracts/utils/math/Math.sol\":25724:25730  a / xn */\n      dup2\n      tag_152\n      jumpi\n      tag_153\n      tag_140\n      jump\t// in\n    tag_153:\n    tag_152:\n      div\n        /* \"@openzeppelin/contracts/utils/math/Math.sol\":25719:25721  xn */\n      dup3\n        /* \"@openzeppelin/contracts/utils/math/Math.sol\":25719:25730  xn > a / xn */\n      gt\n        /* \"@openzeppelin/contracts/utils/math/Math.sol\":25703:25718  SafeCast.toUint */\n      tag_154\n        /* \"@openzeppelin/contracts/utils/math/Math.sol\":25703:25731  SafeCast.toUint(xn > a / xn) */\n      jump\t// in\n    tag_151:\n        /* \"@openzeppelin/contracts/utils/math/Math.sol\":25698:25700  xn */\n      dup2\n        /* \"@openzeppelin/contracts/utils/math/Math.sol\":25698:25731  xn - SafeCast.toUint(xn > a / xn) */\n      sub\n        /* \"@openzeppelin/contracts/utils/math/Math.sol\":25691:25731  return xn - SafeCast.toUint(xn > a / xn) */\n      swap3\n      pop\n      pop\n      pop\n        /* \"@openzeppelin/contracts/utils/math/Math.sol\":20567:25748  function sqrt(uint256 a) internal pure returns (uint256) {... */\n    tag_129:\n      swap2\n      swap1\n      pop\n      jump\t// out\n        /* \"@openzeppelin/contracts/utils/math/Math.sol\":5617:5728  function min(uint256 a, uint256 b) internal pure returns (uint256) {... */\n    tag_107:\n        /* \"@openzeppelin/contracts/utils/math/Math.sol\":5675:5682  uint256 */\n      0x00\n        /* \"@openzeppelin/contracts/utils/math/Math.sol\":5701:5721  ternary(a < b, a, b) */\n      tag_156\n        /* \"@openzeppelin/contracts/utils/math/Math.sol\":5713:5714  b */\n      dup3\n        /* \"@openzeppelin/contracts/utils/math/Math.sol\":5709:5710  a */\n      dup5\n        /* \"@openzeppelin/contracts/utils/math/Math.sol\":5709:5714  a < b */\n      lt\n        /* \"@openzeppelin/contracts/utils/math/Math.sol\":5716:5717  a */\n      dup5\n        /* \"@openzeppelin/contracts/utils/math/Math.sol\":5719:5720  b */\n      dup5\n        /* \"@openzeppelin/contracts/utils/math/Math.sol\":5701:5708  ternary */\n      tag_157\n        /* \"@openzeppelin/contracts/utils/math/Math.sol\":5701:5721  ternary(a < b, a, b) */\n      jump\t// in\n    tag_156:\n        /* \"@openzeppelin/contracts/utils/math/Math.sol\":5694:5721  return ternary(a < b, a, b) */\n      swap1\n      pop\n        /* \"@openzeppelin/contracts/utils/math/Math.sol\":5617:5728  function min(uint256 a, uint256 b) internal pure returns (uint256) {... */\n      swap3\n      swap2\n      pop\n      pop\n      jump\t// out\n        /* \"@openzeppelin/contracts/utils/math/SafeCast.sol\":34795:34940  function toUint(bool b) internal pure returns (uint256 u) {... */\n    tag_154:\n        /* \"@openzeppelin/contracts/utils/math/SafeCast.sol\":34842:34851  uint256 u */\n      0x00\n        /* \"@openzeppelin/contracts/utils/math/SafeCast.sol\":34921:34922  b */\n      dup2\n        /* \"@openzeppelin/contracts/utils/math/SafeCast.sol\":34914:34923  iszero(b) */\n      iszero\n        /* \"@openzeppelin/contracts/utils/math/SafeCast.sol\":34907:34924  iszero(iszero(b)) */\n      iszero\n        /* \"@openzeppelin/contracts/utils/math/SafeCast.sol\":34902:34924  u := iszero(iszero(b)) */\n      swap1\n      pop\n        /* \"@openzeppelin/contracts/utils/math/SafeCast.sol\":34795:34940  function toUint(bool b) internal pure returns (uint256 u) {... */\n      swap2\n      swap1\n      pop\n      jump\t// out\n        /* \"@openzeppelin/contracts/utils/math/Math.sol\":5071:5365  function ternary(bool condition, uint256 a, uint256 b) internal pure returns (uint256) {... */\n    tag_157:\n        /* \"@openzeppelin/contracts/utils/math/Math.sol\":5149:5156  uint256 */\n      0x00\n        /* \"@openzeppelin/contracts/utils/math/Math.sol\":5321:5347  SafeCast.toUint(condition) */\n      tag_160\n        /* \"@openzeppelin/contracts/utils/math/Math.sol\":5337:5346  condition */\n      dup5\n        /* \"@openzeppelin/contracts/utils/math/Math.sol\":5321:5336  SafeCast.toUint */\n      tag_154\n        /* \"@openzeppelin/contracts/utils/math/Math.sol\":5321:5347  SafeCast.toUint(condition) */\n      jump\t// in\n    tag_160:\n        /* \"@openzeppelin/contracts/utils/math/Math.sol\":5316:5317  b */\n      dup3\n        /* \"@openzeppelin/contracts/utils/math/Math.sol\":5312:5313  a */\n      dup5\n        /* \"@openzeppelin/contracts/utils/math/Math.sol\":5312:5317  a ^ b */\n      xor\n        /* \"@openzeppelin/contracts/utils/math/Math.sol\":5311:5347  (a ^ b) * SafeCast.toUint(condition) */\n      mul\n        /* \"@openzeppelin/contracts/utils/math/Math.sol\":5306:5307  b */\n      dup3\n        /* \"@openzeppelin/contracts/utils/math/Math.sol\":5306:5348  b ^ ((a ^ b) * SafeCast.toUint(condition)) */\n      xor\n        /* \"@openzeppelin/contracts/utils/math/Math.sol\":5299:5348  return b ^ ((a ^ b) * SafeCast.toUint(condition)) */\n      swap1\n      pop\n        /* \"@openzeppelin/contracts/utils/math/Math.sol\":5071:5365  function ternary(bool condition, uint256 a, uint256 b) internal pure returns (uint256) {... */\n      swap4\n      swap3\n      pop\n      pop\n      pop\n      jump\t// out\n        /* \"#utility.yul\":88:205   */\n    tag_162:\n        /* \"#utility.yul\":197:198   */\n      0x00\n        /* \"#utility.yul\":194:195   */\n      0x00\n        /* \"#utility.yul\":187:199   */\n      revert\n        /* \"#utility.yul\":334:460   */\n    tag_164:\n        /* \"#utility.yul\":371:378   */\n      0x00\n        /* \"#utility.yul\":411:453   */\n      0xffffffffffffffffffffffffffffffffffffffff\n        /* \"#utility.yul\":404:409   */\n      dup3\n        /* \"#utility.yul\":400:454   */\n      and\n        /* \"#utility.yul\":389:454   */\n      swap1\n      pop\n        /* \"#utility.yul\":334:460   */\n      swap2\n      swap1\n      pop\n      jump\t// out\n        /* \"#utility.yul\":466:562   */\n    tag_165:\n        /* \"#utility.yul\":503:510   */\n      0x00\n        /* \"#utility.yul\":532:556   */\n      tag_201\n        /* \"#utility.yul\":550:555   */\n      dup3\n        /* \"#utility.yul\":532:556   */\n      tag_164\n      jump\t// in\n    tag_201:\n        /* \"#utility.yul\":521:556   */\n      swap1\n      pop\n        /* \"#utility.yul\":466:562   */\n      swap2\n      swap1\n      pop\n      jump\t// out\n        /* \"#utility.yul\":568:690   */\n    tag_166:\n        /* \"#utility.yul\":641:665   */\n      tag_203\n        /* \"#utility.yul\":659:664   */\n      dup2\n        /* \"#utility.yul\":641:665   */\n      tag_165\n      jump\t// in\n    tag_203:\n        /* \"#utility.yul\":634:639   */\n      dup2\n        /* \"#utility.yul\":631:666   */\n      eq\n        /* \"#utility.yul\":621:684   */\n      tag_204\n      jumpi\n        /* \"#utility.yul\":680:681   */\n      0x00\n        /* \"#utility.yul\":677:678   */\n      0x00\n        /* \"#utility.yul\":670:682   */\n      revert\n        /* \"#utility.yul\":621:684   */\n    tag_204:\n        /* \"#utility.yul\":568:690   */\n      pop\n      jump\t// out\n        /* \"#utility.yul\":696:835   */\n    tag_167:\n        /* \"#utility.yul\":742:747   */\n      0x00\n        /* \"#utility.yul\":780:786   */\n      dup2\n        /* \"#utility.yul\":767:787   */\n      calldataload\n        /* \"#utility.yul\":758:787   */\n      swap1\n      pop\n        /* \"#utility.yul\":796:829   */\n      tag_206\n        /* \"#utility.yul\":823:828   */\n      dup2\n        /* \"#utility.yul\":796:829   */\n      tag_166\n      jump\t// in\n    tag_206:\n        /* \"#utility.yul\":696:835   */\n      swap3\n      swap2\n      pop\n      pop\n      jump\t// out\n        /* \"#utility.yul\":841:918   */\n    tag_168:\n        /* \"#utility.yul\":878:885   */\n      0x00\n        /* \"#utility.yul\":907:912   */\n      dup2\n        /* \"#utility.yul\":896:912   */\n      swap1\n      pop\n        /* \"#utility.yul\":841:918   */\n      swap2\n      swap1\n      pop\n      jump\t// out\n        /* \"#utility.yul\":924:1046   */\n    tag_169:\n        /* \"#utility.yul\":997:1021   */\n      tag_209\n        /* \"#utility.yul\":1015:1020   */\n      dup2\n        /* \"#utility.yul\":997:1021   */\n      tag_168\n      jump\t// in\n    tag_209:\n        /* \"#utility.yul\":990:995   */\n      dup2\n        /* \"#utility.yul\":987:1022   */\n      eq\n        /* \"#utility.yul\":977:1040   */\n      tag_210\n      jumpi\n        /* \"#utility.yul\":1036:1037   */\n      0x00\n        /* \"#utility.yul\":1033:1034   */\n      0x00\n        /* \"#utility.yul\":1026:1038   */\n      revert\n        /* \"#utility.yul\":977:1040   */\n    tag_210:\n        /* \"#utility.yul\":924:1046   */\n      pop\n      jump\t// out\n        /* \"#utility.yul\":1052:1191   */\n    tag_170:\n        /* \"#utility.yul\":1098:1103   */\n      0x00\n        /* \"#utility.yul\":1136:1142   */\n      dup2\n        /* \"#utility.yul\":1123:1143   */\n      calldataload\n        /* \"#utility.yul\":1114:1143   */\n      swap1\n      pop\n        /* \"#utility.yul\":1152:1185   */\n      tag_212\n        /* \"#utility.yul\":1179:1184   */\n      dup2\n        /* \"#utility.yul\":1152:1185   */\n      tag_169\n      jump\t// in\n    tag_212:\n        /* \"#utility.yul\":1052:1191   */\n      swap3\n      swap2\n      pop\n      pop\n      jump\t// out\n        /* \"#utility.yul\":1197:2400   */\n    tag_11:\n        /* \"#utility.yul\":1310:1316   */\n      0x00\n        /* \"#utility.yul\":1318:1324   */\n      0x00\n        /* \"#utility.yul\":1326:1332   */\n      0x00\n        /* \"#utility.yul\":1334:1340   */\n      0x00\n        /* \"#utility.yul\":1342:1348   */\n      0x00\n        /* \"#utility.yul\":1350:1356   */\n      0x00\n        /* \"#utility.yul\":1358:1364   */\n      0x00\n        /* \"#utility.yul\":1407:1410   */\n      0xe0\n        /* \"#utility.yul\":1395:1404   */\n      dup9\n        /* \"#utility.yul\":1386:1393   */\n      dup11\n        /* \"#utility.yul\":1382:1405   */\n      sub\n        /* \"#utility.yul\":1378:1411   */\n      slt\n        /* \"#utility.yul\":1375:1495   */\n      iszero\n      tag_214\n      jumpi\n        /* \"#utility.yul\":1414:1493   */\n      tag_215\n      tag_162\n      jump\t// in\n    tag_215:\n        /* \"#utility.yul\":1375:1495   */\n    tag_214:\n        /* \"#utility.yul\":1534:1535   */\n      0x00\n        /* \"#utility.yul\":1559:1612   */\n      tag_216\n        /* \"#utility.yul\":1604:1611   */\n      dup11\n        /* \"#utility.yul\":1595:1601   */\n      dup3\n        /* \"#utility.yul\":1584:1593   */\n      dup12\n        /* \"#utility.yul\":1580:1602   */\n      add\n        /* \"#utility.yul\":1559:1612   */\n      tag_167\n      jump\t// in\n    tag_216:\n        /* \"#utility.yul\":1549:1612   */\n      swap8\n      pop\n        /* \"#utility.yul\":1505:1622   */\n      pop\n        /* \"#utility.yul\":1661:1663   */\n      0x20\n        /* \"#utility.yul\":1687:1740   */\n      tag_217\n        /* \"#utility.yul\":1732:1739   */\n      dup11\n        /* \"#utility.yul\":1723:1729   */\n      dup3\n        /* \"#utility.yul\":1712:1721   */\n      dup12\n        /* \"#utility.yul\":1708:1730   */\n      add\n        /* \"#utility.yul\":1687:1740   */\n      tag_167\n      jump\t// in\n    tag_217:\n        /* \"#utility.yul\":1677:1740   */\n      swap7\n      pop\n        /* \"#utility.yul\":1632:1750   */\n      pop\n        /* \"#utility.yul\":1789:1791   */\n      0x40\n        /* \"#utility.yul\":1815:1868   */\n      tag_218\n        /* \"#utility.yul\":1860:1867   */\n      dup11\n        /* \"#utility.yul\":1851:1857   */\n      dup3\n        /* \"#utility.yul\":1840:1849   */\n      dup12\n        /* \"#utility.yul\":1836:1858   */\n      add\n        /* \"#utility.yul\":1815:1868   */\n      tag_170\n      jump\t// in\n    tag_218:\n        /* \"#utility.yul\":1805:1868   */\n      swap6\n      pop\n        /* \"#utility.yul\":1760:1878   */\n      pop\n        /* \"#utility.yul\":1917:1919   */\n      0x60\n        /* \"#utility.yul\":1943:1996   */\n      tag_219\n        /* \"#utility.yul\":1988:1995   */\n      dup11\n        /* \"#utility.yul\":1979:1985   */\n      dup3\n        /* \"#utility.yul\":1968:1977   */\n      dup12\n        /* \"#utility.yul\":1964:1986   */\n      add\n        /* \"#utility.yul\":1943:1996   */\n      tag_170\n      jump\t// in\n    tag_219:\n        /* \"#utility.yul\":1933:1996   */\n      swap5\n      pop\n        /* \"#utility.yul\":1888:2006   */\n      pop\n        /* \"#utility.yul\":2045:2048   */\n      0x80\n        /* \"#utility.yul\":2072:2125   */\n      tag_220\n        /* \"#utility.yul\":2117:2124   */\n      dup11\n        /* \"#utility.yul\":2108:2114   */\n      dup3\n        /* \"#utility.yul\":2097:2106   */\n      dup12\n        /* \"#utility.yul\":2093:2115   */\n      add\n        /* \"#utility.yul\":2072:2125   */\n      tag_170\n      jump\t// in\n    tag_220:\n        /* \"#utility.yul\":2062:2125   */\n      swap4\n      pop\n        /* \"#utility.yul\":2016:2135   */\n      pop\n        /* \"#utility.yul\":2174:2177   */\n      0xa0\n        /* \"#utility.yul\":2201:2254   */\n      tag_221\n        /* \"#utility.yul\":2246:2253   */\n      dup11\n        /* \"#utility.yul\":2237:2243   */\n      dup3\n        /* \"#utility.yul\":2226:2235   */\n      dup12\n        /* \"#utility.yul\":2222:2244   */\n      add\n        /* \"#utility.yul\":2201:2254   */\n      tag_167\n      jump\t// in\n    tag_221:\n        /* \"#utility.yul\":2191:2254   */\n      swap3\n      pop\n        /* \"#utility.yul\":2145:2264   */\n      pop\n        /* \"#utility.yul\":2303:2306   */\n      0xc0\n        /* \"#utility.yul\":2330:2383   */\n      tag_222\n        /* \"#utility.yul\":2375:2382   */\n      dup11\n        /* \"#utility.yul\":2366:2372   */\n      dup3\n        /* \"#utility.yul\":2355:2364   */\n      dup12\n        /* \"#utility.yul\":2351:2373   */\n      add\n        /* \"#utility.yul\":2330:2383   */\n      tag_170\n      jump\t// in\n    tag_222:\n        /* \"#utility.yul\":2320:2383   */\n      swap2\n      pop\n        /* \"#utility.yul\":2274:2393   */\n      pop\n        /* \"#utility.yul\":1197:2400   */\n      swap3\n      swap6\n      swap9\n      swap2\n      swap5\n      swap8\n      pop\n      swap3\n      swap6\n      pop\n      jump\t// out\n        /* \"#utility.yul\":2406:2524   */\n    tag_171:\n        /* \"#utility.yul\":2493:2517   */\n      tag_224\n        /* \"#utility.yul\":2511:2516   */\n      dup2\n        /* \"#utility.yul\":2493:2517   */\n      tag_168\n      jump\t// in\n    tag_224:\n        /* \"#utility.yul\":2488:2491   */\n      dup3\n        /* \"#utility.yul\":2481:2518   */\n      mstore\n        /* \"#utility.yul\":2406:2524   */\n      pop\n      pop\n      jump\t// out\n        /* \"#utility.yul\":2530:2862   */\n    tag_14:\n        /* \"#utility.yul\":2651:2655   */\n      0x00\n        /* \"#utility.yul\":2689:2691   */\n      0x40\n        /* \"#utility.yul\":2678:2687   */\n      dup3\n        /* \"#utility.yul\":2674:2692   */\n      add\n        /* \"#utility.yul\":2666:2692   */\n      swap1\n      pop\n        /* \"#utility.yul\":2702:2773   */\n      tag_226\n        /* \"#utility.yul\":2770:2771   */\n      0x00\n        /* \"#utility.yul\":2759:2768   */\n      dup4\n        /* \"#utility.yul\":2755:2772   */\n      add\n        /* \"#utility.yul\":2746:2752   */\n      dup6\n        /* \"#utility.yul\":2702:2773   */\n      tag_171\n      jump\t// in\n    tag_226:\n        /* \"#utility.yul\":2783:2855   */\n      tag_227\n        /* \"#utility.yul\":2851:2853   */\n      0x20\n        /* \"#utility.yul\":2840:2849   */\n      dup4\n        /* \"#utility.yul\":2836:2854   */\n      add\n        /* \"#utility.yul\":2827:2833   */\n      dup5\n        /* \"#utility.yul\":2783:2855   */\n      tag_171\n      jump\t// in\n    tag_227:\n        /* \"#utility.yul\":2530:2862   */\n      swap4\n      swap3\n      pop\n      pop\n      pop\n      jump\t// out\n        /* \"#utility.yul\":2868:4217   */\n    tag_17:\n        /* \"#utility.yul\":2990:2996   */\n      0x00\n        /* \"#utility.yul\":2998:3004   */\n      0x00\n        /* \"#utility.yul\":3006:3012   */\n      0x00\n        /* \"#utility.yul\":3014:3020   */\n      0x00\n        /* \"#utility.yul\":3022:3028   */\n      0x00\n        /* \"#utility.yul\":3030:3036   */\n      0x00\n        /* \"#utility.yul\":3038:3044   */\n      0x00\n        /* \"#utility.yul\":3046:3052   */\n      0x00\n        /* \"#utility.yul\":3095:3098   */\n      0x0100\n        /* \"#utility.yul\":3083:3092   */\n      dup10\n        /* \"#utility.yul\":3074:3081   */\n      dup12\n        /* \"#utility.yul\":3070:3093   */\n      sub\n        /* \"#utility.yul\":3066:3099   */\n      slt\n        /* \"#utility.yul\":3063:3183   */\n      iszero\n      tag_229\n      jumpi\n        /* \"#utility.yul\":3102:3181   */\n      tag_230\n      tag_162\n      jump\t// in\n    tag_230:\n        /* \"#utility.yul\":3063:3183   */\n    tag_229:\n        /* \"#utility.yul\":3222:3223   */\n      0x00\n        /* \"#utility.yul\":3247:3300   */\n      tag_231\n        /* \"#utility.yul\":3292:3299   */\n      dup12\n        /* \"#utility.yul\":3283:3289   */\n      dup3\n        /* \"#utility.yul\":3272:3281   */\n      dup13\n        /* \"#utility.yul\":3268:3290   */\n      add\n        /* \"#utility.yul\":3247:3300   */\n      tag_167\n      jump\t// in\n    tag_231:\n        /* \"#utility.yul\":3237:3300   */\n      swap9\n      pop\n        /* \"#utility.yul\":3193:3310   */\n      pop\n        /* \"#utility.yul\":3349:3351   */\n      0x20\n        /* \"#utility.yul\":3375:3428   */\n      tag_232\n        /* \"#utility.yul\":3420:3427   */\n      dup12\n        /* \"#utility.yul\":3411:3417   */\n      dup3\n        /* \"#utility.yul\":3400:3409   */\n      dup13\n        /* \"#utility.yul\":3396:3418   */\n      add\n        /* \"#utility.yul\":3375:3428   */\n      tag_167\n      jump\t// in\n    tag_232:\n        /* \"#utility.yul\":3365:3428   */\n      swap8\n      pop\n        /* \"#utility.yul\":3320:3438   */\n      pop\n        /* \"#utility.yul\":3477:3479   */\n      0x40\n        /* \"#utility.yul\":3503:3556   */\n      tag_233\n        /* \"#utility.yul\":3548:3555   */\n      dup12\n        /* \"#utility.yul\":3539:3545   */\n      dup3\n        /* \"#utility.yul\":3528:3537   */\n      dup13\n        /* \"#utility.yul\":3524:3546   */\n      add\n        /* \"#utility.yul\":3503:3556   */\n      tag_170\n      jump\t// in\n    tag_233:\n        /* \"#utility.yul\":3493:3556   */\n      swap7\n      pop\n        /* \"#utility.yul\":3448:3566   */\n      pop\n        /* \"#utility.yul\":3605:3607   */\n      0x60\n        /* \"#utility.yul\":3631:3684   */\n      tag_234\n        /* \"#utility.yul\":3676:3683   */\n      dup12\n        /* \"#utility.yul\":3667:3673   */\n      dup3\n        /* \"#utility.yul\":3656:3665   */\n      dup13\n        /* \"#utility.yul\":3652:3674   */\n      add\n        /* \"#utility.yul\":3631:3684   */\n      tag_170\n      jump\t// in\n    tag_234:\n        /* \"#utility.yul\":3621:3684   */\n      swap6\n      pop\n        /* \"#utility.yul\":3576:3694   */\n      pop\n        /* \"#utility.yul\":3733:3736   */\n      0x80\n        /* \"#utility.yul\":3760:3813   */\n      tag_235\n        /* \"#utility.yul\":3805:3812   */\n      dup12\n        /* \"#utility.yul\":3796:3802   */\n      dup3\n        /* \"#utility.yul\":3785:3794   */\n      dup13\n        /* \"#utility.yul\":3781:3803   */\n      add\n        /* \"#utility.yul\":3760:3813   */\n      tag_170\n      jump\t// in\n    tag_235:\n        /* \"#utility.yul\":3750:3813   */\n      swap5\n      pop\n        /* \"#utility.yul\":3704:3823   */\n      pop\n        /* \"#utility.yul\":3862:3865   */\n      0xa0\n        /* \"#utility.yul\":3889:3942   */\n      tag_236\n        /* \"#utility.yul\":3934:3941   */\n      dup12\n        /* \"#utility.yul\":3925:3931   */\n      dup3\n        /* \"#utility.yul\":3914:3923   */\n      dup13\n        /* \"#utility.yul\":3910:3932   */\n      add\n        /* \"#utility.yul\":3889:3942   */\n      tag_170\n      jump\t// in\n    tag_236:\n        /* \"#utility.yul\":3879:3942   */\n      swap4\n      pop\n        /* \"#utility.yul\":3833:3952   */\n      pop\n        /* \"#utility.yul\":3991:3994   */\n      0xc0\n        /* \"#utility.yul\":4018:4071   */\n      tag_237\n        /* \"#utility.yul\":4063:4070   */\n      dup12\n        /* \"#utility.yul\":4054:4060   */\n      dup3\n        /* \"#utility.yul\":4043:4052   */\n      dup13\n        /* \"#utility.yul\":4039:4061   */\n      add\n        /* \"#utility.yul\":4018:4071   */\n      tag_167\n      jump\t// in\n    tag_237:\n        /* \"#utility.yul\":4008:4071   */\n      swap3\n      pop\n        /* \"#utility.yul\":3962:4081   */\n      pop\n        /* \"#utility.yul\":4120:4123   */\n      0xe0\n        /* \"#utility.yul\":4147:4200   */\n      tag_238\n        /* \"#utility.yul\":4192:4199   */\n      dup12\n        /* \"#utility.yul\":4183:4189   */\n      dup3\n        /* \"#utility.yul\":4172:4181   */\n      dup13\n        /* \"#utility.yul\":4168:4190   */\n      add\n        /* \"#utility.yul\":4147:4200   */\n      tag_170\n      jump\t// in\n    tag_238:\n        /* \"#utility.yul\":4137:4200   */\n      swap2\n      pop\n        /* \"#utility.yul\":4091:4210   */\n      pop\n        /* \"#utility.yul\":2868:4217   */\n      swap3\n      swap6\n      swap9\n      pop\n      swap3\n      swap6\n      swap9\n      swap1\n      swap4\n      swap7\n      pop\n      jump\t// out\n        /* \"#utility.yul\":4223:4665   */\n    tag_20:\n        /* \"#utility.yul\":4372:4376   */\n      0x00\n        /* \"#utility.yul\":4410:4412   */\n      0x60\n        /* \"#utility.yul\":4399:4408   */\n      dup3\n        /* \"#utility.yul\":4395:4413   */\n      add\n        /* \"#utility.yul\":4387:4413   */\n      swap1\n      pop\n        /* \"#utility.yul\":4423:4494   */\n      tag_240\n        /* \"#utility.yul\":4491:4492   */\n      0x00\n        /* \"#utility.yul\":4480:4489   */\n      dup4\n        /* \"#utility.yul\":4476:4493   */\n      add\n        /* \"#utility.yul\":4467:4473   */\n      dup7\n        /* \"#utility.yul\":4423:4494   */\n      tag_171\n      jump\t// in\n    tag_240:\n        /* \"#utility.yul\":4504:4576   */\n      tag_241\n        /* \"#utility.yul\":4572:4574   */\n      0x20\n        /* \"#utility.yul\":4561:4570   */\n      dup4\n        /* \"#utility.yul\":4557:4575   */\n      add\n        /* \"#utility.yul\":4548:4554   */\n      dup6\n        /* \"#utility.yul\":4504:4576   */\n      tag_171\n      jump\t// in\n    tag_241:\n        /* \"#utility.yul\":4586:4658   */\n      tag_242\n        /* \"#utility.yul\":4654:4656   */\n      0x40\n        /* \"#utility.yul\":4643:4652   */\n      dup4\n        /* \"#utility.yul\":4639:4657   */\n      add\n        /* \"#utility.yul\":4630:4636   */\n      dup5\n        /* \"#utility.yul\":4586:4658   */\n      tag_171\n      jump\t// in\n    tag_242:\n        /* \"#utility.yul\":4223:4665   */\n      swap5\n      swap4\n      pop\n      pop\n      pop\n      pop\n      jump\t// out\n        /* \"#utility.yul\":4671:4748   */\n    tag_172:\n        /* \"#utility.yul\":4708:4715   */\n      0x00\n        /* \"#utility.yul\":4737:4742   */\n      dup2\n        /* \"#utility.yul\":4726:4742   */\n      swap1\n      pop\n        /* \"#utility.yul\":4671:4748   */\n      swap2\n      swap1\n      pop\n      jump\t// out\n        /* \"#utility.yul\":4754:4876   */\n    tag_173:\n        /* \"#utility.yul\":4827:4851   */\n      tag_245\n        /* \"#utility.yul\":4845:4850   */\n      dup2\n        /* \"#utility.yul\":4827:4851   */\n      tag_172\n      jump\t// in\n    tag_245:\n        /* \"#utility.yul\":4820:4825   */\n      dup2\n        /* \"#utility.yul\":4817:4852   */\n      eq\n        /* \"#utility.yul\":4807:4870   */\n      tag_246\n      jumpi\n        /* \"#utility.yul\":4866:4867   */\n      0x00\n        /* \"#utility.yul\":4863:4864   */\n      0x00\n        /* \"#utility.yul\":4856:4868   */\n      revert\n        /* \"#utility.yul\":4807:4870   */\n    tag_246:\n        /* \"#utility.yul\":4754:4876   */\n      pop\n      jump\t// out\n        /* \"#utility.yul\":4882:5021   */\n    tag_174:\n        /* \"#utility.yul\":4928:4933   */\n      0x00\n        /* \"#utility.yul\":4966:4972   */\n      dup2\n        /* \"#utility.yul\":4953:4973   */\n      calldataload\n        /* \"#utility.yul\":4944:4973   */\n      swap1\n      pop\n        /* \"#utility.yul\":4982:5015   */\n      tag_248\n        /* \"#utility.yul\":5009:5014   */\n      dup2\n        /* \"#utility.yul\":4982:5015   */\n      tag_173\n      jump\t// in\n    tag_248:\n        /* \"#utility.yul\":4882:5021   */\n      swap3\n      swap2\n      pop\n      pop\n      jump\t// out\n        /* \"#utility.yul\":5027:5356   */\n    tag_23:\n        /* \"#utility.yul\":5086:5092   */\n      0x00\n        /* \"#utility.yul\":5135:5137   */\n      0x20\n        /* \"#utility.yul\":5123:5132   */\n      dup3\n        /* \"#utility.yul\":5114:5121   */\n      dup5\n        /* \"#utility.yul\":5110:5133   */\n      sub\n        /* \"#utility.yul\":5106:5138   */\n      slt\n        /* \"#utility.yul\":5103:5222   */\n      iszero\n      tag_250\n      jumpi\n        /* \"#utility.yul\":5141:5220   */\n      tag_251\n      tag_162\n      jump\t// in\n    tag_251:\n        /* \"#utility.yul\":5103:5222   */\n    tag_250:\n        /* \"#utility.yul\":5261:5262   */\n      0x00\n        /* \"#utility.yul\":5286:5339   */\n      tag_252\n        /* \"#utility.yul\":5331:5338   */\n      dup5\n        /* \"#utility.yul\":5322:5328   */\n      dup3\n        /* \"#utility.yul\":5311:5320   */\n      dup6\n        /* \"#utility.yul\":5307:5329   */\n      add\n        /* \"#utility.yul\":5286:5339   */\n      tag_174\n      jump\t// in\n    tag_252:\n        /* \"#utility.yul\":5276:5339   */\n      swap2\n      pop\n        /* \"#utility.yul\":5232:5349   */\n      pop\n        /* \"#utility.yul\":5027:5356   */\n      swap3\n      swap2\n      pop\n      pop\n      jump\t// out\n        /* \"#utility.yul\":5362:5836   */\n    tag_36:\n        /* \"#utility.yul\":5430:5436   */\n      0x00\n        /* \"#utility.yul\":5438:5444   */\n      0x00\n        /* \"#utility.yul\":5487:5489   */\n      0x40\n        /* \"#utility.yul\":5475:5484   */\n      dup4\n        /* \"#utility.yul\":5466:5473   */\n      dup6\n        /* \"#utility.yul\":5462:5485   */\n      sub\n        /* \"#utility.yul\":5458:5490   */\n      slt\n        /* \"#utility.yul\":5455:5574   */\n      iszero\n      tag_254\n      jumpi\n        /* \"#utility.yul\":5493:5572   */\n      tag_255\n      tag_162\n      jump\t// in\n    tag_255:\n        /* \"#utility.yul\":5455:5574   */\n    tag_254:\n        /* \"#utility.yul\":5613:5614   */\n      0x00\n        /* \"#utility.yul\":5638:5691   */\n      tag_256\n        /* \"#utility.yul\":5683:5690   */\n      dup6\n        /* \"#utility.yul\":5674:5680   */\n      dup3\n        /* \"#utility.yul\":5663:5672   */\n      dup7\n        /* \"#utility.yul\":5659:5681   */\n      add\n        /* \"#utility.yul\":5638:5691   */\n      tag_174\n      jump\t// in\n    tag_256:\n        /* \"#utility.yul\":5628:5691   */\n      swap3\n      pop\n        /* \"#utility.yul\":5584:5701   */\n      pop\n        /* \"#utility.yul\":5740:5742   */\n      0x20\n        /* \"#utility.yul\":5766:5819   */\n      tag_257\n        /* \"#utility.yul\":5811:5818   */\n      dup6\n        /* \"#utility.yul\":5802:5808   */\n      dup3\n        /* \"#utility.yul\":5791:5800   */\n      dup7\n        /* \"#utility.yul\":5787:5809   */\n      add\n        /* \"#utility.yul\":5766:5819   */\n      tag_167\n      jump\t// in\n    tag_257:\n        /* \"#utility.yul\":5756:5819   */\n      swap2\n      pop\n        /* \"#utility.yul\":5711:5829   */\n      pop\n        /* \"#utility.yul\":5362:5836   */\n      swap3\n      pop\n      swap3\n      swap1\n      pop\n      jump\t// out\n        /* \"#utility.yul\":5842:6064   */\n    tag_39:\n        /* \"#utility.yul\":5935:5939   */\n      0x00\n        /* \"#utility.yul\":5973:5975   */\n      0x20\n        /* \"#utility.yul\":5962:5971   */\n      dup3\n        /* \"#utility.yul\":5958:5976   */\n      add\n        /* \"#utility.yul\":5950:5976   */\n      swap1\n      pop\n        /* \"#utility.yul\":5986:6057   */\n      tag_259\n        /* \"#utility.yul\":6054:6055   */\n      0x00\n        /* \"#utility.yul\":6043:6052   */\n      dup4\n        /* \"#utility.yul\":6039:6056   */\n      add\n        /* \"#utility.yul\":6030:6036   */\n      dup5\n        /* \"#utility.yul\":5986:6057   */\n      tag_171\n      jump\t// in\n    tag_259:\n        /* \"#utility.yul\":5842:6064   */\n      swap3\n      swap2\n      pop\n      pop\n      jump\t// out\n        /* \"#utility.yul\":6070:6250   */\n    tag_175:\n        /* \"#utility.yul\":6118:6195   */\n      0x4e487b7100000000000000000000000000000000000000000000000000000000\n        /* \"#utility.yul\":6115:6116   */\n      0x00\n        /* \"#utility.yul\":6108:6196   */\n      mstore\n        /* \"#utility.yul\":6215:6219   */\n      0x11\n        /* \"#utility.yul\":6212:6213   */\n      0x04\n        /* \"#utility.yul\":6205:6220   */\n      mstore\n        /* \"#utility.yul\":6239:6243   */\n      0x24\n        /* \"#utility.yul\":6236:6237   */\n      0x00\n        /* \"#utility.yul\":6229:6244   */\n      revert\n        /* \"#utility.yul\":6256:6447   */\n    tag_42:\n        /* \"#utility.yul\":6296:6299   */\n      0x00\n        /* \"#utility.yul\":6315:6335   */\n      tag_262\n        /* \"#utility.yul\":6333:6334   */\n      dup3\n        /* \"#utility.yul\":6315:6335   */\n      tag_168\n      jump\t// in\n    tag_262:\n        /* \"#utility.yul\":6310:6335   */\n      swap2\n      pop\n        /* \"#utility.yul\":6349:6369   */\n      tag_263\n        /* \"#utility.yul\":6367:6368   */\n      dup4\n        /* \"#utility.yul\":6349:6369   */\n      tag_168\n      jump\t// in\n    tag_263:\n        /* \"#utility.yul\":6344:6369   */\n      swap3\n      pop\n        /* \"#utility.yul\":6392:6393   */\n      dup3\n        /* \"#utility.yul\":6389:6390   */\n      dup3\n        /* \"#utility.yul\":6385:6394   */\n      add\n        /* \"#utility.yul\":6378:6394   */\n      swap1\n      pop\n        /* \"#utility.yul\":6413:6416   */\n      dup1\n        /* \"#utility.yul\":6410:6411   */\n      dup3\n        /* \"#utility.yul\":6407:6417   */\n      gt\n        /* \"#utility.yul\":6404:6440   */\n      iszero\n      tag_264\n      jumpi\n        /* \"#utility.yul\":6420:6438   */\n      tag_265\n      tag_175\n      jump\t// in\n    tag_265:\n        /* \"#utility.yul\":6404:6440   */\n    tag_264:\n        /* \"#utility.yul\":6256:6447   */\n      swap3\n      swap2\n      pop\n      pop\n      jump\t// out\n        /* \"#utility.yul\":6453:6622   */\n    tag_176:\n        /* \"#utility.yul\":6537:6548   */\n      0x00\n        /* \"#utility.yul\":6571:6577   */\n      dup3\n        /* \"#utility.yul\":6566:6569   */\n      dup3\n        /* \"#utility.yul\":6559:6578   */\n      mstore\n        /* \"#utility.yul\":6611:6615   */\n      0x20\n        /* \"#utility.yul\":6606:6609   */\n      dup3\n        /* \"#utility.yul\":6602:6616   */\n      add\n        /* \"#utility.yul\":6587:6616   */\n      swap1\n      pop\n        /* \"#utility.yul\":6453:6622   */\n      swap3\n      swap2\n      pop\n      pop\n      jump\t// out\n        /* \"#utility.yul\":6628:6785   */\n    tag_177:\n        /* \"#utility.yul\":6768:6777   */\n      0x4578706972656400000000000000000000000000000000000000000000000000\n        /* \"#utility.yul\":6764:6765   */\n      0x00\n        /* \"#utility.yul\":6756:6762   */\n      dup3\n        /* \"#utility.yul\":6752:6766   */\n      add\n        /* \"#utility.yul\":6745:6778   */\n      mstore\n        /* \"#utility.yul\":6628:6785   */\n      pop\n      jump\t// out\n        /* \"#utility.yul\":6791:7156   */\n    tag_178:\n        /* \"#utility.yul\":6933:6936   */\n      0x00\n        /* \"#utility.yul\":6954:7020   */\n      tag_269\n        /* \"#utility.yul\":7018:7019   */\n      0x07\n        /* \"#utility.yul\":7013:7016   */\n      dup4\n        /* \"#utility.yul\":6954:7020   */\n      tag_176\n      jump\t// in\n    tag_269:\n        /* \"#utility.yul\":6947:7020   */\n      swap2\n      pop\n        /* \"#utility.yul\":7029:7122   */\n      tag_270\n        /* \"#utility.yul\":7118:7121   */\n      dup3\n        /* \"#utility.yul\":7029:7122   */\n      tag_177\n      jump\t// in\n    tag_270:\n        /* \"#utility.yul\":7147:7149   */\n      0x20\n        /* \"#utility.yul\":7142:7145   */\n      dup3\n        /* \"#utility.yul\":7138:7150   */\n      add\n        /* \"#utility.yul\":7131:7150   */\n      swap1\n      pop\n        /* \"#utility.yul\":6791:7156   */\n      swap2\n      swap1\n      pop\n      jump\t// out\n        /* \"#utility.yul\":7162:7581   */\n    tag_50:\n        /* \"#utility.yul\":7328:7332   */\n      0x00\n        /* \"#utility.yul\":7366:7368   */\n      0x20\n        /* \"#utility.yul\":7355:7364   */\n      dup3\n        /* \"#utility.yul\":7351:7369   */\n      add\n        /* \"#utility.yul\":7343:7369   */\n      swap1\n      pop\n        /* \"#utility.yul\":7415:7424   */\n      dup2\n        /* \"#utility.yul\":7409:7413   */\n      dup2\n        /* \"#utility.yul\":7405:7425   */\n      sub\n        /* \"#utility.yul\":7401:7402   */\n      0x00\n        /* \"#utility.yul\":7390:7399   */\n      dup4\n        /* \"#utility.yul\":7386:7403   */\n      add\n        /* \"#utility.yul\":7379:7426   */\n      mstore\n        /* \"#utility.yul\":7443:7574   */\n      tag_272\n        /* \"#utility.yul\":7569:7573   */\n      dup2\n        /* \"#utility.yul\":7443:7574   */\n      tag_178\n      jump\t// in\n    tag_272:\n        /* \"#utility.yul\":7435:7574   */\n      swap1\n      pop\n        /* \"#utility.yul\":7162:7581   */\n      swap2\n      swap1\n      pop\n      jump\t// out\n        /* \"#utility.yul\":7587:7757   */\n    tag_179:\n        /* \"#utility.yul\":7727:7749   */\n      0x4e6f7420656e6f756768204c5020746f6b656e73000000000000000000000000\n        /* \"#utility.yul\":7723:7724   */\n      0x00\n        /* \"#utility.yul\":7715:7721   */\n      dup3\n        /* \"#utility.yul\":7711:7725   */\n      add\n        /* \"#utility.yul\":7704:7750   */\n      mstore\n        /* \"#utility.yul\":7587:7757   */\n      pop\n      jump\t// out\n        /* \"#utility.yul\":7763:8129   */\n    tag_180:\n        /* \"#utility.yul\":7905:7908   */\n      0x00\n        /* \"#utility.yul\":7926:7993   */\n      tag_275\n        /* \"#utility.yul\":7990:7992   */\n      0x14\n        /* \"#utility.yul\":7985:7988   */\n      dup4\n        /* \"#utility.yul\":7926:7993   */\n      tag_176\n      jump\t// in\n    tag_275:\n        /* \"#utility.yul\":7919:7993   */\n      swap2\n      pop\n        /* \"#utility.yul\":8002:8095   */\n      tag_276\n        /* \"#utility.yul\":8091:8094   */\n      dup3\n        /* \"#utility.yul\":8002:8095   */\n      tag_179\n      jump\t// in\n    tag_276:\n        /* \"#utility.yul\":8120:8122   */\n      0x20\n        /* \"#utility.yul\":8115:8118   */\n      dup3\n        /* \"#utility.yul\":8111:8123   */\n      add\n        /* \"#utility.yul\":8104:8123   */\n      swap1\n      pop\n        /* \"#utility.yul\":7763:8129   */\n      swap2\n      swap1\n      pop\n      jump\t// out\n        /* \"#utility.yul\":8135:8554   */\n    tag_55:\n        /* \"#utility.yul\":8301:8305   */\n      0x00\n        /* \"#utility.yul\":8339:8341   */\n      0x20\n        /* \"#utility.yul\":8328:8337   */\n      dup3\n        /* \"#utility.yul\":8324:8342   */\n      add\n        /* \"#utility.yul\":8316:8342   */\n      swap1\n      pop\n        /* \"#utility.yul\":8388:8397   */\n      dup2\n        /* \"#utility.yul\":8382:8386   */\n      dup2\n        /* \"#utility.yul\":8378:8398   */\n      sub\n        /* \"#utility.yul\":8374:8375   */\n      0x00\n        /* \"#utility.yul\":8363:8372   */\n      dup4\n        /* \"#utility.yul\":8359:8376   */\n      add\n        /* \"#utility.yul\":8352:8399   */\n      mstore\n        /* \"#utility.yul\":8416:8547   */\n      tag_278\n        /* \"#utility.yul\":8542:8546   */\n      dup2\n        /* \"#utility.yul\":8416:8547   */\n      tag_180\n      jump\t// in\n    tag_278:\n        /* \"#utility.yul\":8408:8547   */\n      swap1\n      pop\n        /* \"#utility.yul\":8135:8554   */\n      swap2\n      swap1\n      pop\n      jump\t// out\n        /* \"#utility.yul\":8560:8970   */\n    tag_57:\n        /* \"#utility.yul\":8600:8607   */\n      0x00\n        /* \"#utility.yul\":8623:8643   */\n      tag_280\n        /* \"#utility.yul\":8641:8642   */\n      dup3\n        /* \"#utility.yul\":8623:8643   */\n      tag_168\n      jump\t// in\n    tag_280:\n        /* \"#utility.yul\":8618:8643   */\n      swap2\n      pop\n        /* \"#utility.yul\":8657:8677   */\n      tag_281\n        /* \"#utility.yul\":8675:8676   */\n      dup4\n        /* \"#utility.yul\":8657:8677   */\n      tag_168\n      jump\t// in\n    tag_281:\n        /* \"#utility.yul\":8652:8677   */\n      swap3\n      pop\n        /* \"#utility.yul\":8712:8713   */\n      dup3\n        /* \"#utility.yul\":8709:8710   */\n      dup3\n        /* \"#utility.yul\":8705:8714   */\n      mul\n        /* \"#utility.yul\":8734:8764   */\n      tag_282\n        /* \"#utility.yul\":8752:8763   */\n      dup2\n        /* \"#utility.yul\":8734:8764   */\n      tag_168\n      jump\t// in\n    tag_282:\n        /* \"#utility.yul\":8723:8764   */\n      swap2\n      pop\n        /* \"#utility.yul\":8913:8914   */\n      dup3\n        /* \"#utility.yul\":8904:8911   */\n      dup3\n        /* \"#utility.yul\":8900:8915   */\n      div\n        /* \"#utility.yul\":8897:8898   */\n      dup5\n        /* \"#utility.yul\":8894:8916   */\n      eq\n        /* \"#utility.yul\":8874:8875   */\n      dup4\n        /* \"#utility.yul\":8867:8876   */\n      iszero\n        /* \"#utility.yul\":8847:8930   */\n      or\n        /* \"#utility.yul\":8824:8963   */\n      tag_283\n      jumpi\n        /* \"#utility.yul\":8943:8961   */\n      tag_284\n      tag_175\n      jump\t// in\n    tag_284:\n        /* \"#utility.yul\":8824:8963   */\n    tag_283:\n        /* \"#utility.yul\":8608:8970   */\n      pop\n        /* \"#utility.yul\":8560:8970   */\n      swap3\n      swap2\n      pop\n      pop\n      jump\t// out\n        /* \"#utility.yul\":8976:9156   */\n    tag_140:\n        /* \"#utility.yul\":9024:9101   */\n      0x4e487b7100000000000000000000000000000000000000000000000000000000\n        /* \"#utility.yul\":9021:9022   */\n      0x00\n        /* \"#utility.yul\":9014:9102   */\n      mstore\n        /* \"#utility.yul\":9121:9125   */\n      0x12\n        /* \"#utility.yul\":9118:9119   */\n      0x04\n        /* \"#utility.yul\":9111:9126   */\n      mstore\n        /* \"#utility.yul\":9145:9149   */\n      0x24\n        /* \"#utility.yul\":9142:9143   */\n      0x00\n        /* \"#utility.yul\":9135:9150   */\n      revert\n        /* \"#utility.yul\":9162:9347   */\n    tag_59:\n        /* \"#utility.yul\":9202:9203   */\n      0x00\n        /* \"#utility.yul\":9219:9239   */\n      tag_287\n        /* \"#utility.yul\":9237:9238   */\n      dup3\n        /* \"#utility.yul\":9219:9239   */\n      tag_168\n      jump\t// in\n    tag_287:\n        /* \"#utility.yul\":9214:9239   */\n      swap2\n      pop\n        /* \"#utility.yul\":9253:9273   */\n      tag_288\n        /* \"#utility.yul\":9271:9272   */\n      dup4\n        /* \"#utility.yul\":9253:9273   */\n      tag_168\n      jump\t// in\n    tag_288:\n        /* \"#utility.yul\":9248:9273   */\n      swap3\n      pop\n        /* \"#utility.yul\":9292:9293   */\n      dup3\n        /* \"#utility.yul\":9282:9317   */\n      tag_289\n      jumpi\n        /* \"#utility.yul\":9297:9315   */\n      tag_290\n      tag_140\n      jump\t// in\n    tag_290:\n        /* \"#utility.yul\":9282:9317   */\n    tag_289:\n        /* \"#utility.yul\":9339:9340   */\n      dup3\n        /* \"#utility.yul\":9336:9337   */\n      dup3\n        /* \"#utility.yul\":9332:9341   */\n      div\n        /* \"#utility.yul\":9327:9341   */\n      swap1\n      pop\n        /* \"#utility.yul\":9162:9347   */\n      swap3\n      swap2\n      pop\n      pop\n      jump\t// out\n        /* \"#utility.yul\":9353:9513   */\n    tag_181:\n        /* \"#utility.yul\":9493:9505   */\n      0x536c697070616765204100000000000000000000000000000000000000000000\n        /* \"#utility.yul\":9489:9490   */\n      0x00\n        /* \"#utility.yul\":9481:9487   */\n      dup3\n        /* \"#utility.yul\":9477:9491   */\n      add\n        /* \"#utility.yul\":9470:9506   */\n      mstore\n        /* \"#utility.yul\":9353:9513   */\n      pop\n      jump\t// out\n        /* \"#utility.yul\":9519:9885   */\n    tag_182:\n        /* \"#utility.yul\":9661:9664   */\n      0x00\n        /* \"#utility.yul\":9682:9749   */\n      tag_293\n        /* \"#utility.yul\":9746:9748   */\n      0x0a\n        /* \"#utility.yul\":9741:9744   */\n      dup4\n        /* \"#utility.yul\":9682:9749   */\n      tag_176\n      jump\t// in\n    tag_293:\n        /* \"#utility.yul\":9675:9749   */\n      swap2\n      pop\n        /* \"#utility.yul\":9758:9851   */\n      tag_294\n        /* \"#utility.yul\":9847:9850   */\n      dup3\n        /* \"#utility.yul\":9758:9851   */\n      tag_181\n      jump\t// in\n    tag_294:\n        /* \"#utility.yul\":9876:9878   */\n      0x20\n        /* \"#utility.yul\":9871:9874   */\n      dup3\n        /* \"#utility.yul\":9867:9879   */\n      add\n        /* \"#utility.yul\":9860:9879   */\n      swap1\n      pop\n        /* \"#utility.yul\":9519:9885   */\n      swap2\n      swap1\n      pop\n      jump\t// out\n        /* \"#utility.yul\":9891:10310   */\n    tag_64:\n        /* \"#utility.yul\":10057:10061   */\n      0x00\n        /* \"#utility.yul\":10095:10097   */\n      0x20\n        /* \"#utility.yul\":10084:10093   */\n      dup3\n        /* \"#utility.yul\":10080:10098   */\n      add\n        /* \"#utility.yul\":10072:10098   */\n      swap1\n      pop\n        /* \"#utility.yul\":10144:10153   */\n      dup2\n        /* \"#utility.yul\":10138:10142   */\n      dup2\n        /* \"#utility.yul\":10134:10154   */\n      sub\n        /* \"#utility.yul\":10130:10131   */\n      0x00\n        /* \"#utility.yul\":10119:10128   */\n      dup4\n        /* \"#utility.yul\":10115:10132   */\n      add\n        /* \"#utility.yul\":10108:10155   */\n      mstore\n        /* \"#utility.yul\":10172:10303   */\n      tag_296\n        /* \"#utility.yul\":10298:10302   */\n      dup2\n        /* \"#utility.yul\":10172:10303   */\n      tag_182\n      jump\t// in\n    tag_296:\n        /* \"#utility.yul\":10164:10303   */\n      swap1\n      pop\n        /* \"#utility.yul\":9891:10310   */\n      swap2\n      swap1\n      pop\n      jump\t// out\n        /* \"#utility.yul\":10316:10476   */\n    tag_183:\n        /* \"#utility.yul\":10456:10468   */\n      0x536c697070616765204200000000000000000000000000000000000000000000\n        /* \"#utility.yul\":10452:10453   */\n      0x00\n        /* \"#utility.yul\":10444:10450   */\n      dup3\n        /* \"#utility.yul\":10440:10454   */\n      add\n        /* \"#utility.yul\":10433:10469   */\n      mstore\n        /* \"#utility.yul\":10316:10476   */\n      pop\n      jump\t// out\n        /* \"#utility.yul\":10482:10848   */\n    tag_184:\n        /* \"#utility.yul\":10624:10627   */\n      0x00\n        /* \"#utility.yul\":10645:10712   */\n      tag_299\n        /* \"#utility.yul\":10709:10711   */\n      0x0a\n        /* \"#utility.yul\":10704:10707   */\n      dup4\n        /* \"#utility.yul\":10645:10712   */\n      tag_176\n      jump\t// in\n    tag_299:\n        /* \"#utility.yul\":10638:10712   */\n      swap2\n      pop\n        /* \"#utility.yul\":10721:10814   */\n      tag_300\n        /* \"#utility.yul\":10810:10813   */\n      dup3\n        /* \"#utility.yul\":10721:10814   */\n      tag_183\n      jump\t// in\n    tag_300:\n        /* \"#utility.yul\":10839:10841   */\n      0x20\n        /* \"#utility.yul\":10834:10837   */\n      dup3\n        /* \"#utility.yul\":10830:10842   */\n      add\n        /* \"#utility.yul\":10823:10842   */\n      swap1\n      pop\n        /* \"#utility.yul\":10482:10848   */\n      swap2\n      swap1\n      pop\n      jump\t// out\n        /* \"#utility.yul\":10854:11273   */\n    tag_67:\n        /* \"#utility.yul\":11020:11024   */\n      0x00\n        /* \"#utility.yul\":11058:11060   */\n      0x20\n        /* \"#utility.yul\":11047:11056   */\n      dup3\n        /* \"#utility.yul\":11043:11061   */\n      add\n        /* \"#utility.yul\":11035:11061   */\n      swap1\n      pop\n        /* \"#utility.yul\":11107:11116   */\n      dup2\n        /* \"#utility.yul\":11101:11105   */\n      dup2\n        /* \"#utility.yul\":11097:11117   */\n      sub\n        /* \"#utility.yul\":11093:11094   */\n      0x00\n        /* \"#utility.yul\":11082:11091   */\n      dup4\n        /* \"#utility.yul\":11078:11095   */\n      add\n        /* \"#utility.yul\":11071:11118   */\n      mstore\n        /* \"#utility.yul\":11135:11266   */\n      tag_302\n        /* \"#utility.yul\":11261:11265   */\n      dup2\n        /* \"#utility.yul\":11135:11266   */\n      tag_184\n      jump\t// in\n    tag_302:\n        /* \"#utility.yul\":11127:11266   */\n      swap1\n      pop\n        /* \"#utility.yul\":10854:11273   */\n      swap2\n      swap1\n      pop\n      jump\t// out\n        /* \"#utility.yul\":11279:11473   */\n    tag_69:\n        /* \"#utility.yul\":11319:11323   */\n      0x00\n        /* \"#utility.yul\":11339:11359   */\n      tag_304\n        /* \"#utility.yul\":11357:11358   */\n      dup3\n        /* \"#utility.yul\":11339:11359   */\n      tag_168\n      jump\t// in\n    tag_304:\n        /* \"#utility.yul\":11334:11359   */\n      swap2\n      pop\n        /* \"#utility.yul\":11373:11393   */\n      tag_305\n        /* \"#utility.yul\":11391:11392   */\n      dup4\n        /* \"#utility.yul\":11373:11393   */\n      tag_168\n      jump\t// in\n    tag_305:\n        /* \"#utility.yul\":11368:11393   */\n      swap3\n      pop\n        /* \"#utility.yul\":11417:11418   */\n      dup3\n        /* \"#utility.yul\":11414:11415   */\n      dup3\n        /* \"#utility.yul\":11410:11419   */\n      sub\n        /* \"#utility.yul\":11402:11419   */\n      swap1\n      pop\n        /* \"#utility.yul\":11441:11442   */\n      dup2\n        /* \"#utility.yul\":11435:11439   */\n      dup2\n        /* \"#utility.yul\":11432:11443   */\n      gt\n        /* \"#utility.yul\":11429:11466   */\n      iszero\n      tag_306\n      jumpi\n        /* \"#utility.yul\":11446:11464   */\n      tag_307\n      tag_175\n      jump\t// in\n    tag_307:\n        /* \"#utility.yul\":11429:11466   */\n    tag_306:\n        /* \"#utility.yul\":11279:11473   */\n      swap3\n      swap2\n      pop\n      pop\n      jump\t// out\n        /* \"#utility.yul\":11479:11597   */\n    tag_185:\n        /* \"#utility.yul\":11566:11590   */\n      tag_309\n        /* \"#utility.yul\":11584:11589   */\n      dup2\n        /* \"#utility.yul\":11566:11590   */\n      tag_165\n      jump\t// in\n    tag_309:\n        /* \"#utility.yul\":11561:11564   */\n      dup3\n        /* \"#utility.yul\":11554:11591   */\n      mstore\n        /* \"#utility.yul\":11479:11597   */\n      pop\n      pop\n      jump\t// out\n        /* \"#utility.yul\":11603:11935   */\n    tag_74:\n        /* \"#utility.yul\":11724:11728   */\n      0x00\n        /* \"#utility.yul\":11762:11764   */\n      0x40\n        /* \"#utility.yul\":11751:11760   */\n      dup3\n        /* \"#utility.yul\":11747:11765   */\n      add\n        /* \"#utility.yul\":11739:11765   */\n      swap1\n      pop\n        /* \"#utility.yul\":11775:11846   */\n      tag_311\n        /* \"#utility.yul\":11843:11844   */\n      0x00\n        /* \"#utility.yul\":11832:11841   */\n      dup4\n        /* \"#utility.yul\":11828:11845   */\n      add\n        /* \"#utility.yul\":11819:11825   */\n      dup6\n        /* \"#utility.yul\":11775:11846   */\n      tag_185\n      jump\t// in\n    tag_311:\n        /* \"#utility.yul\":11856:11928   */\n      tag_312\n        /* \"#utility.yul\":11924:11926   */\n      0x20\n        /* \"#utility.yul\":11913:11922   */\n      dup4\n        /* \"#utility.yul\":11909:11927   */\n      add\n        /* \"#utility.yul\":11900:11906   */\n      dup5\n        /* \"#utility.yul\":11856:11928   */\n      tag_171\n      jump\t// in\n    tag_312:\n        /* \"#utility.yul\":11603:11935   */\n      swap4\n      swap3\n      pop\n      pop\n      pop\n      jump\t// out\n        /* \"#utility.yul\":11941:12031   */\n    tag_186:\n        /* \"#utility.yul\":11975:11982   */\n      0x00\n        /* \"#utility.yul\":12018:12023   */\n      dup2\n        /* \"#utility.yul\":12011:12024   */\n      iszero\n        /* \"#utility.yul\":12004:12025   */\n      iszero\n        /* \"#utility.yul\":11993:12025   */\n      swap1\n      pop\n        /* \"#utility.yul\":11941:12031   */\n      swap2\n      swap1\n      pop\n      jump\t// out\n        /* \"#utility.yul\":12037:12153   */\n    tag_187:\n        /* \"#utility.yul\":12107:12128   */\n      tag_315\n        /* \"#utility.yul\":12122:12127   */\n      dup2\n        /* \"#utility.yul\":12107:12128   */\n      tag_186\n      jump\t// in\n    tag_315:\n        /* \"#utility.yul\":12100:12105   */\n      dup2\n        /* \"#utility.yul\":12097:12129   */\n      eq\n        /* \"#utility.yul\":12087:12147   */\n      tag_316\n      jumpi\n        /* \"#utility.yul\":12143:12144   */\n      0x00\n        /* \"#utility.yul\":12140:12141   */\n      0x00\n        /* \"#utility.yul\":12133:12145   */\n      revert\n        /* \"#utility.yul\":12087:12147   */\n    tag_316:\n        /* \"#utility.yul\":12037:12153   */\n      pop\n      jump\t// out\n        /* \"#utility.yul\":12159:12296   */\n    tag_188:\n        /* \"#utility.yul\":12213:12218   */\n      0x00\n        /* \"#utility.yul\":12244:12250   */\n      dup2\n        /* \"#utility.yul\":12238:12251   */\n      mload\n        /* \"#utility.yul\":12229:12251   */\n      swap1\n      pop\n        /* \"#utility.yul\":12260:12290   */\n      tag_318\n        /* \"#utility.yul\":12284:12289   */\n      dup2\n        /* \"#utility.yul\":12260:12290   */\n      tag_187\n      jump\t// in\n    tag_318:\n        /* \"#utility.yul\":12159:12296   */\n      swap3\n      swap2\n      pop\n      pop\n      jump\t// out\n        /* \"#utility.yul\":12302:12647   */\n    tag_78:\n        /* \"#utility.yul\":12369:12375   */\n      0x00\n        /* \"#utility.yul\":12418:12420   */\n      0x20\n        /* \"#utility.yul\":12406:12415   */\n      dup3\n        /* \"#utility.yul\":12397:12404   */\n      dup5\n        /* \"#utility.yul\":12393:12416   */\n      sub\n        /* \"#utility.yul\":12389:12421   */\n      slt\n        /* \"#utility.yul\":12386:12505   */\n      iszero\n      tag_320\n      jumpi\n        /* \"#utility.yul\":12424:12503   */\n      tag_321\n      tag_162\n      jump\t// in\n    tag_321:\n        /* \"#utility.yul\":12386:12505   */\n    tag_320:\n        /* \"#utility.yul\":12544:12545   */\n      0x00\n        /* \"#utility.yul\":12569:12630   */\n      tag_322\n        /* \"#utility.yul\":12622:12629   */\n      dup5\n        /* \"#utility.yul\":12613:12619   */\n      dup3\n        /* \"#utility.yul\":12602:12611   */\n      dup6\n        /* \"#utility.yul\":12598:12620   */\n      add\n        /* \"#utility.yul\":12569:12630   */\n      tag_188\n      jump\t// in\n    tag_322:\n        /* \"#utility.yul\":12559:12630   */\n      swap2\n      pop\n        /* \"#utility.yul\":12515:12640   */\n      pop\n        /* \"#utility.yul\":12302:12647   */\n      swap3\n      swap2\n      pop\n      pop\n      jump\t// out\n        /* \"#utility.yul\":12653:12808   */\n    tag_189:\n        /* \"#utility.yul\":12793:12800   */\n      0x4c49513d30000000000000000000000000000000000000000000000000000000\n        /* \"#utility.yul\":12789:12790   */\n      0x00\n        /* \"#utility.yul\":12781:12787   */\n      dup3\n        /* \"#utility.yul\":12777:12791   */\n      add\n        /* \"#utility.yul\":12770:12801   */\n      mstore\n        /* \"#utility.yul\":12653:12808   */\n      pop\n      jump\t// out\n        /* \"#utility.yul\":12814:13179   */\n    tag_190:\n        /* \"#utility.yul\":12956:12959   */\n      0x00\n        /* \"#utility.yul\":12977:13043   */\n      tag_325\n        /* \"#utility.yul\":13041:13042   */\n      0x05\n        /* \"#utility.yul\":13036:13039   */\n      dup4\n        /* \"#utility.yul\":12977:13043   */\n      tag_176\n      jump\t// in\n    tag_325:\n        /* \"#utility.yul\":12970:13043   */\n      swap2\n      pop\n        /* \"#utility.yul\":13052:13145   */\n      tag_326\n        /* \"#utility.yul\":13141:13144   */\n      dup3\n        /* \"#utility.yul\":13052:13145   */\n      tag_189\n      jump\t// in\n    tag_326:\n        /* \"#utility.yul\":13170:13172   */\n      0x20\n        /* \"#utility.yul\":13165:13168   */\n      dup3\n        /* \"#utility.yul\":13161:13173   */\n      add\n        /* \"#utility.yul\":13154:13173   */\n      swap1\n      pop\n        /* \"#utility.yul\":12814:13179   */\n      swap2\n      swap1\n      pop\n      jump\t// out\n        /* \"#utility.yul\":13185:13604   */\n    tag_110:\n        /* \"#utility.yul\":13351:13355   */\n      0x00\n        /* \"#utility.yul\":13389:13391   */\n      0x20\n        /* \"#utility.yul\":13378:13387   */\n      dup3\n        /* \"#utility.yul\":13374:13392   */\n      add\n        /* \"#utility.yul\":13366:13392   */\n      swap1\n      pop\n        /* \"#utility.yul\":13438:13447   */\n      dup2\n        /* \"#utility.yul\":13432:13436   */\n      dup2\n        /* \"#utility.yul\":13428:13448   */\n      sub\n        /* \"#utility.yul\":13424:13425   */\n      0x00\n        /* \"#utility.yul\":13413:13422   */\n      dup4\n        /* \"#utility.yul\":13409:13426   */\n      add\n        /* \"#utility.yul\":13402:13449   */\n      mstore\n        /* \"#utility.yul\":13466:13597   */\n      tag_328\n        /* \"#utility.yul\":13592:13596   */\n      dup2\n        /* \"#utility.yul\":13466:13597   */\n      tag_190\n      jump\t// in\n    tag_328:\n        /* \"#utility.yul\":13458:13597   */\n      swap1\n      pop\n        /* \"#utility.yul\":13185:13604   */\n      swap2\n      swap1\n      pop\n      jump\t// out\n        /* \"#utility.yul\":13610:14052   */\n    tag_112:\n        /* \"#utility.yul\":13759:13763   */\n      0x00\n        /* \"#utility.yul\":13797:13799   */\n      0x60\n        /* \"#utility.yul\":13786:13795   */\n      dup3\n        /* \"#utility.yul\":13782:13800   */\n      add\n        /* \"#utility.yul\":13774:13800   */\n      swap1\n      pop\n        /* \"#utility.yul\":13810:13881   */\n      tag_330\n        /* \"#utility.yul\":13878:13879   */\n      0x00\n        /* \"#utility.yul\":13867:13876   */\n      dup4\n        /* \"#utility.yul\":13863:13880   */\n      add\n        /* \"#utility.yul\":13854:13860   */\n      dup7\n        /* \"#utility.yul\":13810:13881   */\n      tag_185\n      jump\t// in\n    tag_330:\n        /* \"#utility.yul\":13891:13963   */\n      tag_331\n        /* \"#utility.yul\":13959:13961   */\n      0x20\n        /* \"#utility.yul\":13948:13957   */\n      dup4\n        /* \"#utility.yul\":13944:13962   */\n      add\n        /* \"#utility.yul\":13935:13941   */\n      dup6\n        /* \"#utility.yul\":13891:13963   */\n      tag_185\n      jump\t// in\n    tag_331:\n        /* \"#utility.yul\":13973:14045   */\n      tag_332\n        /* \"#utility.yul\":14041:14043   */\n      0x40\n        /* \"#utility.yul\":14030:14039   */\n      dup4\n        /* \"#utility.yul\":14026:14044   */\n      add\n        /* \"#utility.yul\":14017:14023   */\n      dup5\n        /* \"#utility.yul\":13973:14045   */\n      tag_171\n      jump\t// in\n    tag_332:\n        /* \"#utility.yul\":13610:14052   */\n      swap5\n      swap4\n      pop\n      pop\n      pop\n      pop\n      jump\t// out\n        /* \"#utility.yul\":14058:14152   */\n    tag_191:\n        /* \"#utility.yul\":14091:14099   */\n      0x00\n        /* \"#utility.yul\":14139:14144   */\n      dup2\n        /* \"#utility.yul\":14135:14137   */\n      0x60\n        /* \"#utility.yul\":14131:14145   */\n      shl\n        /* \"#utility.yul\":14110:14145   */\n      swap1\n      pop\n        /* \"#utility.yul\":14058:14152   */\n      swap2\n      swap1\n      pop\n      jump\t// out\n        /* \"#utility.yul\":14158:14252   */\n    tag_192:\n        /* \"#utility.yul\":14197:14204   */\n      0x00\n        /* \"#utility.yul\":14226:14246   */\n      tag_335\n        /* \"#utility.yul\":14240:14245   */\n      dup3\n        /* \"#utility.yul\":14226:14246   */\n      tag_191\n      jump\t// in\n    tag_335:\n        /* \"#utility.yul\":14215:14246   */\n      swap1\n      pop\n        /* \"#utility.yul\":14158:14252   */\n      swap2\n      swap1\n      pop\n      jump\t// out\n        /* \"#utility.yul\":14258:14358   */\n    tag_193:\n        /* \"#utility.yul\":14297:14304   */\n      0x00\n        /* \"#utility.yul\":14326:14352   */\n      tag_337\n        /* \"#utility.yul\":14346:14351   */\n      dup3\n        /* \"#utility.yul\":14326:14352   */\n      tag_192\n      jump\t// in\n    tag_337:\n        /* \"#utility.yul\":14315:14352   */\n      swap1\n      pop\n        /* \"#utility.yul\":14258:14358   */\n      swap2\n      swap1\n      pop\n      jump\t// out\n        /* \"#utility.yul\":14364:14521   */\n    tag_194:\n        /* \"#utility.yul\":14469:14514   */\n      tag_339\n        /* \"#utility.yul\":14489:14513   */\n      tag_340\n        /* \"#utility.yul\":14507:14512   */\n      dup3\n        /* \"#utility.yul\":14489:14513   */\n      tag_165\n      jump\t// in\n    tag_340:\n        /* \"#utility.yul\":14469:14514   */\n      tag_193\n      jump\t// in\n    tag_339:\n        /* \"#utility.yul\":14464:14467   */\n      dup3\n        /* \"#utility.yul\":14457:14515   */\n      mstore\n        /* \"#utility.yul\":14364:14521   */\n      pop\n      pop\n      jump\t// out\n        /* \"#utility.yul\":14527:14924   */\n    tag_128:\n        /* \"#utility.yul\":14667:14670   */\n      0x00\n        /* \"#utility.yul\":14682:14757   */\n      tag_342\n        /* \"#utility.yul\":14753:14756   */\n      dup3\n        /* \"#utility.yul\":14744:14750   */\n      dup6\n        /* \"#utility.yul\":14682:14757   */\n      tag_194\n      jump\t// in\n    tag_342:\n        /* \"#utility.yul\":14782:14784   */\n      0x14\n        /* \"#utility.yul\":14777:14780   */\n      dup3\n        /* \"#utility.yul\":14773:14785   */\n      add\n        /* \"#utility.yul\":14766:14785   */\n      swap2\n      pop\n        /* \"#utility.yul\":14795:14870   */\n      tag_343\n        /* \"#utility.yul\":14866:14869   */\n      dup3\n        /* \"#utility.yul\":14857:14863   */\n      dup5\n        /* \"#utility.yul\":14795:14870   */\n      tag_194\n      jump\t// in\n    tag_343:\n        /* \"#utility.yul\":14895:14897   */\n      0x14\n        /* \"#utility.yul\":14890:14893   */\n      dup3\n        /* \"#utility.yul\":14886:14898   */\n      add\n        /* \"#utility.yul\":14879:14898   */\n      swap2\n      pop\n        /* \"#utility.yul\":14915:14918   */\n      dup2\n        /* \"#utility.yul\":14908:14918   */\n      swap1\n      pop\n        /* \"#utility.yul\":14527:14924   */\n      swap4\n      swap3\n      pop\n      pop\n      pop\n      jump\t// out\n\n    auxdata: 0xa26469706673582212208c7bdf1141cde75f642bac4b7544f7883fa06cb8f8a331792adbb89a3618052664736f6c634300081e0033\n}\n",
				"bytecode": {
					"linkReferences": {},
					"object": "6080604052348015600e575f5ffd5b506113678061001c5f395ff3fe608060405234801561000f575f5ffd5b5060043610610060575f3560e01c80630760eaec146100645780635c92396014610095578063b5217bb4146100c7578063baa2abde146100f9578063e8e337001461012a578063f4e3f7661461015c575b5f5ffd5b61007e60048036038101906100799190610c3f565b61018c565b60405161008c929190610ceb565b60405180910390f35b6100af60048036038101906100aa9190610d12565b6101bd565b6040516100be93929190610dc3565b60405180910390f35b6100e160048036038101906100dc9190610e2b565b6101f4565b6040516100f093929190610dc3565b60405180910390f35b610113600480360381019061010e9190610c3f565b610219565b604051610121929190610ceb565b60405180910390f35b610144600480360381019061013f9190610d12565b610589565b60405161015393929190610dc3565b60405180910390f35b61017660048036038101906101719190610e56565b610943565b6040516101839190610e94565b60405180910390f35b5f5f5f834261019b9190610eda565b90506101ac8a8a8a8a8a8a87610219565b925092505097509795505050505050565b5f5f5f5f84426101cd9190610eda565b90506101df8c8c8c8c8c8c8c88610589565b93509350935050985098509895505050505050565b5f602052805f5260405f205f91509050805f0154908060010154908060020154905083565b5f5f8242111561025e576040517f08c379a000000000000000000000000000000000000000000000000000000000815260040161025590610f67565b60405180910390fd5b5f6102698a8a610963565b90505f5f5f8381526020019081526020015f2090508860015f8481526020019081526020015f205f3373ffffffffffffffffffffffffffffffffffffffff1673ffffffffffffffffffffffffffffffffffffffff1681526020019081526020015f2054101561030d576040517f08c379a000000000000000000000000000000000000000000000000000000000815260040161030490610fcf565b60405180910390fd5b8060020154815f01548a6103219190610fed565b61032b919061105b565b9350806002015481600101548a6103429190610fed565b61034c919061105b565b925087841015610391576040517f08c379a0000000000000000000000000000000000000000000000000000000008152600401610388906110d5565b60405180910390fd5b868310156103d4576040517f08c379a00000000000000000000000000000000000000000000000000000000081526004016103cb9061113d565b60405180910390fd5b83815f015f8282546103e6919061115b565b9250508190555082816001015f828254610400919061115b565b9250508190555088816002015f82825461041a919061115b565b925050819055508860015f8481526020019081526020015f205f3373ffffffffffffffffffffffffffffffffffffffff1673ffffffffffffffffffffffffffffffffffffffff1681526020019081526020015f205f82825461047c919061115b565b925050819055508a73ffffffffffffffffffffffffffffffffffffffff1663a9059cbb87866040518363ffffffff1660e01b81526004016104be92919061119d565b6020604051808303815f875af11580156104da573d5f5f3e3d5ffd5b505050506040513d601f19601f820116820180604052508101906104fe91906111f9565b508973ffffffffffffffffffffffffffffffffffffffff1663a9059cbb87856040518363ffffffff1660e01b815260040161053a92919061119d565b6020604051808303815f875af1158015610556573d5f5f3e3d5ffd5b505050506040513d601f19601f8201168201806040525081019061057a91906111f9565b50505097509795505050505050565b5f5f5f834211156105cf576040517f08c379a00000000000000000000000000000000000000000000000000000000081526004016105c690610f67565b60405180910390fd5b5f6105da8c8c610963565b90505f5f5f8381526020019081526020015f2090505f81600201540361061b578a9450899350610614848661060f9190610fed565b6109da565b9250610746565b5f815f015482600101548d6106309190610fed565b61063a919061105b565b90508a81116106915788811015610686576040517f08c379a000000000000000000000000000000000000000000000000000000000815260040161067d9061113d565b60405180910390fd5b8b95508094506106fd565b5f8260010154835f01548d6106a69190610fed565b6106b0919061105b565b90508a8110156106f5576040517f08c379a00000000000000000000000000000000000000000000000000000000081526004016106ec906110d5565b60405180910390fd5b8096508b9550505b610742825f01548360020154886107149190610fed565b61071e919061105b565b83600101548460020154886107339190610fed565b61073d919061105b565b610b74565b9350505b5f8311610788576040517f08c379a000000000000000000000000000000000000000000000000000000000815260040161077f9061126e565b60405180910390fd5b8c73ffffffffffffffffffffffffffffffffffffffff166323b872dd3389886040518463ffffffff1660e01b81526004016107c59392919061128c565b6020604051808303815f875af11580156107e1573d5f5f3e3d5ffd5b505050506040513d601f19601f8201168201806040525081019061080591906111f9565b508b73ffffffffffffffffffffffffffffffffffffffff166323b872dd3389876040518463ffffffff1660e01b81526004016108439392919061128c565b6020604051808303815f875af115801561085f573d5f5f3e3d5ffd5b505050506040513d601f19601f8201168201806040525081019061088391906111f9565b5084815f015f8282546108969190610eda565b9250508190555083816001015f8282546108b09190610eda565b9250508190555082816002015f8282546108ca9190610eda565b925050819055508260015f8481526020019081526020015f205f3373ffffffffffffffffffffffffffffffffffffffff1673ffffffffffffffffffffffffffffffffffffffff1681526020019081526020015f205f82825461092c9190610eda565b925050819055505050985098509895505050505050565b6001602052815f5260405f20602052805f5260405f205f91509150505481565b5f5f5f8373ffffffffffffffffffffffffffffffffffffffff168573ffffffffffffffffffffffffffffffffffffffff16106109a05783856109a3565b84845b9150915081816040516020016109ba929190611306565b604051602081830303815290604052805190602001209250505092915050565b5f600182116109eb57819050610b6f565b5f8290505f600190507001000000000000000000000000000000008210610a1b57608082901c9150604081901b90505b680100000000000000008210610a3a57604082901c9150602081901b90505b6401000000008210610a5557602082901c9150601081901b90505b620100008210610a6e57601082901c9150600881901b90505b6101008210610a8657600882901c9150600481901b90505b60108210610a9d57600482901c9150600281901b90505b60048210610aad57600181901b90505b600181600302901c90506001818581610ac957610ac861102e565b5b048201901c90506001818581610ae257610ae161102e565b5b048201901c90506001818581610afb57610afa61102e565b5b048201901c90506001818581610b1457610b1361102e565b5b048201901c90506001818581610b2d57610b2c61102e565b5b048201901c90506001818581610b4657610b4561102e565b5b048201901c9050610b68818581610b6057610b5f61102e565b5b048211610b8a565b8103925050505b919050565b5f610b828284108484610b95565b905092915050565b5f8115159050919050565b5f610b9f84610b8a565b82841802821890509392505050565b5f5ffd5b5f73ffffffffffffffffffffffffffffffffffffffff82169050919050565b5f610bdb82610bb2565b9050919050565b610beb81610bd1565b8114610bf5575f5ffd5b50565b5f81359050610c0681610be2565b92915050565b5f819050919050565b610c1e81610c0c565b8114610c28575f5ffd5b50565b5f81359050610c3981610c15565b92915050565b5f5f5f5f5f5f5f60e0888a031215610c5a57610c59610bae565b5b5f610c678a828b01610bf8565b9750506020610c788a828b01610bf8565b9650506040610c898a828b01610c2b565b9550506060610c9a8a828b01610c2b565b9450506080610cab8a828b01610c2b565b93505060a0610cbc8a828b01610bf8565b92505060c0610ccd8a828b01610c2b565b91505092959891949750929550565b610ce581610c0c565b82525050565b5f604082019050610cfe5f830185610cdc565b610d0b6020830184610cdc565b9392505050565b5f5f5f5f5f5f5f5f610100898b031215610d2f57610d2e610bae565b5b5f610d3c8b828c01610bf8565b9850506020610d4d8b828c01610bf8565b9750506040610d5e8b828c01610c2b565b9650506060610d6f8b828c01610c2b565b9550506080610d808b828c01610c2b565b94505060a0610d918b828c01610c2b565b93505060c0610da28b828c01610bf8565b92505060e0610db38b828c01610c2b565b9150509295985092959890939650565b5f606082019050610dd65f830186610cdc565b610de36020830185610cdc565b610df06040830184610cdc565b949350505050565b5f819050919050565b610e0a81610df8565b8114610e14575f5ffd5b50565b5f81359050610e2581610e01565b92915050565b5f60208284031215610e4057610e3f610bae565b5b5f610e4d84828501610e17565b91505092915050565b5f5f60408385031215610e6c57610e6b610bae565b5b5f610e7985828601610e17565b9250506020610e8a85828601610bf8565b9150509250929050565b5f602082019050610ea75f830184610cdc565b92915050565b7f4e487b71000000000000000000000000000000000000000000000000000000005f52601160045260245ffd5b5f610ee482610c0c565b9150610eef83610c0c565b9250828201905080821115610f0757610f06610ead565b5b92915050565b5f82825260208201905092915050565b7f45787069726564000000000000000000000000000000000000000000000000005f82015250565b5f610f51600783610f0d565b9150610f5c82610f1d565b602082019050919050565b5f6020820190508181035f830152610f7e81610f45565b9050919050565b7f4e6f7420656e6f756768204c5020746f6b656e730000000000000000000000005f82015250565b5f610fb9601483610f0d565b9150610fc482610f85565b602082019050919050565b5f6020820190508181035f830152610fe681610fad565b9050919050565b5f610ff782610c0c565b915061100283610c0c565b925082820261101081610c0c565b9150828204841483151761102757611026610ead565b5b5092915050565b7f4e487b71000000000000000000000000000000000000000000000000000000005f52601260045260245ffd5b5f61106582610c0c565b915061107083610c0c565b9250826110805761107f61102e565b5b828204905092915050565b7f536c6970706167652041000000000000000000000000000000000000000000005f82015250565b5f6110bf600a83610f0d565b91506110ca8261108b565b602082019050919050565b5f6020820190508181035f8301526110ec816110b3565b9050919050565b7f536c6970706167652042000000000000000000000000000000000000000000005f82015250565b5f611127600a83610f0d565b9150611132826110f3565b602082019050919050565b5f6020820190508181035f8301526111548161111b565b9050919050565b5f61116582610c0c565b915061117083610c0c565b925082820390508181111561118857611187610ead565b5b92915050565b61119781610bd1565b82525050565b5f6040820190506111b05f83018561118e565b6111bd6020830184610cdc565b9392505050565b5f8115159050919050565b6111d8816111c4565b81146111e2575f5ffd5b50565b5f815190506111f3816111cf565b92915050565b5f6020828403121561120e5761120d610bae565b5b5f61121b848285016111e5565b91505092915050565b7f4c49513d300000000000000000000000000000000000000000000000000000005f82015250565b5f611258600583610f0d565b915061126382611224565b602082019050919050565b5f6020820190508181035f8301526112858161124c565b9050919050565b5f60608201905061129f5f83018661118e565b6112ac602083018561118e565b6112b96040830184610cdc565b949350505050565b5f8160601b9050919050565b5f6112d7826112c1565b9050919050565b5f6112e8826112cd565b9050919050565b6113006112fb82610bd1565b6112de565b82525050565b5f61131182856112ef565b60148201915061132182846112ef565b601482019150819050939250505056fea26469706673582212208c7bdf1141cde75f642bac4b7544f7883fa06cb8f8a331792adbb89a3618052664736f6c634300081e0033",
					"opcodes": "PUSH1 0x80 PUSH1 0x40 MSTORE CALLVALUE DUP1 ISZERO PUSH1 0xE JUMPI PUSH0 PUSH0 REVERT JUMPDEST POP PUSH2 0x1367 DUP1 PUSH2 0x1C PUSH0 CODECOPY PUSH0 RETURN INVALID PUSH1 0x80 PUSH1 0x40 MSTORE CALLVALUE DUP1 ISZERO PUSH2 0xF JUMPI PUSH0 PUSH0 REVERT JUMPDEST POP PUSH1 0x4 CALLDATASIZE LT PUSH2 0x60 JUMPI PUSH0 CALLDATALOAD PUSH1 0xE0 SHR DUP1 PUSH4 0x760EAEC EQ PUSH2 0x64 JUMPI DUP1 PUSH4 0x5C923960 EQ PUSH2 0x95 JUMPI DUP1 PUSH4 0xB5217BB4 EQ PUSH2 0xC7 JUMPI DUP1 PUSH4 0xBAA2ABDE EQ PUSH2 0xF9 JUMPI DUP1 PUSH4 0xE8E33700 EQ PUSH2 0x12A JUMPI DUP1 PUSH4 0xF4E3F766 EQ PUSH2 0x15C JUMPI JUMPDEST PUSH0 PUSH0 REVERT JUMPDEST PUSH2 0x7E PUSH1 0x4 DUP1 CALLDATASIZE SUB DUP2 ADD SWAP1 PUSH2 0x79 SWAP2 SWAP1 PUSH2 0xC3F JUMP JUMPDEST PUSH2 0x18C JUMP JUMPDEST PUSH1 0x40 MLOAD PUSH2 0x8C SWAP3 SWAP2 SWAP1 PUSH2 0xCEB JUMP JUMPDEST PUSH1 0x40 MLOAD DUP1 SWAP2 SUB SWAP1 RETURN JUMPDEST PUSH2 0xAF PUSH1 0x4 DUP1 CALLDATASIZE SUB DUP2 ADD SWAP1 PUSH2 0xAA SWAP2 SWAP1 PUSH2 0xD12 JUMP JUMPDEST PUSH2 0x1BD JUMP JUMPDEST PUSH1 0x40 MLOAD PUSH2 0xBE SWAP4 SWAP3 SWAP2 SWAP1 PUSH2 0xDC3 JUMP JUMPDEST PUSH1 0x40 MLOAD DUP1 SWAP2 SUB SWAP1 RETURN JUMPDEST PUSH2 0xE1 PUSH1 0x4 DUP1 CALLDATASIZE SUB DUP2 ADD SWAP1 PUSH2 0xDC SWAP2 SWAP1 PUSH2 0xE2B JUMP JUMPDEST PUSH2 0x1F4 JUMP JUMPDEST PUSH1 0x40 MLOAD PUSH2 0xF0 SWAP4 SWAP3 SWAP2 SWAP1 PUSH2 0xDC3 JUMP JUMPDEST PUSH1 0x40 MLOAD DUP1 SWAP2 SUB SWAP1 RETURN JUMPDEST PUSH2 0x113 PUSH1 0x4 DUP1 CALLDATASIZE SUB DUP2 ADD SWAP1 PUSH2 0x10E SWAP2 SWAP1 PUSH2 0xC3F JUMP JUMPDEST PUSH2 0x219 JUMP JUMPDEST PUSH1 0x40 MLOAD PUSH2 0x121 SWAP3 SWAP2 SWAP1 PUSH2 0xCEB JUMP JUMPDEST PUSH1 0x40 MLOAD DUP1 SWAP2 SUB SWAP1 RETURN JUMPDEST PUSH2 0x144 PUSH1 0x4 DUP1 CALLDATASIZE SUB DUP2 ADD SWAP1 PUSH2 0x13F SWAP2 SWAP1 PUSH2 0xD12 JUMP JUMPDEST PUSH2 0x589 JUMP JUMPDEST PUSH1 0x40 MLOAD PUSH2 0x153 SWAP4 SWAP3 SWAP2 SWAP1 PUSH2 0xDC3 JUMP JUMPDEST PUSH1 0x40 MLOAD DUP1 SWAP2 SUB SWAP1 RETURN JUMPDEST PUSH2 0x176 PUSH1 0x4 DUP1 CALLDATASIZE SUB DUP2 ADD SWAP1 PUSH2 0x171 SWAP2 SWAP1 PUSH2 0xE56 JUMP JUMPDEST PUSH2 0x943 JUMP JUMPDEST PUSH1 0x40 MLOAD PUSH2 0x183 SWAP2 SWAP1 PUSH2 0xE94 JUMP JUMPDEST PUSH1 0x40 MLOAD DUP1 SWAP2 SUB SWAP1 RETURN JUMPDEST PUSH0 PUSH0 PUSH0 DUP4 TIMESTAMP PUSH2 0x19B SWAP2 SWAP1 PUSH2 0xEDA JUMP JUMPDEST SWAP1 POP PUSH2 0x1AC DUP11 DUP11 DUP11 DUP11 DUP11 DUP11 DUP8 PUSH2 0x219 JUMP JUMPDEST SWAP3 POP SWAP3 POP POP SWAP8 POP SWAP8 SWAP6 POP POP POP POP POP POP JUMP JUMPDEST PUSH0 PUSH0 PUSH0 PUSH0 DUP5 TIMESTAMP PUSH2 0x1CD SWAP2 SWAP1 PUSH2 0xEDA JUMP JUMPDEST SWAP1 POP PUSH2 0x1DF DUP13 DUP13 DUP13 DUP13 DUP13 DUP13 DUP13 DUP9 PUSH2 0x589 JUMP JUMPDEST SWAP4 POP SWAP4 POP SWAP4 POP POP SWAP9 POP SWAP9 POP SWAP9 SWAP6 POP POP POP POP POP POP JUMP JUMPDEST PUSH0 PUSH1 0x20 MSTORE DUP1 PUSH0 MSTORE PUSH1 0x40 PUSH0 KECCAK256 PUSH0 SWAP2 POP SWAP1 POP DUP1 PUSH0 ADD SLOAD SWAP1 DUP1 PUSH1 0x1 ADD SLOAD SWAP1 DUP1 PUSH1 0x2 ADD SLOAD SWAP1 POP DUP4 JUMP JUMPDEST PUSH0 PUSH0 DUP3 TIMESTAMP GT ISZERO PUSH2 0x25E JUMPI PUSH1 0x40 MLOAD PUSH32 0x8C379A000000000000000000000000000000000000000000000000000000000 DUP2 MSTORE PUSH1 0x4 ADD PUSH2 0x255 SWAP1 PUSH2 0xF67 JUMP JUMPDEST PUSH1 0x40 MLOAD DUP1 SWAP2 SUB SWAP1 REVERT JUMPDEST PUSH0 PUSH2 0x269 DUP11 DUP11 PUSH2 0x963 JUMP JUMPDEST SWAP1 POP PUSH0 PUSH0 PUSH0 DUP4 DUP2 MSTORE PUSH1 0x20 ADD SWAP1 DUP2 MSTORE PUSH1 0x20 ADD PUSH0 KECCAK256 SWAP1 POP DUP9 PUSH1 0x1 PUSH0 DUP5 DUP2 MSTORE PUSH1 0x20 ADD SWAP1 DUP2 MSTORE PUSH1 0x20 ADD PUSH0 KECCAK256 PUSH0 CALLER PUSH20 0xFFFFFFFFFFFFFFFFFFFFFFFFFFFFFFFFFFFFFFFF AND PUSH20 0xFFFFFFFFFFFFFFFFFFFFFFFFFFFFFFFFFFFFFFFF AND DUP2 MSTORE PUSH1 0x20 ADD SWAP1 DUP2 MSTORE PUSH1 0x20 ADD PUSH0 KECCAK256 SLOAD LT ISZERO PUSH2 0x30D JUMPI PUSH1 0x40 MLOAD PUSH32 0x8C379A000000000000000000000000000000000000000000000000000000000 DUP2 MSTORE PUSH1 0x4 ADD PUSH2 0x304 SWAP1 PUSH2 0xFCF JUMP JUMPDEST PUSH1 0x40 MLOAD DUP1 SWAP2 SUB SWAP1 REVERT JUMPDEST DUP1 PUSH1 0x2 ADD SLOAD DUP2 PUSH0 ADD SLOAD DUP11 PUSH2 0x321 SWAP2 SWAP1 PUSH2 0xFED JUMP JUMPDEST PUSH2 0x32B SWAP2 SWAP1 PUSH2 0x105B JUMP JUMPDEST SWAP4 POP DUP1 PUSH1 0x2 ADD SLOAD DUP2 PUSH1 0x1 ADD SLOAD DUP11 PUSH2 0x342 SWAP2 SWAP1 PUSH2 0xFED JUMP JUMPDEST PUSH2 0x34C SWAP2 SWAP1 PUSH2 0x105B JUMP JUMPDEST SWAP3 POP DUP8 DUP5 LT ISZERO PUSH2 0x391 JUMPI PUSH1 0x40 MLOAD PUSH32 0x8C379A000000000000000000000000000000000000000000000000000000000 DUP2 MSTORE PUSH1 0x4 ADD PUSH2 0x388 SWAP1 PUSH2 0x10D5 JUMP JUMPDEST PUSH1 0x40 MLOAD DUP1 SWAP2 SUB SWAP1 REVERT JUMPDEST DUP7 DUP4 LT ISZERO PUSH2 0x3D4 JUMPI PUSH1 0x40 MLOAD PUSH32 0x8C379A000000000000000000000000000000000000000000000000000000000 DUP2 MSTORE PUSH1 0x4 ADD PUSH2 0x3CB SWAP1 PUSH2 0x113D JUMP JUMPDEST PUSH1 0x40 MLOAD DUP1 SWAP2 SUB SWAP1 REVERT JUMPDEST DUP4 DUP2 PUSH0 ADD PUSH0 DUP3 DUP3 SLOAD PUSH2 0x3E6 SWAP2 SWAP1 PUSH2 0x115B JUMP JUMPDEST SWAP3 POP POP DUP2 SWAP1 SSTORE POP DUP3 DUP2 PUSH1 0x1 ADD PUSH0 DUP3 DUP3 SLOAD PUSH2 0x400 SWAP2 SWAP1 PUSH2 0x115B JUMP JUMPDEST SWAP3 POP POP DUP2 SWAP1 SSTORE POP DUP9 DUP2 PUSH1 0x2 ADD PUSH0 DUP3 DUP3 SLOAD PUSH2 0x41A SWAP2 SWAP1 PUSH2 0x115B JUMP JUMPDEST SWAP3 POP POP DUP2 SWAP1 SSTORE POP DUP9 PUSH1 0x1 PUSH0 DUP5 DUP2 MSTORE PUSH1 0x20 ADD SWAP1 DUP2 MSTORE PUSH1 0x20 ADD PUSH0 KECCAK256 PUSH0 CALLER PUSH20 0xFFFFFFFFFFFFFFFFFFFFFFFFFFFFFFFFFFFFFFFF AND PUSH20 0xFFFFFFFFFFFFFFFFFFFFFFFFFFFFFFFFFFFFFFFF AND DUP2 MSTORE PUSH1 0x20 ADD SWAP1 DUP2 MSTORE PUSH1 0x20 ADD PUSH0 KECCAK256 PUSH0 DUP3 DUP3 SLOAD PUSH2 0x47C SWAP2 SWAP1 PUSH2 0x115B JUMP JUMPDEST SWAP3 POP POP DUP2 SWAP1 SSTORE POP DUP11 PUSH20 0xFFFFFFFFFFFFFFFFFFFFFFFFFFFFFFFFFFFFFFFF AND PUSH4 0xA9059CBB DUP8 DUP7 PUSH1 0x40 MLOAD DUP4 PUSH4 0xFFFFFFFF AND PUSH1 0xE0 SHL DUP2 MSTORE PUSH1 0x4 ADD PUSH2 0x4BE SWAP3 SWAP2 SWAP1 PUSH2 0x119D JUMP JUMPDEST PUSH1 0x20 PUSH1 0x40 MLOAD DUP1 DUP4 SUB DUP2 PUSH0 DUP8 GAS CALL ISZERO DUP1 ISZERO PUSH2 0x4DA JUMPI RETURNDATASIZE PUSH0 PUSH0 RETURNDATACOPY RETURNDATASIZE PUSH0 REVERT JUMPDEST POP POP POP POP PUSH1 0x40 MLOAD RETURNDATASIZE PUSH1 0x1F NOT PUSH1 0x1F DUP3 ADD AND DUP3 ADD DUP1 PUSH1 0x40 MSTORE POP DUP2 ADD SWAP1 PUSH2 0x4FE SWAP2 SWAP1 PUSH2 0x11F9 JUMP JUMPDEST POP DUP10 PUSH20 0xFFFFFFFFFFFFFFFFFFFFFFFFFFFFFFFFFFFFFFFF AND PUSH4 0xA9059CBB DUP8 DUP6 PUSH1 0x40 MLOAD DUP4 PUSH4 0xFFFFFFFF AND PUSH1 0xE0 SHL DUP2 MSTORE PUSH1 0x4 ADD PUSH2 0x53A SWAP3 SWAP2 SWAP1 PUSH2 0x119D JUMP JUMPDEST PUSH1 0x20 PUSH1 0x40 MLOAD DUP1 DUP4 SUB DUP2 PUSH0 DUP8 GAS CALL ISZERO DUP1 ISZERO PUSH2 0x556 JUMPI RETURNDATASIZE PUSH0 PUSH0 RETURNDATACOPY RETURNDATASIZE PUSH0 REVERT JUMPDEST POP POP POP POP PUSH1 0x40 MLOAD RETURNDATASIZE PUSH1 0x1F NOT PUSH1 0x1F DUP3 ADD AND DUP3 ADD DUP1 PUSH1 0x40 MSTORE POP DUP2 ADD SWAP1 PUSH2 0x57A SWAP2 SWAP1 PUSH2 0x11F9 JUMP JUMPDEST POP POP POP SWAP8 POP SWAP8 SWAP6 POP POP POP POP POP POP JUMP JUMPDEST PUSH0 PUSH0 PUSH0 DUP4 TIMESTAMP GT ISZERO PUSH2 0x5CF JUMPI PUSH1 0x40 MLOAD PUSH32 0x8C379A000000000000000000000000000000000000000000000000000000000 DUP2 MSTORE PUSH1 0x4 ADD PUSH2 0x5C6 SWAP1 PUSH2 0xF67 JUMP JUMPDEST PUSH1 0x40 MLOAD DUP1 SWAP2 SUB SWAP1 REVERT JUMPDEST PUSH0 PUSH2 0x5DA DUP13 DUP13 PUSH2 0x963 JUMP JUMPDEST SWAP1 POP PUSH0 PUSH0 PUSH0 DUP4 DUP2 MSTORE PUSH1 0x20 ADD SWAP1 DUP2 MSTORE PUSH1 0x20 ADD PUSH0 KECCAK256 SWAP1 POP PUSH0 DUP2 PUSH1 0x2 ADD SLOAD SUB PUSH2 0x61B JUMPI DUP11 SWAP5 POP DUP10 SWAP4 POP PUSH2 0x614 DUP5 DUP7 PUSH2 0x60F SWAP2 SWAP1 PUSH2 0xFED JUMP JUMPDEST PUSH2 0x9DA JUMP JUMPDEST SWAP3 POP PUSH2 0x746 JUMP JUMPDEST PUSH0 DUP2 PUSH0 ADD SLOAD DUP3 PUSH1 0x1 ADD SLOAD DUP14 PUSH2 0x630 SWAP2 SWAP1 PUSH2 0xFED JUMP JUMPDEST PUSH2 0x63A SWAP2 SWAP1 PUSH2 0x105B JUMP JUMPDEST SWAP1 POP DUP11 DUP2 GT PUSH2 0x691 JUMPI DUP9 DUP2 LT ISZERO PUSH2 0x686 JUMPI PUSH1 0x40 MLOAD PUSH32 0x8C379A000000000000000000000000000000000000000000000000000000000 DUP2 MSTORE PUSH1 0x4 ADD PUSH2 0x67D SWAP1 PUSH2 0x113D JUMP JUMPDEST PUSH1 0x40 MLOAD DUP1 SWAP2 SUB SWAP1 REVERT JUMPDEST DUP12 SWAP6 POP DUP1 SWAP5 POP PUSH2 0x6FD JUMP JUMPDEST PUSH0 DUP3 PUSH1 0x1 ADD SLOAD DUP4 PUSH0 ADD SLOAD DUP14 PUSH2 0x6A6 SWAP2 SWAP1 PUSH2 0xFED JUMP JUMPDEST PUSH2 0x6B0 SWAP2 SWAP1 PUSH2 0x105B JUMP JUMPDEST SWAP1 POP DUP11 DUP2 LT ISZERO PUSH2 0x6F5 JUMPI PUSH1 0x40 MLOAD PUSH32 0x8C379A000000000000000000000000000000000000000000000000000000000 DUP2 MSTORE PUSH1 0x4 ADD PUSH2 0x6EC SWAP1 PUSH2 0x10D5 JUMP JUMPDEST PUSH1 0x40 MLOAD DUP1 SWAP2 SUB SWAP1 REVERT JUMPDEST DUP1 SWAP7 POP DUP12 SWAP6 POP POP JUMPDEST PUSH2 0x742 DUP3 PUSH0 ADD SLOAD DUP4 PUSH1 0x2 ADD SLOAD DUP9 PUSH2 0x714 SWAP2 SWAP1 PUSH2 0xFED JUMP JUMPDEST PUSH2 0x71E SWAP2 SWAP1 PUSH2 0x105B JUMP JUMPDEST DUP4 PUSH1 0x1 ADD SLOAD DUP5 PUSH1 0x2 ADD SLOAD DUP9 PUSH2 0x733 SWAP2 SWAP1 PUSH2 0xFED JUMP JUMPDEST PUSH2 0x73D SWAP2 SWAP1 PUSH2 0x105B JUMP JUMPDEST PUSH2 0xB74 JUMP JUMPDEST SWAP4 POP POP JUMPDEST PUSH0 DUP4 GT PUSH2 0x788 JUMPI PUSH1 0x40 MLOAD PUSH32 0x8C379A000000000000000000000000000000000000000000000000000000000 DUP2 MSTORE PUSH1 0x4 ADD PUSH2 0x77F SWAP1 PUSH2 0x126E JUMP JUMPDEST PUSH1 0x40 MLOAD DUP1 SWAP2 SUB SWAP1 REVERT JUMPDEST DUP13 PUSH20 0xFFFFFFFFFFFFFFFFFFFFFFFFFFFFFFFFFFFFFFFF AND PUSH4 0x23B872DD CALLER DUP10 DUP9 PUSH1 0x40 MLOAD DUP5 PUSH4 0xFFFFFFFF AND PUSH1 0xE0 SHL DUP2 MSTORE PUSH1 0x4 ADD PUSH2 0x7C5 SWAP4 SWAP3 SWAP2 SWAP1 PUSH2 0x128C JUMP JUMPDEST PUSH1 0x20 PUSH1 0x40 MLOAD DUP1 DUP4 SUB DUP2 PUSH0 DUP8 GAS CALL ISZERO DUP1 ISZERO PUSH2 0x7E1 JUMPI RETURNDATASIZE PUSH0 PUSH0 RETURNDATACOPY RETURNDATASIZE PUSH0 REVERT JUMPDEST POP POP POP POP PUSH1 0x40 MLOAD RETURNDATASIZE PUSH1 0x1F NOT PUSH1 0x1F DUP3 ADD AND DUP3 ADD DUP1 PUSH1 0x40 MSTORE POP DUP2 ADD SWAP1 PUSH2 0x805 SWAP2 SWAP1 PUSH2 0x11F9 JUMP JUMPDEST POP DUP12 PUSH20 0xFFFFFFFFFFFFFFFFFFFFFFFFFFFFFFFFFFFFFFFF AND PUSH4 0x23B872DD CALLER DUP10 DUP8 PUSH1 0x40 MLOAD DUP5 PUSH4 0xFFFFFFFF AND PUSH1 0xE0 SHL DUP2 MSTORE PUSH1 0x4 ADD PUSH2 0x843 SWAP4 SWAP3 SWAP2 SWAP1 PUSH2 0x128C JUMP JUMPDEST PUSH1 0x20 PUSH1 0x40 MLOAD DUP1 DUP4 SUB DUP2 PUSH0 DUP8 GAS CALL ISZERO DUP1 ISZERO PUSH2 0x85F JUMPI RETURNDATASIZE PUSH0 PUSH0 RETURNDATACOPY RETURNDATASIZE PUSH0 REVERT JUMPDEST POP POP POP POP PUSH1 0x40 MLOAD RETURNDATASIZE PUSH1 0x1F NOT PUSH1 0x1F DUP3 ADD AND DUP3 ADD DUP1 PUSH1 0x40 MSTORE POP DUP2 ADD SWAP1 PUSH2 0x883 SWAP2 SWAP1 PUSH2 0x11F9 JUMP JUMPDEST POP DUP5 DUP2 PUSH0 ADD PUSH0 DUP3 DUP3 SLOAD PUSH2 0x896 SWAP2 SWAP1 PUSH2 0xEDA JUMP JUMPDEST SWAP3 POP POP DUP2 SWAP1 SSTORE POP DUP4 DUP2 PUSH1 0x1 ADD PUSH0 DUP3 DUP3 SLOAD PUSH2 0x8B0 SWAP2 SWAP1 PUSH2 0xEDA JUMP JUMPDEST SWAP3 POP POP DUP2 SWAP1 SSTORE POP DUP3 DUP2 PUSH1 0x2 ADD PUSH0 DUP3 DUP3 SLOAD PUSH2 0x8CA SWAP2 SWAP1 PUSH2 0xEDA JUMP JUMPDEST SWAP3 POP POP DUP2 SWAP1 SSTORE POP DUP3 PUSH1 0x1 PUSH0 DUP5 DUP2 MSTORE PUSH1 0x20 ADD SWAP1 DUP2 MSTORE PUSH1 0x20 ADD PUSH0 KECCAK256 PUSH0 CALLER PUSH20 0xFFFFFFFFFFFFFFFFFFFFFFFFFFFFFFFFFFFFFFFF AND PUSH20 0xFFFFFFFFFFFFFFFFFFFFFFFFFFFFFFFFFFFFFFFF AND DUP2 MSTORE PUSH1 0x20 ADD SWAP1 DUP2 MSTORE PUSH1 0x20 ADD PUSH0 KECCAK256 PUSH0 DUP3 DUP3 SLOAD PUSH2 0x92C SWAP2 SWAP1 PUSH2 0xEDA JUMP JUMPDEST SWAP3 POP POP DUP2 SWAP1 SSTORE POP POP POP SWAP9 POP SWAP9 POP SWAP9 SWAP6 POP POP POP POP POP POP JUMP JUMPDEST PUSH1 0x1 PUSH1 0x20 MSTORE DUP2 PUSH0 MSTORE PUSH1 0x40 PUSH0 KECCAK256 PUSH1 0x20 MSTORE DUP1 PUSH0 MSTORE PUSH1 0x40 PUSH0 KECCAK256 PUSH0 SWAP2 POP SWAP2 POP POP SLOAD DUP2 JUMP JUMPDEST PUSH0 PUSH0 PUSH0 DUP4 PUSH20 0xFFFFFFFFFFFFFFFFFFFFFFFFFFFFFFFFFFFFFFFF AND DUP6 PUSH20 0xFFFFFFFFFFFFFFFFFFFFFFFFFFFFFFFFFFFFFFFF AND LT PUSH2 0x9A0 JUMPI DUP4 DUP6 PUSH2 0x9A3 JUMP JUMPDEST DUP5 DUP5 JUMPDEST SWAP2 POP SWAP2 POP DUP2 DUP2 PUSH1 0x40 MLOAD PUSH1 0x20 ADD PUSH2 0x9BA SWAP3 SWAP2 SWAP1 PUSH2 0x1306 JUMP JUMPDEST PUSH1 0x40 MLOAD PUSH1 0x20 DUP2 DUP4 SUB SUB DUP2 MSTORE SWAP1 PUSH1 0x40 MSTORE DUP1 MLOAD SWAP1 PUSH1 0x20 ADD KECCAK256 SWAP3 POP POP POP SWAP3 SWAP2 POP POP JUMP JUMPDEST PUSH0 PUSH1 0x1 DUP3 GT PUSH2 0x9EB JUMPI DUP2 SWAP1 POP PUSH2 0xB6F JUMP JUMPDEST PUSH0 DUP3 SWAP1 POP PUSH0 PUSH1 0x1 SWAP1 POP PUSH17 0x100000000000000000000000000000000 DUP3 LT PUSH2 0xA1B JUMPI PUSH1 0x80 DUP3 SWAP1 SHR SWAP2 POP PUSH1 0x40 DUP2 SWAP1 SHL SWAP1 POP JUMPDEST PUSH9 0x10000000000000000 DUP3 LT PUSH2 0xA3A JUMPI PUSH1 0x40 DUP3 SWAP1 SHR SWAP2 POP PUSH1 0x20 DUP2 SWAP1 SHL SWAP1 POP JUMPDEST PUSH5 0x100000000 DUP3 LT PUSH2 0xA55 JUMPI PUSH1 0x20 DUP3 SWAP1 SHR SWAP2 POP PUSH1 0x10 DUP2 SWAP1 SHL SWAP1 POP JUMPDEST PUSH3 0x10000 DUP3 LT PUSH2 0xA6E JUMPI PUSH1 0x10 DUP3 SWAP1 SHR SWAP2 POP PUSH1 0x8 DUP2 SWAP1 SHL SWAP1 POP JUMPDEST PUSH2 0x100 DUP3 LT PUSH2 0xA86 JUMPI PUSH1 0x8 DUP3 SWAP1 SHR SWAP2 POP PUSH1 0x4 DUP2 SWAP1 SHL SWAP1 POP JUMPDEST PUSH1 0x10 DUP3 LT PUSH2 0xA9D JUMPI PUSH1 0x4 DUP3 SWAP1 SHR SWAP2 POP PUSH1 0x2 DUP2 SWAP1 SHL SWAP1 POP JUMPDEST PUSH1 0x4 DUP3 LT PUSH2 0xAAD JUMPI PUSH1 0x1 DUP2 SWAP1 SHL SWAP1 POP JUMPDEST PUSH1 0x1 DUP2 PUSH1 0x3 MUL SWAP1 SHR SWAP1 POP PUSH1 0x1 DUP2 DUP6 DUP2 PUSH2 0xAC9 JUMPI PUSH2 0xAC8 PUSH2 0x102E JUMP JUMPDEST JUMPDEST DIV DUP3 ADD SWAP1 SHR SWAP1 POP PUSH1 0x1 DUP2 DUP6 DUP2 PUSH2 0xAE2 JUMPI PUSH2 0xAE1 PUSH2 0x102E JUMP JUMPDEST JUMPDEST DIV DUP3 ADD SWAP1 SHR SWAP1 POP PUSH1 0x1 DUP2 DUP6 DUP2 PUSH2 0xAFB JUMPI PUSH2 0xAFA PUSH2 0x102E JUMP JUMPDEST JUMPDEST DIV DUP3 ADD SWAP1 SHR SWAP1 POP PUSH1 0x1 DUP2 DUP6 DUP2 PUSH2 0xB14 JUMPI PUSH2 0xB13 PUSH2 0x102E JUMP JUMPDEST JUMPDEST DIV DUP3 ADD SWAP1 SHR SWAP1 POP PUSH1 0x1 DUP2 DUP6 DUP2 PUSH2 0xB2D JUMPI PUSH2 0xB2C PUSH2 0x102E JUMP JUMPDEST JUMPDEST DIV DUP3 ADD SWAP1 SHR SWAP1 POP PUSH1 0x1 DUP2 DUP6 DUP2 PUSH2 0xB46 JUMPI PUSH2 0xB45 PUSH2 0x102E JUMP JUMPDEST JUMPDEST DIV DUP3 ADD SWAP1 SHR SWAP1 POP PUSH2 0xB68 DUP2 DUP6 DUP2 PUSH2 0xB60 JUMPI PUSH2 0xB5F PUSH2 0x102E JUMP JUMPDEST JUMPDEST DIV DUP3 GT PUSH2 0xB8A JUMP JUMPDEST DUP2 SUB SWAP3 POP POP POP JUMPDEST SWAP2 SWAP1 POP JUMP JUMPDEST PUSH0 PUSH2 0xB82 DUP3 DUP5 LT DUP5 DUP5 PUSH2 0xB95 JUMP JUMPDEST SWAP1 POP SWAP3 SWAP2 POP POP JUMP JUMPDEST PUSH0 DUP2 ISZERO ISZERO SWAP1 POP SWAP2 SWAP1 POP JUMP JUMPDEST PUSH0 PUSH2 0xB9F DUP5 PUSH2 0xB8A JUMP JUMPDEST DUP3 DUP5 XOR MUL DUP3 XOR SWAP1 POP SWAP4 SWAP3 POP POP POP JUMP JUMPDEST PUSH0 PUSH0 REVERT JUMPDEST PUSH0 PUSH20 0xFFFFFFFFFFFFFFFFFFFFFFFFFFFFFFFFFFFFFFFF DUP3 AND SWAP1 POP SWAP2 SWAP1 POP JUMP JUMPDEST PUSH0 PUSH2 0xBDB DUP3 PUSH2 0xBB2 JUMP JUMPDEST SWAP1 POP SWAP2 SWAP1 POP JUMP JUMPDEST PUSH2 0xBEB DUP2 PUSH2 0xBD1 JUMP JUMPDEST DUP2 EQ PUSH2 0xBF5 JUMPI PUSH0 PUSH0 REVERT JUMPDEST POP JUMP JUMPDEST PUSH0 DUP2 CALLDATALOAD SWAP1 POP PUSH2 0xC06 DUP2 PUSH2 0xBE2 JUMP JUMPDEST SWAP3 SWAP2 POP POP JUMP JUMPDEST PUSH0 DUP2 SWAP1 POP SWAP2 SWAP1 POP JUMP JUMPDEST PUSH2 0xC1E DUP2 PUSH2 0xC0C JUMP JUMPDEST DUP2 EQ PUSH2 0xC28 JUMPI PUSH0 PUSH0 REVERT JUMPDEST POP JUMP JUMPDEST PUSH0 DUP2 CALLDATALOAD SWAP1 POP PUSH2 0xC39 DUP2 PUSH2 0xC15 JUMP JUMPDEST SWAP3 SWAP2 POP POP JUMP JUMPDEST PUSH0 PUSH0 PUSH0 PUSH0 PUSH0 PUSH0 PUSH0 PUSH1 0xE0 DUP9 DUP11 SUB SLT ISZERO PUSH2 0xC5A JUMPI PUSH2 0xC59 PUSH2 0xBAE JUMP JUMPDEST JUMPDEST PUSH0 PUSH2 0xC67 DUP11 DUP3 DUP12 ADD PUSH2 0xBF8 JUMP JUMPDEST SWAP8 POP POP PUSH1 0x20 PUSH2 0xC78 DUP11 DUP3 DUP12 ADD PUSH2 0xBF8 JUMP JUMPDEST SWAP7 POP POP PUSH1 0x40 PUSH2 0xC89 DUP11 DUP3 DUP12 ADD PUSH2 0xC2B JUMP JUMPDEST SWAP6 POP POP PUSH1 0x60 PUSH2 0xC9A DUP11 DUP3 DUP12 ADD PUSH2 0xC2B JUMP JUMPDEST SWAP5 POP POP PUSH1 0x80 PUSH2 0xCAB DUP11 DUP3 DUP12 ADD PUSH2 0xC2B JUMP JUMPDEST SWAP4 POP POP PUSH1 0xA0 PUSH2 0xCBC DUP11 DUP3 DUP12 ADD PUSH2 0xBF8 JUMP JUMPDEST SWAP3 POP POP PUSH1 0xC0 PUSH2 0xCCD DUP11 DUP3 DUP12 ADD PUSH2 0xC2B JUMP JUMPDEST SWAP2 POP POP SWAP3 SWAP6 SWAP9 SWAP2 SWAP5 SWAP8 POP SWAP3 SWAP6 POP JUMP JUMPDEST PUSH2 0xCE5 DUP2 PUSH2 0xC0C JUMP JUMPDEST DUP3 MSTORE POP POP JUMP JUMPDEST PUSH0 PUSH1 0x40 DUP3 ADD SWAP1 POP PUSH2 0xCFE PUSH0 DUP4 ADD DUP6 PUSH2 0xCDC JUMP JUMPDEST PUSH2 0xD0B PUSH1 0x20 DUP4 ADD DUP5 PUSH2 0xCDC JUMP JUMPDEST SWAP4 SWAP3 POP POP POP JUMP JUMPDEST PUSH0 PUSH0 PUSH0 PUSH0 PUSH0 PUSH0 PUSH0 PUSH0 PUSH2 0x100 DUP10 DUP12 SUB SLT ISZERO PUSH2 0xD2F JUMPI PUSH2 0xD2E PUSH2 0xBAE JUMP JUMPDEST JUMPDEST PUSH0 PUSH2 0xD3C DUP12 DUP3 DUP13 ADD PUSH2 0xBF8 JUMP JUMPDEST SWAP9 POP POP PUSH1 0x20 PUSH2 0xD4D DUP12 DUP3 DUP13 ADD PUSH2 0xBF8 JUMP JUMPDEST SWAP8 POP POP PUSH1 0x40 PUSH2 0xD5E DUP12 DUP3 DUP13 ADD PUSH2 0xC2B JUMP JUMPDEST SWAP7 POP POP PUSH1 0x60 PUSH2 0xD6F DUP12 DUP3 DUP13 ADD PUSH2 0xC2B JUMP JUMPDEST SWAP6 POP POP PUSH1 0x80 PUSH2 0xD80 DUP12 DUP3 DUP13 ADD PUSH2 0xC2B JUMP JUMPDEST SWAP5 POP POP PUSH1 0xA0 PUSH2 0xD91 DUP12 DUP3 DUP13 ADD PUSH2 0xC2B JUMP JUMPDEST SWAP4 POP POP PUSH1 0xC0 PUSH2 0xDA2 DUP12 DUP3 DUP13 ADD PUSH2 0xBF8 JUMP JUMPDEST SWAP3 POP POP PUSH1 0xE0 PUSH2 0xDB3 DUP12 DUP3 DUP13 ADD PUSH2 0xC2B JUMP JUMPDEST SWAP2 POP POP SWAP3 SWAP6 SWAP9 POP SWAP3 SWAP6 SWAP9 SWAP1 SWAP4 SWAP7 POP JUMP JUMPDEST PUSH0 PUSH1 0x60 DUP3 ADD SWAP1 POP PUSH2 0xDD6 PUSH0 DUP4 ADD DUP7 PUSH2 0xCDC JUMP JUMPDEST PUSH2 0xDE3 PUSH1 0x20 DUP4 ADD DUP6 PUSH2 0xCDC JUMP JUMPDEST PUSH2 0xDF0 PUSH1 0x40 DUP4 ADD DUP5 PUSH2 0xCDC JUMP JUMPDEST SWAP5 SWAP4 POP POP POP POP JUMP JUMPDEST PUSH0 DUP2 SWAP1 POP SWAP2 SWAP1 POP JUMP JUMPDEST PUSH2 0xE0A DUP2 PUSH2 0xDF8 JUMP JUMPDEST DUP2 EQ PUSH2 0xE14 JUMPI PUSH0 PUSH0 REVERT JUMPDEST POP JUMP JUMPDEST PUSH0 DUP2 CALLDATALOAD SWAP1 POP PUSH2 0xE25 DUP2 PUSH2 0xE01 JUMP JUMPDEST SWAP3 SWAP2 POP POP JUMP JUMPDEST PUSH0 PUSH1 0x20 DUP3 DUP5 SUB SLT ISZERO PUSH2 0xE40 JUMPI PUSH2 0xE3F PUSH2 0xBAE JUMP JUMPDEST JUMPDEST PUSH0 PUSH2 0xE4D DUP5 DUP3 DUP6 ADD PUSH2 0xE17 JUMP JUMPDEST SWAP2 POP POP SWAP3 SWAP2 POP POP JUMP JUMPDEST PUSH0 PUSH0 PUSH1 0x40 DUP4 DUP6 SUB SLT ISZERO PUSH2 0xE6C JUMPI PUSH2 0xE6B PUSH2 0xBAE JUMP JUMPDEST JUMPDEST PUSH0 PUSH2 0xE79 DUP6 DUP3 DUP7 ADD PUSH2 0xE17 JUMP JUMPDEST SWAP3 POP POP PUSH1 0x20 PUSH2 0xE8A DUP6 DUP3 DUP7 ADD PUSH2 0xBF8 JUMP JUMPDEST SWAP2 POP POP SWAP3 POP SWAP3 SWAP1 POP JUMP JUMPDEST PUSH0 PUSH1 0x20 DUP3 ADD SWAP1 POP PUSH2 0xEA7 PUSH0 DUP4 ADD DUP5 PUSH2 0xCDC JUMP JUMPDEST SWAP3 SWAP2 POP POP JUMP JUMPDEST PUSH32 0x4E487B7100000000000000000000000000000000000000000000000000000000 PUSH0 MSTORE PUSH1 0x11 PUSH1 0x4 MSTORE PUSH1 0x24 PUSH0 REVERT JUMPDEST PUSH0 PUSH2 0xEE4 DUP3 PUSH2 0xC0C JUMP JUMPDEST SWAP2 POP PUSH2 0xEEF DUP4 PUSH2 0xC0C JUMP JUMPDEST SWAP3 POP DUP3 DUP3 ADD SWAP1 POP DUP1 DUP3 GT ISZERO PUSH2 0xF07 JUMPI PUSH2 0xF06 PUSH2 0xEAD JUMP JUMPDEST JUMPDEST SWAP3 SWAP2 POP POP JUMP JUMPDEST PUSH0 DUP3 DUP3 MSTORE PUSH1 0x20 DUP3 ADD SWAP1 POP SWAP3 SWAP2 POP POP JUMP JUMPDEST PUSH32 0x4578706972656400000000000000000000000000000000000000000000000000 PUSH0 DUP3 ADD MSTORE POP JUMP JUMPDEST PUSH0 PUSH2 0xF51 PUSH1 0x7 DUP4 PUSH2 0xF0D JUMP JUMPDEST SWAP2 POP PUSH2 0xF5C DUP3 PUSH2 0xF1D JUMP JUMPDEST PUSH1 0x20 DUP3 ADD SWAP1 POP SWAP2 SWAP1 POP JUMP JUMPDEST PUSH0 PUSH1 0x20 DUP3 ADD SWAP1 POP DUP2 DUP2 SUB PUSH0 DUP4 ADD MSTORE PUSH2 0xF7E DUP2 PUSH2 0xF45 JUMP JUMPDEST SWAP1 POP SWAP2 SWAP1 POP JUMP JUMPDEST PUSH32 0x4E6F7420656E6F756768204C5020746F6B656E73000000000000000000000000 PUSH0 DUP3 ADD MSTORE POP JUMP JUMPDEST PUSH0 PUSH2 0xFB9 PUSH1 0x14 DUP4 PUSH2 0xF0D JUMP JUMPDEST SWAP2 POP PUSH2 0xFC4 DUP3 PUSH2 0xF85 JUMP JUMPDEST PUSH1 0x20 DUP3 ADD SWAP1 POP SWAP2 SWAP1 POP JUMP JUMPDEST PUSH0 PUSH1 0x20 DUP3 ADD SWAP1 POP DUP2 DUP2 SUB PUSH0 DUP4 ADD MSTORE PUSH2 0xFE6 DUP2 PUSH2 0xFAD JUMP JUMPDEST SWAP1 POP SWAP2 SWAP1 POP JUMP JUMPDEST PUSH0 PUSH2 0xFF7 DUP3 PUSH2 0xC0C JUMP JUMPDEST SWAP2 POP PUSH2 0x1002 DUP4 PUSH2 0xC0C JUMP JUMPDEST SWAP3 POP DUP3 DUP3 MUL PUSH2 0x1010 DUP2 PUSH2 0xC0C JUMP JUMPDEST SWAP2 POP DUP3 DUP3 DIV DUP5 EQ DUP4 ISZERO OR PUSH2 0x1027 JUMPI PUSH2 0x1026 PUSH2 0xEAD JUMP JUMPDEST JUMPDEST POP SWAP3 SWAP2 POP POP JUMP JUMPDEST PUSH32 0x4E487B7100000000000000000000000000000000000000000000000000000000 PUSH0 MSTORE PUSH1 0x12 PUSH1 0x4 MSTORE PUSH1 0x24 PUSH0 REVERT JUMPDEST PUSH0 PUSH2 0x1065 DUP3 PUSH2 0xC0C JUMP JUMPDEST SWAP2 POP PUSH2 0x1070 DUP4 PUSH2 0xC0C JUMP JUMPDEST SWAP3 POP DUP3 PUSH2 0x1080 JUMPI PUSH2 0x107F PUSH2 0x102E JUMP JUMPDEST JUMPDEST DUP3 DUP3 DIV SWAP1 POP SWAP3 SWAP2 POP POP JUMP JUMPDEST PUSH32 0x536C697070616765204100000000000000000000000000000000000000000000 PUSH0 DUP3 ADD MSTORE POP JUMP JUMPDEST PUSH0 PUSH2 0x10BF PUSH1 0xA DUP4 PUSH2 0xF0D JUMP JUMPDEST SWAP2 POP PUSH2 0x10CA DUP3 PUSH2 0x108B JUMP JUMPDEST PUSH1 0x20 DUP3 ADD SWAP1 POP SWAP2 SWAP1 POP JUMP JUMPDEST PUSH0 PUSH1 0x20 DUP3 ADD SWAP1 POP DUP2 DUP2 SUB PUSH0 DUP4 ADD MSTORE PUSH2 0x10EC DUP2 PUSH2 0x10B3 JUMP JUMPDEST SWAP1 POP SWAP2 SWAP1 POP JUMP JUMPDEST PUSH32 0x536C697070616765204200000000000000000000000000000000000000000000 PUSH0 DUP3 ADD MSTORE POP JUMP JUMPDEST PUSH0 PUSH2 0x1127 PUSH1 0xA DUP4 PUSH2 0xF0D JUMP JUMPDEST SWAP2 POP PUSH2 0x1132 DUP3 PUSH2 0x10F3 JUMP JUMPDEST PUSH1 0x20 DUP3 ADD SWAP1 POP SWAP2 SWAP1 POP JUMP JUMPDEST PUSH0 PUSH1 0x20 DUP3 ADD SWAP1 POP DUP2 DUP2 SUB PUSH0 DUP4 ADD MSTORE PUSH2 0x1154 DUP2 PUSH2 0x111B JUMP JUMPDEST SWAP1 POP SWAP2 SWAP1 POP JUMP JUMPDEST PUSH0 PUSH2 0x1165 DUP3 PUSH2 0xC0C JUMP JUMPDEST SWAP2 POP PUSH2 0x1170 DUP4 PUSH2 0xC0C JUMP JUMPDEST SWAP3 POP DUP3 DUP3 SUB SWAP1 POP DUP2 DUP2 GT ISZERO PUSH2 0x1188 JUMPI PUSH2 0x1187 PUSH2 0xEAD JUMP JUMPDEST JUMPDEST SWAP3 SWAP2 POP POP JUMP JUMPDEST PUSH2 0x1197 DUP2 PUSH2 0xBD1 JUMP JUMPDEST DUP3 MSTORE POP POP JUMP JUMPDEST PUSH0 PUSH1 0x40 DUP3 ADD SWAP1 POP PUSH2 0x11B0 PUSH0 DUP4 ADD DUP6 PUSH2 0x118E JUMP JUMPDEST PUSH2 0x11BD PUSH1 0x20 DUP4 ADD DUP5 PUSH2 0xCDC JUMP JUMPDEST SWAP4 SWAP3 POP POP POP JUMP JUMPDEST PUSH0 DUP2 ISZERO ISZERO SWAP1 POP SWAP2 SWAP1 POP JUMP JUMPDEST PUSH2 0x11D8 DUP2 PUSH2 0x11C4 JUMP JUMPDEST DUP2 EQ PUSH2 0x11E2 JUMPI PUSH0 PUSH0 REVERT JUMPDEST POP JUMP JUMPDEST PUSH0 DUP2 MLOAD SWAP1 POP PUSH2 0x11F3 DUP2 PUSH2 0x11CF JUMP JUMPDEST SWAP3 SWAP2 POP POP JUMP JUMPDEST PUSH0 PUSH1 0x20 DUP3 DUP5 SUB SLT ISZERO PUSH2 0x120E JUMPI PUSH2 0x120D PUSH2 0xBAE JUMP JUMPDEST JUMPDEST PUSH0 PUSH2 0x121B DUP5 DUP3 DUP6 ADD PUSH2 0x11E5 JUMP JUMPDEST SWAP2 POP POP SWAP3 SWAP2 POP POP JUMP JUMPDEST PUSH32 0x4C49513D30000000000000000000000000000000000000000000000000000000 PUSH0 DUP3 ADD MSTORE POP JUMP JUMPDEST PUSH0 PUSH2 0x1258 PUSH1 0x5 DUP4 PUSH2 0xF0D JUMP JUMPDEST SWAP2 POP PUSH2 0x1263 DUP3 PUSH2 0x1224 JUMP JUMPDEST PUSH1 0x20 DUP3 ADD SWAP1 POP SWAP2 SWAP1 POP JUMP JUMPDEST PUSH0 PUSH1 0x20 DUP3 ADD SWAP1 POP DUP2 DUP2 SUB PUSH0 DUP4 ADD MSTORE PUSH2 0x1285 DUP2 PUSH2 0x124C JUMP JUMPDEST SWAP1 POP SWAP2 SWAP1 POP JUMP JUMPDEST PUSH0 PUSH1 0x60 DUP3 ADD SWAP1 POP PUSH2 0x129F PUSH0 DUP4 ADD DUP7 PUSH2 0x118E JUMP JUMPDEST PUSH2 0x12AC PUSH1 0x20 DUP4 ADD DUP6 PUSH2 0x118E JUMP JUMPDEST PUSH2 0x12B9 PUSH1 0x40 DUP4 ADD DUP5 PUSH2 0xCDC JUMP JUMPDEST SWAP5 SWAP4 POP POP POP POP JUMP JUMPDEST PUSH0 DUP2 PUSH1 0x60 SHL SWAP1 POP SWAP2 SWAP1 POP JUMP JUMPDEST PUSH0 PUSH2 0x12D7 DUP3 PUSH2 0x12C1 JUMP JUMPDEST SWAP1 POP SWAP2 SWAP1 POP JUMP JUMPDEST PUSH0 PUSH2 0x12E8 DUP3 PUSH2 0x12CD JUMP JUMPDEST SWAP1 POP SWAP2 SWAP1 POP JUMP JUMPDEST PUSH2 0x1300 PUSH2 0x12FB DUP3 PUSH2 0xBD1 JUMP JUMPDEST PUSH2 0x12DE JUMP JUMPDEST DUP3 MSTORE POP POP JUMP JUMPDEST PUSH0 PUSH2 0x1311 DUP3 DUP6 PUSH2 0x12EF JUMP JUMPDEST PUSH1 0x14 DUP3 ADD SWAP2 POP PUSH2 0x1321 DUP3 DUP5 PUSH2 0x12EF JUMP JUMPDEST PUSH1 0x14 DUP3 ADD SWAP2 POP DUP2 SWAP1 POP SWAP4 SWAP3 POP POP POP JUMP INVALID LOG2 PUSH5 0x6970667358 0x22 SLT KECCAK256 DUP13 PUSH28 0xDF1141CDE75F642BAC4B7544F7883FA06CB8F8A331792ADBB89A3618 SDIV 0x26 PUSH5 0x736F6C6343 STOP ADDMOD 0x1E STOP CALLER "
				},
				"gasEstimates": {
					"creation": {
						"codeDepositCost": "993400",
						"executionCost": "1032",
						"totalCost": "994432"
					},
					"external": {
						"addLiquidity(address,address,uint256,uint256,uint256,uint256,address,uint256)": "infinite",
						"addLiquidityWithTtl(address,address,uint256,uint256,uint256,uint256,address,uint256)": "infinite",
						"lpBalance(bytes32,address)": "3121",
						"pools(bytes32)": "infinite",
						"removeLiquidity(address,address,uint256,uint256,uint256,address,uint256)": "infinite",
						"removeLiquidityWithTtl(address,address,uint256,uint256,uint256,address,uint256)": "infinite"
					},
					"internal": {
						"_key(address,address)": "infinite"
					}
				},
				"methodIdentifiers": {
					"addLiquidity(address,address,uint256,uint256,uint256,uint256,address,uint256)": "e8e33700",
					"addLiquidityWithTtl(address,address,uint256,uint256,uint256,uint256,address,uint256)": "5c923960",
					"lpBalance(bytes32,address)": "f4e3f766",
					"pools(bytes32)": "b5217bb4",
					"removeLiquidity(address,address,uint256,uint256,uint256,address,uint256)": "baa2abde",
					"removeLiquidityWithTtl(address,address,uint256,uint256,uint256,address,uint256)": "0760eaec"
				}
			},
			"storageLayout": {
				"storage": [
					{
						"astId": 3534,
						"contract": "SimpleSwap.sol:SimpleSwap",
						"label": "pools",
						"offset": 0,
						"slot": "0",
						"type": "t_mapping(t_bytes32,t_struct(Pool)3529_storage)"
					},
					{
						"astId": 3540,
						"contract": "SimpleSwap.sol:SimpleSwap",
						"label": "lpBalance",
						"offset": 0,
						"slot": "1",
						"type": "t_mapping(t_bytes32,t_mapping(t_address,t_uint256))"
					}
				],
				"types": {
					"t_address": {
						"encoding": "inplace",
						"label": "address",
						"numberOfBytes": "20"
					},
					"t_bytes32": {
						"encoding": "inplace",
						"label": "bytes32",
						"numberOfBytes": "32"
					},
					"t_mapping(t_address,t_uint256)": {
						"encoding": "mapping",
						"key": "t_address",
						"label": "mapping(address => uint256)",
						"numberOfBytes": "32",
						"value": "t_uint256"
					},
					"t_mapping(t_bytes32,t_mapping(t_address,t_uint256))": {
						"encoding": "mapping",
						"key": "t_bytes32",
						"label": "mapping(bytes32 => mapping(address => uint256))",
						"numberOfBytes": "32",
						"value": "t_mapping(t_address,t_uint256)"
					},
					"t_mapping(t_bytes32,t_struct(Pool)3529_storage)": {
						"encoding": "mapping",
						"key": "t_bytes32",
						"label": "mapping(bytes32 => struct SimpleSwap.Pool)",
						"numberOfBytes": "32",
						"value": "t_struct(Pool)3529_storage"
					},
					"t_struct(Pool)3529_storage": {
						"encoding": "inplace",
						"label": "struct SimpleSwap.Pool",
						"members": [
							{
								"astId": 3524,
								"contract": "SimpleSwap.sol:SimpleSwap",
								"label": "reserveA",
								"offset": 0,
								"slot": "0",
								"type": "t_uint256"
							},
							{
								"astId": 3526,
								"contract": "SimpleSwap.sol:SimpleSwap",
								"label": "reserveB",
								"offset": 0,
								"slot": "1",
								"type": "t_uint256"
							},
							{
								"astId": 3528,
								"contract": "SimpleSwap.sol:SimpleSwap",
								"label": "totalLiquidity",
								"offset": 0,
								"slot": "2",
								"type": "t_uint256"
							}
						],
						"numberOfBytes": "96"
					},
					"t_uint256": {
						"encoding": "inplace",
						"label": "uint256",
						"numberOfBytes": "32"
					}
				}
			},
			"userdoc": {
				"kind": "user",
				"methods": {},
				"version": 1
			}
		}
	}
}