{
	"data": {
		"bytecode": {
			"linkReferences": {},
			"object": "6080604052348015600e575f5ffd5b50610e9a8061001c5f395ff3fe608060405234801561000f575f5ffd5b506004361061003f575f3560e01c8063b5217bb414610043578063e8e3370014610075578063f4e3f766146100a7575b5f5ffd5b61005d600480360381019061005891906107ce565b6100d7565b60405161006c93929190610811565b60405180910390f35b61008f600480360381019061008a91906108ca565b6100fc565b60405161009e93929190610811565b60405180910390f35b6100c160048036038101906100bc919061097b565b610503565b6040516100ce91906109b9565b60405180910390f35b5f602052805f5260405f205f91509050805f0154908060010154908060020154905083565b5f5f5f83421115610142576040517f08c379a000000000000000000000000000000000000000000000000000000000815260040161013990610a2c565b60405180910390fd5b5f8911801561015057505f88115b61018f576040517f08c379a000000000000000000000000000000000000000000000000000000000815260040161018690610a94565b60405180910390fd5b5f61019a8c8c610523565b90505f5f5f8381526020019081526020015f2090505f8160020154036101db578a94508993506101d484866101cf9190610adf565b6105c3565b9250610306565b5f815f015482600101548d6101f09190610adf565b6101fa9190610b4d565b90508a81116102515788811015610246576040517f08c379a000000000000000000000000000000000000000000000000000000000815260040161023d90610bc7565b60405180910390fd5b8b95508094506102bd565b5f8260010154835f01548d6102669190610adf565b6102709190610b4d565b90508a8110156102b5576040517f08c379a00000000000000000000000000000000000000000000000000000000081526004016102ac90610c2f565b60405180910390fd5b8096508b9550505b610302825f01548360020154886102d49190610adf565b6102de9190610b4d565b83600101548460020154886102f39190610adf565b6102fd9190610b4d565b61075d565b9350505b5f8311610348576040517f08c379a000000000000000000000000000000000000000000000000000000000815260040161033f90610c97565b60405180910390fd5b8c73ffffffffffffffffffffffffffffffffffffffff166323b872dd3330886040518463ffffffff1660e01b815260040161038593929190610cc4565b6020604051808303815f875af11580156103a1573d5f5f3e3d5ffd5b505050506040513d601f19601f820116820180604052508101906103c59190610d2e565b508b73ffffffffffffffffffffffffffffffffffffffff166323b872dd3330876040518463ffffffff1660e01b815260040161040393929190610cc4565b6020604051808303815f875af115801561041f573d5f5f3e3d5ffd5b505050506040513d601f19601f820116820180604052508101906104439190610d2e565b5084815f015f8282546104569190610d59565b9250508190555083816001015f8282546104709190610d59565b9250508190555082816002015f82825461048a9190610d59565b925050819055508260015f8481526020019081526020015f205f8973ffffffffffffffffffffffffffffffffffffffff1673ffffffffffffffffffffffffffffffffffffffff1681526020019081526020015f205f8282546104ec9190610d59565b925050819055505050985098509895505050505050565b6001602052815f5260405f20602052805f5260405f205f91509150505481565b5f8173ffffffffffffffffffffffffffffffffffffffff168373ffffffffffffffffffffffffffffffffffffffff1610610592576040517f08c379a000000000000000000000000000000000000000000000000000000000815260040161058990610dd6565b60405180910390fd5b82826040516020016105a5929190610e39565b60405160208183030381529060405280519060200120905092915050565b5f600182116105d457819050610758565b5f8290505f60019050700100000000000000000000000000000000821061060457608082901c9150604081901b90505b68010000000000000000821061062357604082901c9150602081901b90505b640100000000821061063e57602082901c9150601081901b90505b62010000821061065757601082901c9150600881901b90505b610100821061066f57600882901c9150600481901b90505b6010821061068657600482901c9150600281901b90505b6004821061069657600181901b90505b600181600302901c905060018185816106b2576106b1610b20565b5b048201901c905060018185816106cb576106ca610b20565b5b048201901c905060018185816106e4576106e3610b20565b5b048201901c905060018185816106fd576106fc610b20565b5b048201901c9050600181858161071657610715610b20565b5b048201901c9050600181858161072f5761072e610b20565b5b048201901c905061075181858161074957610748610b20565b5b048211610773565b8103925050505b919050565b5f61076b828410848461077e565b905092915050565b5f8115159050919050565b5f61078884610773565b82841802821890509392505050565b5f5ffd5b5f819050919050565b6107ad8161079b565b81146107b7575f5ffd5b50565b5f813590506107c8816107a4565b92915050565b5f602082840312156107e3576107e2610797565b5b5f6107f0848285016107ba565b91505092915050565b5f819050919050565b61080b816107f9565b82525050565b5f6060820190506108245f830186610802565b6108316020830185610802565b61083e6040830184610802565b949350505050565b5f73ffffffffffffffffffffffffffffffffffffffff82169050919050565b5f61086f82610846565b9050919050565b61087f81610865565b8114610889575f5ffd5b50565b5f8135905061089a81610876565b92915050565b6108a9816107f9565b81146108b3575f5ffd5b50565b5f813590506108c4816108a0565b92915050565b5f5f5f5f5f5f5f5f610100898b0312156108e7576108e6610797565b5b5f6108f48b828c0161088c565b98505060206109058b828c0161088c565b97505060406109168b828c016108b6565b96505060606109278b828c016108b6565b95505060806109388b828c016108b6565b94505060a06109498b828c016108b6565b93505060c061095a8b828c0161088c565b92505060e061096b8b828c016108b6565b9150509295985092959890939650565b5f5f6040838503121561099157610990610797565b5b5f61099e858286016107ba565b92505060206109af8582860161088c565b9150509250929050565b5f6020820190506109cc5f830184610802565b92915050565b5f82825260208201905092915050565b7f45787069726564000000000000000000000000000000000000000000000000005f82015250565b5f610a166007836109d2565b9150610a21826109e2565b602082019050919050565b5f6020820190508181035f830152610a4381610a0a565b9050919050565b7f5a65726f20616d6f756e747300000000000000000000000000000000000000005f82015250565b5f610a7e600c836109d2565b9150610a8982610a4a565b602082019050919050565b5f6020820190508181035f830152610aab81610a72565b9050919050565b7f4e487b71000000000000000000000000000000000000000000000000000000005f52601160045260245ffd5b5f610ae9826107f9565b9150610af4836107f9565b9250828202610b02816107f9565b91508282048414831517610b1957610b18610ab2565b5b5092915050565b7f4e487b71000000000000000000000000000000000000000000000000000000005f52601260045260245ffd5b5f610b57826107f9565b9150610b62836107f9565b925082610b7257610b71610b20565b5b828204905092915050565b7f536c6970706167652042000000000000000000000000000000000000000000005f82015250565b5f610bb1600a836109d2565b9150610bbc82610b7d565b602082019050919050565b5f6020820190508181035f830152610bde81610ba5565b9050919050565b7f536c6970706167652041000000000000000000000000000000000000000000005f82015250565b5f610c19600a836109d2565b9150610c2482610be5565b602082019050919050565b5f6020820190508181035f830152610c4681610c0d565b9050919050565b7f4c49513d300000000000000000000000000000000000000000000000000000005f82015250565b5f610c816005836109d2565b9150610c8c82610c4d565b602082019050919050565b5f6020820190508181035f830152610cae81610c75565b9050919050565b610cbe81610865565b82525050565b5f606082019050610cd75f830186610cb5565b610ce46020830185610cb5565b610cf16040830184610802565b949350505050565b5f8115159050919050565b610d0d81610cf9565b8114610d17575f5ffd5b50565b5f81519050610d2881610d04565b92915050565b5f60208284031215610d4357610d42610797565b5b5f610d5084828501610d1a565b91505092915050565b5f610d63826107f9565b9150610d6e836107f9565b9250828201905080821115610d8657610d85610ab2565b5b92915050565b7f5061737320746f6b656e73206f726465726564000000000000000000000000005f82015250565b5f610dc06013836109d2565b9150610dcb82610d8c565b602082019050919050565b5f6020820190508181035f830152610ded81610db4565b9050919050565b5f8160601b9050919050565b5f610e0a82610df4565b9050919050565b5f610e1b82610e00565b9050919050565b610e33610e2e82610865565b610e11565b82525050565b5f610e448285610e22565b601482019150610e548284610e22565b601482019150819050939250505056fea2646970667358221220646822c02b9a8f2f90a7f48191e75a9af1ddf883c9a21b6a5f979417c1f5392464736f6c634300081e0033",
			"opcodes": "PUSH1 0x80 PUSH1 0x40 MSTORE CALLVALUE DUP1 ISZERO PUSH1 0xE JUMPI PUSH0 PUSH0 REVERT JUMPDEST POP PUSH2 0xE9A DUP1 PUSH2 0x1C PUSH0 CODECOPY PUSH0 RETURN INVALID PUSH1 0x80 PUSH1 0x40 MSTORE CALLVALUE DUP1 ISZERO PUSH2 0xF JUMPI PUSH0 PUSH0 REVERT JUMPDEST POP PUSH1 0x4 CALLDATASIZE LT PUSH2 0x3F JUMPI PUSH0 CALLDATALOAD PUSH1 0xE0 SHR DUP1 PUSH4 0xB5217BB4 EQ PUSH2 0x43 JUMPI DUP1 PUSH4 0xE8E33700 EQ PUSH2 0x75 JUMPI DUP1 PUSH4 0xF4E3F766 EQ PUSH2 0xA7 JUMPI JUMPDEST PUSH0 PUSH0 REVERT JUMPDEST PUSH2 0x5D PUSH1 0x4 DUP1 CALLDATASIZE SUB DUP2 ADD SWAP1 PUSH2 0x58 SWAP2 SWAP1 PUSH2 0x7CE JUMP JUMPDEST PUSH2 0xD7 JUMP JUMPDEST PUSH1 0x40 MLOAD PUSH2 0x6C SWAP4 SWAP3 SWAP2 SWAP1 PUSH2 0x811 JUMP JUMPDEST PUSH1 0x40 MLOAD DUP1 SWAP2 SUB SWAP1 RETURN JUMPDEST PUSH2 0x8F PUSH1 0x4 DUP1 CALLDATASIZE SUB DUP2 ADD SWAP1 PUSH2 0x8A SWAP2 SWAP1 PUSH2 0x8CA JUMP JUMPDEST PUSH2 0xFC JUMP JUMPDEST PUSH1 0x40 MLOAD PUSH2 0x9E SWAP4 SWAP3 SWAP2 SWAP1 PUSH2 0x811 JUMP JUMPDEST PUSH1 0x40 MLOAD DUP1 SWAP2 SUB SWAP1 RETURN JUMPDEST PUSH2 0xC1 PUSH1 0x4 DUP1 CALLDATASIZE SUB DUP2 ADD SWAP1 PUSH2 0xBC SWAP2 SWAP1 PUSH2 0x97B JUMP JUMPDEST PUSH2 0x503 JUMP JUMPDEST PUSH1 0x40 MLOAD PUSH2 0xCE SWAP2 SWAP1 PUSH2 0x9B9 JUMP JUMPDEST PUSH1 0x40 MLOAD DUP1 SWAP2 SUB SWAP1 RETURN JUMPDEST PUSH0 PUSH1 0x20 MSTORE DUP1 PUSH0 MSTORE PUSH1 0x40 PUSH0 KECCAK256 PUSH0 SWAP2 POP SWAP1 POP DUP1 PUSH0 ADD SLOAD SWAP1 DUP1 PUSH1 0x1 ADD SLOAD SWAP1 DUP1 PUSH1 0x2 ADD SLOAD SWAP1 POP DUP4 JUMP JUMPDEST PUSH0 PUSH0 PUSH0 DUP4 TIMESTAMP GT ISZERO PUSH2 0x142 JUMPI PUSH1 0x40 MLOAD PUSH32 0x8C379A000000000000000000000000000000000000000000000000000000000 DUP2 MSTORE PUSH1 0x4 ADD PUSH2 0x139 SWAP1 PUSH2 0xA2C JUMP JUMPDEST PUSH1 0x40 MLOAD DUP1 SWAP2 SUB SWAP1 REVERT JUMPDEST PUSH0 DUP10 GT DUP1 ISZERO PUSH2 0x150 JUMPI POP PUSH0 DUP9 GT JUMPDEST PUSH2 0x18F JUMPI PUSH1 0x40 MLOAD PUSH32 0x8C379A000000000000000000000000000000000000000000000000000000000 DUP2 MSTORE PUSH1 0x4 ADD PUSH2 0x186 SWAP1 PUSH2 0xA94 JUMP JUMPDEST PUSH1 0x40 MLOAD DUP1 SWAP2 SUB SWAP1 REVERT JUMPDEST PUSH0 PUSH2 0x19A DUP13 DUP13 PUSH2 0x523 JUMP JUMPDEST SWAP1 POP PUSH0 PUSH0 PUSH0 DUP4 DUP2 MSTORE PUSH1 0x20 ADD SWAP1 DUP2 MSTORE PUSH1 0x20 ADD PUSH0 KECCAK256 SWAP1 POP PUSH0 DUP2 PUSH1 0x2 ADD SLOAD SUB PUSH2 0x1DB JUMPI DUP11 SWAP5 POP DUP10 SWAP4 POP PUSH2 0x1D4 DUP5 DUP7 PUSH2 0x1CF SWAP2 SWAP1 PUSH2 0xADF JUMP JUMPDEST PUSH2 0x5C3 JUMP JUMPDEST SWAP3 POP PUSH2 0x306 JUMP JUMPDEST PUSH0 DUP2 PUSH0 ADD SLOAD DUP3 PUSH1 0x1 ADD SLOAD DUP14 PUSH2 0x1F0 SWAP2 SWAP1 PUSH2 0xADF JUMP JUMPDEST PUSH2 0x1FA SWAP2 SWAP1 PUSH2 0xB4D JUMP JUMPDEST SWAP1 POP DUP11 DUP2 GT PUSH2 0x251 JUMPI DUP9 DUP2 LT ISZERO PUSH2 0x246 JUMPI PUSH1 0x40 MLOAD PUSH32 0x8C379A000000000000000000000000000000000000000000000000000000000 DUP2 MSTORE PUSH1 0x4 ADD PUSH2 0x23D SWAP1 PUSH2 0xBC7 JUMP JUMPDEST PUSH1 0x40 MLOAD DUP1 SWAP2 SUB SWAP1 REVERT JUMPDEST DUP12 SWAP6 POP DUP1 SWAP5 POP PUSH2 0x2BD JUMP JUMPDEST PUSH0 DUP3 PUSH1 0x1 ADD SLOAD DUP4 PUSH0 ADD SLOAD DUP14 PUSH2 0x266 SWAP2 SWAP1 PUSH2 0xADF JUMP JUMPDEST PUSH2 0x270 SWAP2 SWAP1 PUSH2 0xB4D JUMP JUMPDEST SWAP1 POP DUP11 DUP2 LT ISZERO PUSH2 0x2B5 JUMPI PUSH1 0x40 MLOAD PUSH32 0x8C379A000000000000000000000000000000000000000000000000000000000 DUP2 MSTORE PUSH1 0x4 ADD PUSH2 0x2AC SWAP1 PUSH2 0xC2F JUMP JUMPDEST PUSH1 0x40 MLOAD DUP1 SWAP2 SUB SWAP1 REVERT JUMPDEST DUP1 SWAP7 POP DUP12 SWAP6 POP POP JUMPDEST PUSH2 0x302 DUP3 PUSH0 ADD SLOAD DUP4 PUSH1 0x2 ADD SLOAD DUP9 PUSH2 0x2D4 SWAP2 SWAP1 PUSH2 0xADF JUMP JUMPDEST PUSH2 0x2DE SWAP2 SWAP1 PUSH2 0xB4D JUMP JUMPDEST DUP4 PUSH1 0x1 ADD SLOAD DUP5 PUSH1 0x2 ADD SLOAD DUP9 PUSH2 0x2F3 SWAP2 SWAP1 PUSH2 0xADF JUMP JUMPDEST PUSH2 0x2FD SWAP2 SWAP1 PUSH2 0xB4D JUMP JUMPDEST PUSH2 0x75D JUMP JUMPDEST SWAP4 POP POP JUMPDEST PUSH0 DUP4 GT PUSH2 0x348 JUMPI PUSH1 0x40 MLOAD PUSH32 0x8C379A000000000000000000000000000000000000000000000000000000000 DUP2 MSTORE PUSH1 0x4 ADD PUSH2 0x33F SWAP1 PUSH2 0xC97 JUMP JUMPDEST PUSH1 0x40 MLOAD DUP1 SWAP2 SUB SWAP1 REVERT JUMPDEST DUP13 PUSH20 0xFFFFFFFFFFFFFFFFFFFFFFFFFFFFFFFFFFFFFFFF AND PUSH4 0x23B872DD CALLER ADDRESS DUP9 PUSH1 0x40 MLOAD DUP5 PUSH4 0xFFFFFFFF AND PUSH1 0xE0 SHL DUP2 MSTORE PUSH1 0x4 ADD PUSH2 0x385 SWAP4 SWAP3 SWAP2 SWAP1 PUSH2 0xCC4 JUMP JUMPDEST PUSH1 0x20 PUSH1 0x40 MLOAD DUP1 DUP4 SUB DUP2 PUSH0 DUP8 GAS CALL ISZERO DUP1 ISZERO PUSH2 0x3A1 JUMPI RETURNDATASIZE PUSH0 PUSH0 RETURNDATACOPY RETURNDATASIZE PUSH0 REVERT JUMPDEST POP POP POP POP PUSH1 0x40 MLOAD RETURNDATASIZE PUSH1 0x1F NOT PUSH1 0x1F DUP3 ADD AND DUP3 ADD DUP1 PUSH1 0x40 MSTORE POP DUP2 ADD SWAP1 PUSH2 0x3C5 SWAP2 SWAP1 PUSH2 0xD2E JUMP JUMPDEST POP DUP12 PUSH20 0xFFFFFFFFFFFFFFFFFFFFFFFFFFFFFFFFFFFFFFFF AND PUSH4 0x23B872DD CALLER ADDRESS DUP8 PUSH1 0x40 MLOAD DUP5 PUSH4 0xFFFFFFFF AND PUSH1 0xE0 SHL DUP2 MSTORE PUSH1 0x4 ADD PUSH2 0x403 SWAP4 SWAP3 SWAP2 SWAP1 PUSH2 0xCC4 JUMP JUMPDEST PUSH1 0x20 PUSH1 0x40 MLOAD DUP1 DUP4 SUB DUP2 PUSH0 DUP8 GAS CALL ISZERO DUP1 ISZERO PUSH2 0x41F JUMPI RETURNDATASIZE PUSH0 PUSH0 RETURNDATACOPY RETURNDATASIZE PUSH0 REVERT JUMPDEST POP POP POP POP PUSH1 0x40 MLOAD RETURNDATASIZE PUSH1 0x1F NOT PUSH1 0x1F DUP3 ADD AND DUP3 ADD DUP1 PUSH1 0x40 MSTORE POP DUP2 ADD SWAP1 PUSH2 0x443 SWAP2 SWAP1 PUSH2 0xD2E JUMP JUMPDEST POP DUP5 DUP2 PUSH0 ADD PUSH0 DUP3 DUP3 SLOAD PUSH2 0x456 SWAP2 SWAP1 PUSH2 0xD59 JUMP JUMPDEST SWAP3 POP POP DUP2 SWAP1 SSTORE POP DUP4 DUP2 PUSH1 0x1 ADD PUSH0 DUP3 DUP3 SLOAD PUSH2 0x470 SWAP2 SWAP1 PUSH2 0xD59 JUMP JUMPDEST SWAP3 POP POP DUP2 SWAP1 SSTORE POP DUP3 DUP2 PUSH1 0x2 ADD PUSH0 DUP3 DUP3 SLOAD PUSH2 0x48A SWAP2 SWAP1 PUSH2 0xD59 JUMP JUMPDEST SWAP3 POP POP DUP2 SWAP1 SSTORE POP DUP3 PUSH1 0x1 PUSH0 DUP5 DUP2 MSTORE PUSH1 0x20 ADD SWAP1 DUP2 MSTORE PUSH1 0x20 ADD PUSH0 KECCAK256 PUSH0 DUP10 PUSH20 0xFFFFFFFFFFFFFFFFFFFFFFFFFFFFFFFFFFFFFFFF AND PUSH20 0xFFFFFFFFFFFFFFFFFFFFFFFFFFFFFFFFFFFFFFFF AND DUP2 MSTORE PUSH1 0x20 ADD SWAP1 DUP2 MSTORE PUSH1 0x20 ADD PUSH0 KECCAK256 PUSH0 DUP3 DUP3 SLOAD PUSH2 0x4EC SWAP2 SWAP1 PUSH2 0xD59 JUMP JUMPDEST SWAP3 POP POP DUP2 SWAP1 SSTORE POP POP POP SWAP9 POP SWAP9 POP SWAP9 SWAP6 POP POP POP POP POP POP JUMP JUMPDEST PUSH1 0x1 PUSH1 0x20 MSTORE DUP2 PUSH0 MSTORE PUSH1 0x40 PUSH0 KECCAK256 PUSH1 0x20 MSTORE DUP1 PUSH0 MSTORE PUSH1 0x40 PUSH0 KECCAK256 PUSH0 SWAP2 POP SWAP2 POP POP SLOAD DUP2 JUMP JUMPDEST PUSH0 DUP2 PUSH20 0xFFFFFFFFFFFFFFFFFFFFFFFFFFFFFFFFFFFFFFFF AND DUP4 PUSH20 0xFFFFFFFFFFFFFFFFFFFFFFFFFFFFFFFFFFFFFFFF AND LT PUSH2 0x592 JUMPI PUSH1 0x40 MLOAD PUSH32 0x8C379A000000000000000000000000000000000000000000000000000000000 DUP2 MSTORE PUSH1 0x4 ADD PUSH2 0x589 SWAP1 PUSH2 0xDD6 JUMP JUMPDEST PUSH1 0x40 MLOAD DUP1 SWAP2 SUB SWAP1 REVERT JUMPDEST DUP3 DUP3 PUSH1 0x40 MLOAD PUSH1 0x20 ADD PUSH2 0x5A5 SWAP3 SWAP2 SWAP1 PUSH2 0xE39 JUMP JUMPDEST PUSH1 0x40 MLOAD PUSH1 0x20 DUP2 DUP4 SUB SUB DUP2 MSTORE SWAP1 PUSH1 0x40 MSTORE DUP1 MLOAD SWAP1 PUSH1 0x20 ADD KECCAK256 SWAP1 POP SWAP3 SWAP2 POP POP JUMP JUMPDEST PUSH0 PUSH1 0x1 DUP3 GT PUSH2 0x5D4 JUMPI DUP2 SWAP1 POP PUSH2 0x758 JUMP JUMPDEST PUSH0 DUP3 SWAP1 POP PUSH0 PUSH1 0x1 SWAP1 POP PUSH17 0x100000000000000000000000000000000 DUP3 LT PUSH2 0x604 JUMPI PUSH1 0x80 DUP3 SWAP1 SHR SWAP2 POP PUSH1 0x40 DUP2 SWAP1 SHL SWAP1 POP JUMPDEST PUSH9 0x10000000000000000 DUP3 LT PUSH2 0x623 JUMPI PUSH1 0x40 DUP3 SWAP1 SHR SWAP2 POP PUSH1 0x20 DUP2 SWAP1 SHL SWAP1 POP JUMPDEST PUSH5 0x100000000 DUP3 LT PUSH2 0x63E JUMPI PUSH1 0x20 DUP3 SWAP1 SHR SWAP2 POP PUSH1 0x10 DUP2 SWAP1 SHL SWAP1 POP JUMPDEST PUSH3 0x10000 DUP3 LT PUSH2 0x657 JUMPI PUSH1 0x10 DUP3 SWAP1 SHR SWAP2 POP PUSH1 0x8 DUP2 SWAP1 SHL SWAP1 POP JUMPDEST PUSH2 0x100 DUP3 LT PUSH2 0x66F JUMPI PUSH1 0x8 DUP3 SWAP1 SHR SWAP2 POP PUSH1 0x4 DUP2 SWAP1 SHL SWAP1 POP JUMPDEST PUSH1 0x10 DUP3 LT PUSH2 0x686 JUMPI PUSH1 0x4 DUP3 SWAP1 SHR SWAP2 POP PUSH1 0x2 DUP2 SWAP1 SHL SWAP1 POP JUMPDEST PUSH1 0x4 DUP3 LT PUSH2 0x696 JUMPI PUSH1 0x1 DUP2 SWAP1 SHL SWAP1 POP JUMPDEST PUSH1 0x1 DUP2 PUSH1 0x3 MUL SWAP1 SHR SWAP1 POP PUSH1 0x1 DUP2 DUP6 DUP2 PUSH2 0x6B2 JUMPI PUSH2 0x6B1 PUSH2 0xB20 JUMP JUMPDEST JUMPDEST DIV DUP3 ADD SWAP1 SHR SWAP1 POP PUSH1 0x1 DUP2 DUP6 DUP2 PUSH2 0x6CB JUMPI PUSH2 0x6CA PUSH2 0xB20 JUMP JUMPDEST JUMPDEST DIV DUP3 ADD SWAP1 SHR SWAP1 POP PUSH1 0x1 DUP2 DUP6 DUP2 PUSH2 0x6E4 JUMPI PUSH2 0x6E3 PUSH2 0xB20 JUMP JUMPDEST JUMPDEST DIV DUP3 ADD SWAP1 SHR SWAP1 POP PUSH1 0x1 DUP2 DUP6 DUP2 PUSH2 0x6FD JUMPI PUSH2 0x6FC PUSH2 0xB20 JUMP JUMPDEST JUMPDEST DIV DUP3 ADD SWAP1 SHR SWAP1 POP PUSH1 0x1 DUP2 DUP6 DUP2 PUSH2 0x716 JUMPI PUSH2 0x715 PUSH2 0xB20 JUMP JUMPDEST JUMPDEST DIV DUP3 ADD SWAP1 SHR SWAP1 POP PUSH1 0x1 DUP2 DUP6 DUP2 PUSH2 0x72F JUMPI PUSH2 0x72E PUSH2 0xB20 JUMP JUMPDEST JUMPDEST DIV DUP3 ADD SWAP1 SHR SWAP1 POP PUSH2 0x751 DUP2 DUP6 DUP2 PUSH2 0x749 JUMPI PUSH2 0x748 PUSH2 0xB20 JUMP JUMPDEST JUMPDEST DIV DUP3 GT PUSH2 0x773 JUMP JUMPDEST DUP2 SUB SWAP3 POP POP POP JUMPDEST SWAP2 SWAP1 POP JUMP JUMPDEST PUSH0 PUSH2 0x76B DUP3 DUP5 LT DUP5 DUP5 PUSH2 0x77E JUMP JUMPDEST SWAP1 POP SWAP3 SWAP2 POP POP JUMP JUMPDEST PUSH0 DUP2 ISZERO ISZERO SWAP1 POP SWAP2 SWAP1 POP JUMP JUMPDEST PUSH0 PUSH2 0x788 DUP5 PUSH2 0x773 JUMP JUMPDEST DUP3 DUP5 XOR MUL DUP3 XOR SWAP1 POP SWAP4 SWAP3 POP POP POP JUMP JUMPDEST PUSH0 PUSH0 REVERT JUMPDEST PUSH0 DUP2 SWAP1 POP SWAP2 SWAP1 POP JUMP JUMPDEST PUSH2 0x7AD DUP2 PUSH2 0x79B JUMP JUMPDEST DUP2 EQ PUSH2 0x7B7 JUMPI PUSH0 PUSH0 REVERT JUMPDEST POP JUMP JUMPDEST PUSH0 DUP2 CALLDATALOAD SWAP1 POP PUSH2 0x7C8 DUP2 PUSH2 0x7A4 JUMP JUMPDEST SWAP3 SWAP2 POP POP JUMP JUMPDEST PUSH0 PUSH1 0x20 DUP3 DUP5 SUB SLT ISZERO PUSH2 0x7E3 JUMPI PUSH2 0x7E2 PUSH2 0x797 JUMP JUMPDEST JUMPDEST PUSH0 PUSH2 0x7F0 DUP5 DUP3 DUP6 ADD PUSH2 0x7BA JUMP JUMPDEST SWAP2 POP POP SWAP3 SWAP2 POP POP JUMP JUMPDEST PUSH0 DUP2 SWAP1 POP SWAP2 SWAP1 POP JUMP JUMPDEST PUSH2 0x80B DUP2 PUSH2 0x7F9 JUMP JUMPDEST DUP3 MSTORE POP POP JUMP JUMPDEST PUSH0 PUSH1 0x60 DUP3 ADD SWAP1 POP PUSH2 0x824 PUSH0 DUP4 ADD DUP7 PUSH2 0x802 JUMP JUMPDEST PUSH2 0x831 PUSH1 0x20 DUP4 ADD DUP6 PUSH2 0x802 JUMP JUMPDEST PUSH2 0x83E PUSH1 0x40 DUP4 ADD DUP5 PUSH2 0x802 JUMP JUMPDEST SWAP5 SWAP4 POP POP POP POP JUMP JUMPDEST PUSH0 PUSH20 0xFFFFFFFFFFFFFFFFFFFFFFFFFFFFFFFFFFFFFFFF DUP3 AND SWAP1 POP SWAP2 SWAP1 POP JUMP JUMPDEST PUSH0 PUSH2 0x86F DUP3 PUSH2 0x846 JUMP JUMPDEST SWAP1 POP SWAP2 SWAP1 POP JUMP JUMPDEST PUSH2 0x87F DUP2 PUSH2 0x865 JUMP JUMPDEST DUP2 EQ PUSH2 0x889 JUMPI PUSH0 PUSH0 REVERT JUMPDEST POP JUMP JUMPDEST PUSH0 DUP2 CALLDATALOAD SWAP1 POP PUSH2 0x89A DUP2 PUSH2 0x876 JUMP JUMPDEST SWAP3 SWAP2 POP POP JUMP JUMPDEST PUSH2 0x8A9 DUP2 PUSH2 0x7F9 JUMP JUMPDEST DUP2 EQ PUSH2 0x8B3 JUMPI PUSH0 PUSH0 REVERT JUMPDEST POP JUMP JUMPDEST PUSH0 DUP2 CALLDATALOAD SWAP1 POP PUSH2 0x8C4 DUP2 PUSH2 0x8A0 JUMP JUMPDEST SWAP3 SWAP2 POP POP JUMP JUMPDEST PUSH0 PUSH0 PUSH0 PUSH0 PUSH0 PUSH0 PUSH0 PUSH0 PUSH2 0x100 DUP10 DUP12 SUB SLT ISZERO PUSH2 0x8E7 JUMPI PUSH2 0x8E6 PUSH2 0x797 JUMP JUMPDEST JUMPDEST PUSH0 PUSH2 0x8F4 DUP12 DUP3 DUP13 ADD PUSH2 0x88C JUMP JUMPDEST SWAP9 POP POP PUSH1 0x20 PUSH2 0x905 DUP12 DUP3 DUP13 ADD PUSH2 0x88C JUMP JUMPDEST SWAP8 POP POP PUSH1 0x40 PUSH2 0x916 DUP12 DUP3 DUP13 ADD PUSH2 0x8B6 JUMP JUMPDEST SWAP7 POP POP PUSH1 0x60 PUSH2 0x927 DUP12 DUP3 DUP13 ADD PUSH2 0x8B6 JUMP JUMPDEST SWAP6 POP POP PUSH1 0x80 PUSH2 0x938 DUP12 DUP3 DUP13 ADD PUSH2 0x8B6 JUMP JUMPDEST SWAP5 POP POP PUSH1 0xA0 PUSH2 0x949 DUP12 DUP3 DUP13 ADD PUSH2 0x8B6 JUMP JUMPDEST SWAP4 POP POP PUSH1 0xC0 PUSH2 0x95A DUP12 DUP3 DUP13 ADD PUSH2 0x88C JUMP JUMPDEST SWAP3 POP POP PUSH1 0xE0 PUSH2 0x96B DUP12 DUP3 DUP13 ADD PUSH2 0x8B6 JUMP JUMPDEST SWAP2 POP POP SWAP3 SWAP6 SWAP9 POP SWAP3 SWAP6 SWAP9 SWAP1 SWAP4 SWAP7 POP JUMP JUMPDEST PUSH0 PUSH0 PUSH1 0x40 DUP4 DUP6 SUB SLT ISZERO PUSH2 0x991 JUMPI PUSH2 0x990 PUSH2 0x797 JUMP JUMPDEST JUMPDEST PUSH0 PUSH2 0x99E DUP6 DUP3 DUP7 ADD PUSH2 0x7BA JUMP JUMPDEST SWAP3 POP POP PUSH1 0x20 PUSH2 0x9AF DUP6 DUP3 DUP7 ADD PUSH2 0x88C JUMP JUMPDEST SWAP2 POP POP SWAP3 POP SWAP3 SWAP1 POP JUMP JUMPDEST PUSH0 PUSH1 0x20 DUP3 ADD SWAP1 POP PUSH2 0x9CC PUSH0 DUP4 ADD DUP5 PUSH2 0x802 JUMP JUMPDEST SWAP3 SWAP2 POP POP JUMP JUMPDEST PUSH0 DUP3 DUP3 MSTORE PUSH1 0x20 DUP3 ADD SWAP1 POP SWAP3 SWAP2 POP POP JUMP JUMPDEST PUSH32 0x4578706972656400000000000000000000000000000000000000000000000000 PUSH0 DUP3 ADD MSTORE POP JUMP JUMPDEST PUSH0 PUSH2 0xA16 PUSH1 0x7 DUP4 PUSH2 0x9D2 JUMP JUMPDEST SWAP2 POP PUSH2 0xA21 DUP3 PUSH2 0x9E2 JUMP JUMPDEST PUSH1 0x20 DUP3 ADD SWAP1 POP SWAP2 SWAP1 POP JUMP JUMPDEST PUSH0 PUSH1 0x20 DUP3 ADD SWAP1 POP DUP2 DUP2 SUB PUSH0 DUP4 ADD MSTORE PUSH2 0xA43 DUP2 PUSH2 0xA0A JUMP JUMPDEST SWAP1 POP SWAP2 SWAP1 POP JUMP JUMPDEST PUSH32 0x5A65726F20616D6F756E74730000000000000000000000000000000000000000 PUSH0 DUP3 ADD MSTORE POP JUMP JUMPDEST PUSH0 PUSH2 0xA7E PUSH1 0xC DUP4 PUSH2 0x9D2 JUMP JUMPDEST SWAP2 POP PUSH2 0xA89 DUP3 PUSH2 0xA4A JUMP JUMPDEST PUSH1 0x20 DUP3 ADD SWAP1 POP SWAP2 SWAP1 POP JUMP JUMPDEST PUSH0 PUSH1 0x20 DUP3 ADD SWAP1 POP DUP2 DUP2 SUB PUSH0 DUP4 ADD MSTORE PUSH2 0xAAB DUP2 PUSH2 0xA72 JUMP JUMPDEST SWAP1 POP SWAP2 SWAP1 POP JUMP JUMPDEST PUSH32 0x4E487B7100000000000000000000000000000000000000000000000000000000 PUSH0 MSTORE PUSH1 0x11 PUSH1 0x4 MSTORE PUSH1 0x24 PUSH0 REVERT JUMPDEST PUSH0 PUSH2 0xAE9 DUP3 PUSH2 0x7F9 JUMP JUMPDEST SWAP2 POP PUSH2 0xAF4 DUP4 PUSH2 0x7F9 JUMP JUMPDEST SWAP3 POP DUP3 DUP3 MUL PUSH2 0xB02 DUP2 PUSH2 0x7F9 JUMP JUMPDEST SWAP2 POP DUP3 DUP3 DIV DUP5 EQ DUP4 ISZERO OR PUSH2 0xB19 JUMPI PUSH2 0xB18 PUSH2 0xAB2 JUMP JUMPDEST JUMPDEST POP SWAP3 SWAP2 POP POP JUMP JUMPDEST PUSH32 0x4E487B7100000000000000000000000000000000000000000000000000000000 PUSH0 MSTORE PUSH1 0x12 PUSH1 0x4 MSTORE PUSH1 0x24 PUSH0 REVERT JUMPDEST PUSH0 PUSH2 0xB57 DUP3 PUSH2 0x7F9 JUMP JUMPDEST SWAP2 POP PUSH2 0xB62 DUP4 PUSH2 0x7F9 JUMP JUMPDEST SWAP3 POP DUP3 PUSH2 0xB72 JUMPI PUSH2 0xB71 PUSH2 0xB20 JUMP JUMPDEST JUMPDEST DUP3 DUP3 DIV SWAP1 POP SWAP3 SWAP2 POP POP JUMP JUMPDEST PUSH32 0x536C697070616765204200000000000000000000000000000000000000000000 PUSH0 DUP3 ADD MSTORE POP JUMP JUMPDEST PUSH0 PUSH2 0xBB1 PUSH1 0xA DUP4 PUSH2 0x9D2 JUMP JUMPDEST SWAP2 POP PUSH2 0xBBC DUP3 PUSH2 0xB7D JUMP JUMPDEST PUSH1 0x20 DUP3 ADD SWAP1 POP SWAP2 SWAP1 POP JUMP JUMPDEST PUSH0 PUSH1 0x20 DUP3 ADD SWAP1 POP DUP2 DUP2 SUB PUSH0 DUP4 ADD MSTORE PUSH2 0xBDE DUP2 PUSH2 0xBA5 JUMP JUMPDEST SWAP1 POP SWAP2 SWAP1 POP JUMP JUMPDEST PUSH32 0x536C697070616765204100000000000000000000000000000000000000000000 PUSH0 DUP3 ADD MSTORE POP JUMP JUMPDEST PUSH0 PUSH2 0xC19 PUSH1 0xA DUP4 PUSH2 0x9D2 JUMP JUMPDEST SWAP2 POP PUSH2 0xC24 DUP3 PUSH2 0xBE5 JUMP JUMPDEST PUSH1 0x20 DUP3 ADD SWAP1 POP SWAP2 SWAP1 POP JUMP JUMPDEST PUSH0 PUSH1 0x20 DUP3 ADD SWAP1 POP DUP2 DUP2 SUB PUSH0 DUP4 ADD MSTORE PUSH2 0xC46 DUP2 PUSH2 0xC0D JUMP JUMPDEST SWAP1 POP SWAP2 SWAP1 POP JUMP JUMPDEST PUSH32 0x4C49513D30000000000000000000000000000000000000000000000000000000 PUSH0 DUP3 ADD MSTORE POP JUMP JUMPDEST PUSH0 PUSH2 0xC81 PUSH1 0x5 DUP4 PUSH2 0x9D2 JUMP JUMPDEST SWAP2 POP PUSH2 0xC8C DUP3 PUSH2 0xC4D JUMP JUMPDEST PUSH1 0x20 DUP3 ADD SWAP1 POP SWAP2 SWAP1 POP JUMP JUMPDEST PUSH0 PUSH1 0x20 DUP3 ADD SWAP1 POP DUP2 DUP2 SUB PUSH0 DUP4 ADD MSTORE PUSH2 0xCAE DUP2 PUSH2 0xC75 JUMP JUMPDEST SWAP1 POP SWAP2 SWAP1 POP JUMP JUMPDEST PUSH2 0xCBE DUP2 PUSH2 0x865 JUMP JUMPDEST DUP3 MSTORE POP POP JUMP JUMPDEST PUSH0 PUSH1 0x60 DUP3 ADD SWAP1 POP PUSH2 0xCD7 PUSH0 DUP4 ADD DUP7 PUSH2 0xCB5 JUMP JUMPDEST PUSH2 0xCE4 PUSH1 0x20 DUP4 ADD DUP6 PUSH2 0xCB5 JUMP JUMPDEST PUSH2 0xCF1 PUSH1 0x40 DUP4 ADD DUP5 PUSH2 0x802 JUMP JUMPDEST SWAP5 SWAP4 POP POP POP POP JUMP JUMPDEST PUSH0 DUP2 ISZERO ISZERO SWAP1 POP SWAP2 SWAP1 POP JUMP JUMPDEST PUSH2 0xD0D DUP2 PUSH2 0xCF9 JUMP JUMPDEST DUP2 EQ PUSH2 0xD17 JUMPI PUSH0 PUSH0 REVERT JUMPDEST POP JUMP JUMPDEST PUSH0 DUP2 MLOAD SWAP1 POP PUSH2 0xD28 DUP2 PUSH2 0xD04 JUMP JUMPDEST SWAP3 SWAP2 POP POP JUMP JUMPDEST PUSH0 PUSH1 0x20 DUP3 DUP5 SUB SLT ISZERO PUSH2 0xD43 JUMPI PUSH2 0xD42 PUSH2 0x797 JUMP JUMPDEST JUMPDEST PUSH0 PUSH2 0xD50 DUP5 DUP3 DUP6 ADD PUSH2 0xD1A JUMP JUMPDEST SWAP2 POP POP SWAP3 SWAP2 POP POP JUMP JUMPDEST PUSH0 PUSH2 0xD63 DUP3 PUSH2 0x7F9 JUMP JUMPDEST SWAP2 POP PUSH2 0xD6E DUP4 PUSH2 0x7F9 JUMP JUMPDEST SWAP3 POP DUP3 DUP3 ADD SWAP1 POP DUP1 DUP3 GT ISZERO PUSH2 0xD86 JUMPI PUSH2 0xD85 PUSH2 0xAB2 JUMP JUMPDEST JUMPDEST SWAP3 SWAP2 POP POP JUMP JUMPDEST PUSH32 0x5061737320746F6B656E73206F72646572656400000000000000000000000000 PUSH0 DUP3 ADD MSTORE POP JUMP JUMPDEST PUSH0 PUSH2 0xDC0 PUSH1 0x13 DUP4 PUSH2 0x9D2 JUMP JUMPDEST SWAP2 POP PUSH2 0xDCB DUP3 PUSH2 0xD8C JUMP JUMPDEST PUSH1 0x20 DUP3 ADD SWAP1 POP SWAP2 SWAP1 POP JUMP JUMPDEST PUSH0 PUSH1 0x20 DUP3 ADD SWAP1 POP DUP2 DUP2 SUB PUSH0 DUP4 ADD MSTORE PUSH2 0xDED DUP2 PUSH2 0xDB4 JUMP JUMPDEST SWAP1 POP SWAP2 SWAP1 POP JUMP JUMPDEST PUSH0 DUP2 PUSH1 0x60 SHL SWAP1 POP SWAP2 SWAP1 POP JUMP JUMPDEST PUSH0 PUSH2 0xE0A DUP3 PUSH2 0xDF4 JUMP JUMPDEST SWAP1 POP SWAP2 SWAP1 POP JUMP JUMPDEST PUSH0 PUSH2 0xE1B DUP3 PUSH2 0xE00 JUMP JUMPDEST SWAP1 POP SWAP2 SWAP1 POP JUMP JUMPDEST PUSH2 0xE33 PUSH2 0xE2E DUP3 PUSH2 0x865 JUMP JUMPDEST PUSH2 0xE11 JUMP JUMPDEST DUP3 MSTORE POP POP JUMP JUMPDEST PUSH0 PUSH2 0xE44 DUP3 DUP6 PUSH2 0xE22 JUMP JUMPDEST PUSH1 0x14 DUP3 ADD SWAP2 POP PUSH2 0xE54 DUP3 DUP5 PUSH2 0xE22 JUMP JUMPDEST PUSH1 0x14 DUP3 ADD SWAP2 POP DUP2 SWAP1 POP SWAP4 SWAP3 POP POP POP JUMP INVALID LOG2 PUSH5 0x6970667358 0x22 SLT KECCAK256 PUSH5 0x6822C02B9A DUP16 0x2F SWAP1 0xA7 DELEGATECALL DUP2 SWAP2 SWAPN 0x5A SWAP11 CALL 0xDD EXTCALL DUP4 0xC9 LOG2 SHL PUSH11 0x5F979417C1F5392464736F PUSH13 0x634300081E0033000000000000 "
		},
		"gasEstimates": {
			"creation": {
				"codeDepositCost": "747600",
				"executionCost": "777",
				"totalCost": "748377"
			},
			"external": {
				"addLiquidity(address,address,uint256,uint256,uint256,uint256,address,uint256)": "infinite",
				"lpBalance(bytes32,address)": "3055",
				"pools(bytes32)": "infinite"
			},
			"internal": {
				"_key(address,address)": "infinite"
			}
		},
		"methodIdentifiers": {
			"addLiquidity(address,address,uint256,uint256,uint256,uint256,address,uint256)": "e8e33700",
			"lpBalance(bytes32,address)": "f4e3f766",
			"pools(bytes32)": "b5217bb4"
		}
	},
	"abi": [
		{
			"inputs": [
				{
					"internalType": "address",
					"name": "tokenA",
					"type": "address"
				},
				{
					"internalType": "address",
					"name": "tokenB",
					"type": "address"
				},
				{
					"internalType": "uint256",
					"name": "amountADesired",
					"type": "uint256"
				},
				{
					"internalType": "uint256",
					"name": "amountBDesired",
					"type": "uint256"
				},
				{
					"internalType": "uint256",
					"name": "amountAMin",
					"type": "uint256"
				},
				{
					"internalType": "uint256",
					"name": "amountBMin",
					"type": "uint256"
				},
				{
					"internalType": "address",
					"name": "to",
					"type": "address"
				},
				{
					"internalType": "uint256",
					"name": "deadline",
					"type": "uint256"
				}
			],
			"name": "addLiquidity",
			"outputs": [
				{
					"internalType": "uint256",
					"name": "amountA",
					"type": "uint256"
				},
				{
					"internalType": "uint256",
					"name": "amountB",
					"type": "uint256"
				},
				{
					"internalType": "uint256",
					"name": "liquidity",
					"type": "uint256"
				}
			],
			"stateMutability": "nonpayable",
			"type": "function"
		},
		{
			"inputs": [
				{
					"internalType": "bytes32",
					"name": "",
					"type": "bytes32"
				},
				{
					"internalType": "address",
					"name": "",
					"type": "address"
				}
			],
			"name": "lpBalance",
			"outputs": [
				{
					"internalType": "uint256",
					"name": "",
					"type": "uint256"
				}
			],
			"stateMutability": "view",
			"type": "function"
		},
		{
			"inputs": [
				{
					"internalType": "bytes32",
					"name": "",
					"type": "bytes32"
				}
			],
			"name": "pools",
			"outputs": [
				{
					"internalType": "uint256",
					"name": "reserveA",
					"type": "uint256"
				},
				{
					"internalType": "uint256",
					"name": "reserveB",
					"type": "uint256"
				},
				{
					"internalType": "uint256",
					"name": "totalLiquidity",
					"type": "uint256"
				}
			],
			"stateMutability": "view",
			"type": "function"
		}
	]
}