{
	"data": {
		"bytecode": {
			"linkReferences": {},
			"object": "6080604052348015600e575f5ffd5b506113678061001c5f395ff3fe608060405234801561000f575f5ffd5b5060043610610060575f3560e01c80630760eaec146100645780635c92396014610095578063b5217bb4146100c7578063baa2abde146100f9578063e8e337001461012a578063f4e3f7661461015c575b5f5ffd5b61007e60048036038101906100799190610c3f565b61018c565b60405161008c929190610ceb565b60405180910390f35b6100af60048036038101906100aa9190610d12565b6101bd565b6040516100be93929190610dc3565b60405180910390f35b6100e160048036038101906100dc9190610e2b565b6101f4565b6040516100f093929190610dc3565b60405180910390f35b610113600480360381019061010e9190610c3f565b610219565b604051610121929190610ceb565b60405180910390f35b610144600480360381019061013f9190610d12565b610589565b60405161015393929190610dc3565b60405180910390f35b61017660048036038101906101719190610e56565b610943565b6040516101839190610e94565b60405180910390f35b5f5f5f834261019b9190610eda565b90506101ac8a8a8a8a8a8a87610219565b925092505097509795505050505050565b5f5f5f5f84426101cd9190610eda565b90506101df8c8c8c8c8c8c8c88610589565b93509350935050985098509895505050505050565b5f602052805f5260405f205f91509050805f0154908060010154908060020154905083565b5f5f8242111561025e576040517f08c379a000000000000000000000000000000000000000000000000000000000815260040161025590610f67565b60405180910390fd5b5f6102698a8a610963565b90505f5f5f8381526020019081526020015f2090508860015f8481526020019081526020015f205f3373ffffffffffffffffffffffffffffffffffffffff1673ffffffffffffffffffffffffffffffffffffffff1681526020019081526020015f2054101561030d576040517f08c379a000000000000000000000000000000000000000000000000000000000815260040161030490610fcf565b60405180910390fd5b8060020154815f01548a6103219190610fed565b61032b919061105b565b9350806002015481600101548a6103429190610fed565b61034c919061105b565b925087841015610391576040517f08c379a0000000000000000000000000000000000000000000000000000000008152600401610388906110d5565b60405180910390fd5b868310156103d4576040517f08c379a00000000000000000000000000000000000000000000000000000000081526004016103cb9061113d565b60405180910390fd5b83815f015f8282546103e6919061115b565b9250508190555082816001015f828254610400919061115b565b9250508190555088816002015f82825461041a919061115b565b925050819055508860015f8481526020019081526020015f205f3373ffffffffffffffffffffffffffffffffffffffff1673ffffffffffffffffffffffffffffffffffffffff1681526020019081526020015f205f82825461047c919061115b565b925050819055508a73ffffffffffffffffffffffffffffffffffffffff1663a9059cbb87866040518363ffffffff1660e01b81526004016104be92919061119d565b6020604051808303815f875af11580156104da573d5f5f3e3d5ffd5b505050506040513d601f19601f820116820180604052508101906104fe91906111f9565b508973ffffffffffffffffffffffffffffffffffffffff1663a9059cbb87856040518363ffffffff1660e01b815260040161053a92919061119d565b6020604051808303815f875af1158015610556573d5f5f3e3d5ffd5b505050506040513d601f19601f8201168201806040525081019061057a91906111f9565b50505097509795505050505050565b5f5f5f834211156105cf576040517f08c379a00000000000000000000000000000000000000000000000000000000081526004016105c690610f67565b60405180910390fd5b5f6105da8c8c610963565b90505f5f5f8381526020019081526020015f2090505f81600201540361061b578a9450899350610614848661060f9190610fed565b6109da565b9250610746565b5f815f015482600101548d6106309190610fed565b61063a919061105b565b90508a81116106915788811015610686576040517f08c379a000000000000000000000000000000000000000000000000000000000815260040161067d9061113d565b60405180910390fd5b8b95508094506106fd565b5f8260010154835f01548d6106a69190610fed565b6106b0919061105b565b90508a8110156106f5576040517f08c379a00000000000000000000000000000000000000000000000000000000081526004016106ec906110d5565b60405180910390fd5b8096508b9550505b610742825f01548360020154886107149190610fed565b61071e919061105b565b83600101548460020154886107339190610fed565b61073d919061105b565b610b74565b9350505b5f8311610788576040517f08c379a000000000000000000000000000000000000000000000000000000000815260040161077f9061126e565b60405180910390fd5b8c73ffffffffffffffffffffffffffffffffffffffff166323b872dd3389886040518463ffffffff1660e01b81526004016107c59392919061128c565b6020604051808303815f875af11580156107e1573d5f5f3e3d5ffd5b505050506040513d601f19601f8201168201806040525081019061080591906111f9565b508b73ffffffffffffffffffffffffffffffffffffffff166323b872dd3389876040518463ffffffff1660e01b81526004016108439392919061128c565b6020604051808303815f875af115801561085f573d5f5f3e3d5ffd5b505050506040513d601f19601f8201168201806040525081019061088391906111f9565b5084815f015f8282546108969190610eda565b9250508190555083816001015f8282546108b09190610eda565b9250508190555082816002015f8282546108ca9190610eda565b925050819055508260015f8481526020019081526020015f205f3373ffffffffffffffffffffffffffffffffffffffff1673ffffffffffffffffffffffffffffffffffffffff1681526020019081526020015f205f82825461092c9190610eda565b925050819055505050985098509895505050505050565b6001602052815f5260405f20602052805f5260405f205f91509150505481565b5f5f5f8373ffffffffffffffffffffffffffffffffffffffff168573ffffffffffffffffffffffffffffffffffffffff16106109a05783856109a3565b84845b9150915081816040516020016109ba929190611306565b604051602081830303815290604052805190602001209250505092915050565b5f600182116109eb57819050610b6f565b5f8290505f600190507001000000000000000000000000000000008210610a1b57608082901c9150604081901b90505b680100000000000000008210610a3a57604082901c9150602081901b90505b6401000000008210610a5557602082901c9150601081901b90505b620100008210610a6e57601082901c9150600881901b90505b6101008210610a8657600882901c9150600481901b90505b60108210610a9d57600482901c9150600281901b90505b60048210610aad57600181901b90505b600181600302901c90506001818581610ac957610ac861102e565b5b048201901c90506001818581610ae257610ae161102e565b5b048201901c90506001818581610afb57610afa61102e565b5b048201901c90506001818581610b1457610b1361102e565b5b048201901c90506001818581610b2d57610b2c61102e565b5b048201901c90506001818581610b4657610b4561102e565b5b048201901c9050610b68818581610b6057610b5f61102e565b5b048211610b8a565b8103925050505b919050565b5f610b828284108484610b95565b905092915050565b5f8115159050919050565b5f610b9f84610b8a565b82841802821890509392505050565b5f5ffd5b5f73ffffffffffffffffffffffffffffffffffffffff82169050919050565b5f610bdb82610bb2565b9050919050565b610beb81610bd1565b8114610bf5575f5ffd5b50565b5f81359050610c0681610be2565b92915050565b5f819050919050565b610c1e81610c0c565b8114610c28575f5ffd5b50565b5f81359050610c3981610c15565b92915050565b5f5f5f5f5f5f5f60e0888a031215610c5a57610c59610bae565b5b5f610c678a828b01610bf8565b9750506020610c788a828b01610bf8565b9650506040610c898a828b01610c2b565b9550506060610c9a8a828b01610c2b565b9450506080610cab8a828b01610c2b565b93505060a0610cbc8a828b01610bf8565b92505060c0610ccd8a828b01610c2b565b91505092959891949750929550565b610ce581610c0c565b82525050565b5f604082019050610cfe5f830185610cdc565b610d0b6020830184610cdc565b9392505050565b5f5f5f5f5f5f5f5f610100898b031215610d2f57610d2e610bae565b5b5f610d3c8b828c01610bf8565b9850506020610d4d8b828c01610bf8565b9750506040610d5e8b828c01610c2b565b9650506060610d6f8b828c01610c2b565b9550506080610d808b828c01610c2b565b94505060a0610d918b828c01610c2b565b93505060c0610da28b828c01610bf8565b92505060e0610db38b828c01610c2b565b9150509295985092959890939650565b5f606082019050610dd65f830186610cdc565b610de36020830185610cdc565b610df06040830184610cdc565b949350505050565b5f819050919050565b610e0a81610df8565b8114610e14575f5ffd5b50565b5f81359050610e2581610e01565b92915050565b5f60208284031215610e4057610e3f610bae565b5b5f610e4d84828501610e17565b91505092915050565b5f5f60408385031215610e6c57610e6b610bae565b5b5f610e7985828601610e17565b9250506020610e8a85828601610bf8565b9150509250929050565b5f602082019050610ea75f830184610cdc565b92915050565b7f4e487b71000000000000000000000000000000000000000000000000000000005f52601160045260245ffd5b5f610ee482610c0c565b9150610eef83610c0c565b9250828201905080821115610f0757610f06610ead565b5b92915050565b5f82825260208201905092915050565b7f45787069726564000000000000000000000000000000000000000000000000005f82015250565b5f610f51600783610f0d565b9150610f5c82610f1d565b602082019050919050565b5f6020820190508181035f830152610f7e81610f45565b9050919050565b7f4e6f7420656e6f756768204c5020746f6b656e730000000000000000000000005f82015250565b5f610fb9601483610f0d565b9150610fc482610f85565b602082019050919050565b5f6020820190508181035f830152610fe681610fad565b9050919050565b5f610ff782610c0c565b915061100283610c0c565b925082820261101081610c0c565b9150828204841483151761102757611026610ead565b5b5092915050565b7f4e487b71000000000000000000000000000000000000000000000000000000005f52601260045260245ffd5b5f61106582610c0c565b915061107083610c0c565b9250826110805761107f61102e565b5b828204905092915050565b7f536c6970706167652041000000000000000000000000000000000000000000005f82015250565b5f6110bf600a83610f0d565b91506110ca8261108b565b602082019050919050565b5f6020820190508181035f8301526110ec816110b3565b9050919050565b7f536c6970706167652042000000000000000000000000000000000000000000005f82015250565b5f611127600a83610f0d565b9150611132826110f3565b602082019050919050565b5f6020820190508181035f8301526111548161111b565b9050919050565b5f61116582610c0c565b915061117083610c0c565b925082820390508181111561118857611187610ead565b5b92915050565b61119781610bd1565b82525050565b5f6040820190506111b05f83018561118e565b6111bd6020830184610cdc565b9392505050565b5f8115159050919050565b6111d8816111c4565b81146111e2575f5ffd5b50565b5f815190506111f3816111cf565b92915050565b5f6020828403121561120e5761120d610bae565b5b5f61121b848285016111e5565b91505092915050565b7f4c49513d300000000000000000000000000000000000000000000000000000005f82015250565b5f611258600583610f0d565b915061126382611224565b602082019050919050565b5f6020820190508181035f8301526112858161124c565b9050919050565b5f60608201905061129f5f83018661118e565b6112ac602083018561118e565b6112b96040830184610cdc565b949350505050565b5f8160601b9050919050565b5f6112d7826112c1565b9050919050565b5f6112e8826112cd565b9050919050565b6113006112fb82610bd1565b6112de565b82525050565b5f61131182856112ef565b60148201915061132182846112ef565b601482019150819050939250505056fea26469706673582212208c7bdf1141cde75f642bac4b7544f7883fa06cb8f8a331792adbb89a3618052664736f6c634300081e0033",
			"opcodes": "PUSH1 0x80 PUSH1 0x40 MSTORE CALLVALUE DUP1 ISZERO PUSH1 0xE JUMPI PUSH0 PUSH0 REVERT JUMPDEST POP PUSH2 0x1367 DUP1 PUSH2 0x1C PUSH0 CODECOPY PUSH0 RETURN INVALID PUSH1 0x80 PUSH1 0x40 MSTORE CALLVALUE DUP1 ISZERO PUSH2 0xF JUMPI PUSH0 PUSH0 REVERT JUMPDEST POP PUSH1 0x4 CALLDATASIZE LT PUSH2 0x60 JUMPI PUSH0 CALLDATALOAD PUSH1 0xE0 SHR DUP1 PUSH4 0x760EAEC EQ PUSH2 0x64 JUMPI DUP1 PUSH4 0x5C923960 EQ PUSH2 0x95 JUMPI DUP1 PUSH4 0xB5217BB4 EQ PUSH2 0xC7 JUMPI DUP1 PUSH4 0xBAA2ABDE EQ PUSH2 0xF9 JUMPI DUP1 PUSH4 0xE8E33700 EQ PUSH2 0x12A JUMPI DUP1 PUSH4 0xF4E3F766 EQ PUSH2 0x15C JUMPI JUMPDEST PUSH0 PUSH0 REVERT JUMPDEST PUSH2 0x7E PUSH1 0x4 DUP1 CALLDATASIZE SUB DUP2 ADD SWAP1 PUSH2 0x79 SWAP2 SWAP1 PUSH2 0xC3F JUMP JUMPDEST PUSH2 0x18C JUMP JUMPDEST PUSH1 0x40 MLOAD PUSH2 0x8C SWAP3 SWAP2 SWAP1 PUSH2 0xCEB JUMP JUMPDEST PUSH1 0x40 MLOAD DUP1 SWAP2 SUB SWAP1 RETURN JUMPDEST PUSH2 0xAF PUSH1 0x4 DUP1 CALLDATASIZE SUB DUP2 ADD SWAP1 PUSH2 0xAA SWAP2 SWAP1 PUSH2 0xD12 JUMP JUMPDEST PUSH2 0x1BD JUMP JUMPDEST PUSH1 0x40 MLOAD PUSH2 0xBE SWAP4 SWAP3 SWAP2 SWAP1 PUSH2 0xDC3 JUMP JUMPDEST PUSH1 0x40 MLOAD DUP1 SWAP2 SUB SWAP1 RETURN JUMPDEST PUSH2 0xE1 PUSH1 0x4 DUP1 CALLDATASIZE SUB DUP2 ADD SWAP1 PUSH2 0xDC SWAP2 SWAP1 PUSH2 0xE2B JUMP JUMPDEST PUSH2 0x1F4 JUMP JUMPDEST PUSH1 0x40 MLOAD PUSH2 0xF0 SWAP4 SWAP3 SWAP2 SWAP1 PUSH2 0xDC3 JUMP JUMPDEST PUSH1 0x40 MLOAD DUP1 SWAP2 SUB SWAP1 RETURN JUMPDEST PUSH2 0x113 PUSH1 0x4 DUP1 CALLDATASIZE SUB DUP2 ADD SWAP1 PUSH2 0x10E SWAP2 SWAP1 PUSH2 0xC3F JUMP JUMPDEST PUSH2 0x219 JUMP JUMPDEST PUSH1 0x40 MLOAD PUSH2 0x121 SWAP3 SWAP2 SWAP1 PUSH2 0xCEB JUMP JUMPDEST PUSH1 0x40 MLOAD DUP1 SWAP2 SUB SWAP1 RETURN JUMPDEST PUSH2 0x144 PUSH1 0x4 DUP1 CALLDATASIZE SUB DUP2 ADD SWAP1 PUSH2 0x13F SWAP2 SWAP1 PUSH2 0xD12 JUMP JUMPDEST PUSH2 0x589 JUMP JUMPDEST PUSH1 0x40 MLOAD PUSH2 0x153 SWAP4 SWAP3 SWAP2 SWAP1 PUSH2 0xDC3 JUMP JUMPDEST PUSH1 0x40 MLOAD DUP1 SWAP2 SUB SWAP1 RETURN JUMPDEST PUSH2 0x176 PUSH1 0x4 DUP1 CALLDATASIZE SUB DUP2 ADD SWAP1 PUSH2 0x171 SWAP2 SWAP1 PUSH2 0xE56 JUMP JUMPDEST PUSH2 0x943 JUMP JUMPDEST PUSH1 0x40 MLOAD PUSH2 0x183 SWAP2 SWAP1 PUSH2 0xE94 JUMP JUMPDEST PUSH1 0x40 MLOAD DUP1 SWAP2 SUB SWAP1 RETURN JUMPDEST PUSH0 PUSH0 PUSH0 DUP4 TIMESTAMP PUSH2 0x19B SWAP2 SWAP1 PUSH2 0xEDA JUMP JUMPDEST SWAP1 POP PUSH2 0x1AC DUP11 DUP11 DUP11 DUP11 DUP11 DUP11 DUP8 PUSH2 0x219 JUMP JUMPDEST SWAP3 POP SWAP3 POP POP SWAP8 POP SWAP8 SWAP6 POP POP POP POP POP POP JUMP JUMPDEST PUSH0 PUSH0 PUSH0 PUSH0 DUP5 TIMESTAMP PUSH2 0x1CD SWAP2 SWAP1 PUSH2 0xEDA JUMP JUMPDEST SWAP1 POP PUSH2 0x1DF DUP13 DUP13 DUP13 DUP13 DUP13 DUP13 DUP13 DUP9 PUSH2 0x589 JUMP JUMPDEST SWAP4 POP SWAP4 POP SWAP4 POP POP SWAP9 POP SWAP9 POP SWAP9 SWAP6 POP POP POP POP POP POP JUMP JUMPDEST PUSH0 PUSH1 0x20 MSTORE DUP1 PUSH0 MSTORE PUSH1 0x40 PUSH0 KECCAK256 PUSH0 SWAP2 POP SWAP1 POP DUP1 PUSH0 ADD SLOAD SWAP1 DUP1 PUSH1 0x1 ADD SLOAD SWAP1 DUP1 PUSH1 0x2 ADD SLOAD SWAP1 POP DUP4 JUMP JUMPDEST PUSH0 PUSH0 DUP3 TIMESTAMP GT ISZERO PUSH2 0x25E JUMPI PUSH1 0x40 MLOAD PUSH32 0x8C379A000000000000000000000000000000000000000000000000000000000 DUP2 MSTORE PUSH1 0x4 ADD PUSH2 0x255 SWAP1 PUSH2 0xF67 JUMP JUMPDEST PUSH1 0x40 MLOAD DUP1 SWAP2 SUB SWAP1 REVERT JUMPDEST PUSH0 PUSH2 0x269 DUP11 DUP11 PUSH2 0x963 JUMP JUMPDEST SWAP1 POP PUSH0 PUSH0 PUSH0 DUP4 DUP2 MSTORE PUSH1 0x20 ADD SWAP1 DUP2 MSTORE PUSH1 0x20 ADD PUSH0 KECCAK256 SWAP1 POP DUP9 PUSH1 0x1 PUSH0 DUP5 DUP2 MSTORE PUSH1 0x20 ADD SWAP1 DUP2 MSTORE PUSH1 0x20 ADD PUSH0 KECCAK256 PUSH0 CALLER PUSH20 0xFFFFFFFFFFFFFFFFFFFFFFFFFFFFFFFFFFFFFFFF AND PUSH20 0xFFFFFFFFFFFFFFFFFFFFFFFFFFFFFFFFFFFFFFFF AND DUP2 MSTORE PUSH1 0x20 ADD SWAP1 DUP2 MSTORE PUSH1 0x20 ADD PUSH0 KECCAK256 SLOAD LT ISZERO PUSH2 0x30D JUMPI PUSH1 0x40 MLOAD PUSH32 0x8C379A000000000000000000000000000000000000000000000000000000000 DUP2 MSTORE PUSH1 0x4 ADD PUSH2 0x304 SWAP1 PUSH2 0xFCF JUMP JUMPDEST PUSH1 0x40 MLOAD DUP1 SWAP2 SUB SWAP1 REVERT JUMPDEST DUP1 PUSH1 0x2 ADD SLOAD DUP2 PUSH0 ADD SLOAD DUP11 PUSH2 0x321 SWAP2 SWAP1 PUSH2 0xFED JUMP JUMPDEST PUSH2 0x32B SWAP2 SWAP1 PUSH2 0x105B JUMP JUMPDEST SWAP4 POP DUP1 PUSH1 0x2 ADD SLOAD DUP2 PUSH1 0x1 ADD SLOAD DUP11 PUSH2 0x342 SWAP2 SWAP1 PUSH2 0xFED JUMP JUMPDEST PUSH2 0x34C SWAP2 SWAP1 PUSH2 0x105B JUMP JUMPDEST SWAP3 POP DUP8 DUP5 LT ISZERO PUSH2 0x391 JUMPI PUSH1 0x40 MLOAD PUSH32 0x8C379A000000000000000000000000000000000000000000000000000000000 DUP2 MSTORE PUSH1 0x4 ADD PUSH2 0x388 SWAP1 PUSH2 0x10D5 JUMP JUMPDEST PUSH1 0x40 MLOAD DUP1 SWAP2 SUB SWAP1 REVERT JUMPDEST DUP7 DUP4 LT ISZERO PUSH2 0x3D4 JUMPI PUSH1 0x40 MLOAD PUSH32 0x8C379A000000000000000000000000000000000000000000000000000000000 DUP2 MSTORE PUSH1 0x4 ADD PUSH2 0x3CB SWAP1 PUSH2 0x113D JUMP JUMPDEST PUSH1 0x40 MLOAD DUP1 SWAP2 SUB SWAP1 REVERT JUMPDEST DUP4 DUP2 PUSH0 ADD PUSH0 DUP3 DUP3 SLOAD PUSH2 0x3E6 SWAP2 SWAP1 PUSH2 0x115B JUMP JUMPDEST SWAP3 POP POP DUP2 SWAP1 SSTORE POP DUP3 DUP2 PUSH1 0x1 ADD PUSH0 DUP3 DUP3 SLOAD PUSH2 0x400 SWAP2 SWAP1 PUSH2 0x115B JUMP JUMPDEST SWAP3 POP POP DUP2 SWAP1 SSTORE POP DUP9 DUP2 PUSH1 0x2 ADD PUSH0 DUP3 DUP3 SLOAD PUSH2 0x41A SWAP2 SWAP1 PUSH2 0x115B JUMP JUMPDEST SWAP3 POP POP DUP2 SWAP1 SSTORE POP DUP9 PUSH1 0x1 PUSH0 DUP5 DUP2 MSTORE PUSH1 0x20 ADD SWAP1 DUP2 MSTORE PUSH1 0x20 ADD PUSH0 KECCAK256 PUSH0 CALLER PUSH20 0xFFFFFFFFFFFFFFFFFFFFFFFFFFFFFFFFFFFFFFFF AND PUSH20 0xFFFFFFFFFFFFFFFFFFFFFFFFFFFFFFFFFFFFFFFF AND DUP2 MSTORE PUSH1 0x20 ADD SWAP1 DUP2 MSTORE PUSH1 0x20 ADD PUSH0 KECCAK256 PUSH0 DUP3 DUP3 SLOAD PUSH2 0x47C SWAP2 SWAP1 PUSH2 0x115B JUMP JUMPDEST SWAP3 POP POP DUP2 SWAP1 SSTORE POP DUP11 PUSH20 0xFFFFFFFFFFFFFFFFFFFFFFFFFFFFFFFFFFFFFFFF AND PUSH4 0xA9059CBB DUP8 DUP7 PUSH1 0x40 MLOAD DUP4 PUSH4 0xFFFFFFFF AND PUSH1 0xE0 SHL DUP2 MSTORE PUSH1 0x4 ADD PUSH2 0x4BE SWAP3 SWAP2 SWAP1 PUSH2 0x119D JUMP JUMPDEST PUSH1 0x20 PUSH1 0x40 MLOAD DUP1 DUP4 SUB DUP2 PUSH0 DUP8 GAS CALL ISZERO DUP1 ISZERO PUSH2 0x4DA JUMPI RETURNDATASIZE PUSH0 PUSH0 RETURNDATACOPY RETURNDATASIZE PUSH0 REVERT JUMPDEST POP POP POP POP PUSH1 0x40 MLOAD RETURNDATASIZE PUSH1 0x1F NOT PUSH1 0x1F DUP3 ADD AND DUP3 ADD DUP1 PUSH1 0x40 MSTORE POP DUP2 ADD SWAP1 PUSH2 0x4FE SWAP2 SWAP1 PUSH2 0x11F9 JUMP JUMPDEST POP DUP10 PUSH20 0xFFFFFFFFFFFFFFFFFFFFFFFFFFFFFFFFFFFFFFFF AND PUSH4 0xA9059CBB DUP8 DUP6 PUSH1 0x40 MLOAD DUP4 PUSH4 0xFFFFFFFF AND PUSH1 0xE0 SHL DUP2 MSTORE PUSH1 0x4 ADD PUSH2 0x53A SWAP3 SWAP2 SWAP1 PUSH2 0x119D JUMP JUMPDEST PUSH1 0x20 PUSH1 0x40 MLOAD DUP1 DUP4 SUB DUP2 PUSH0 DUP8 GAS CALL ISZERO DUP1 ISZERO PUSH2 0x556 JUMPI RETURNDATASIZE PUSH0 PUSH0 RETURNDATACOPY RETURNDATASIZE PUSH0 REVERT JUMPDEST POP POP POP POP PUSH1 0x40 MLOAD RETURNDATASIZE PUSH1 0x1F NOT PUSH1 0x1F DUP3 ADD AND DUP3 ADD DUP1 PUSH1 0x40 MSTORE POP DUP2 ADD SWAP1 PUSH2 0x57A SWAP2 SWAP1 PUSH2 0x11F9 JUMP JUMPDEST POP POP POP SWAP8 POP SWAP8 SWAP6 POP POP POP POP POP POP JUMP JUMPDEST PUSH0 PUSH0 PUSH0 DUP4 TIMESTAMP GT ISZERO PUSH2 0x5CF JUMPI PUSH1 0x40 MLOAD PUSH32 0x8C379A000000000000000000000000000000000000000000000000000000000 DUP2 MSTORE PUSH1 0x4 ADD PUSH2 0x5C6 SWAP1 PUSH2 0xF67 JUMP JUMPDEST PUSH1 0x40 MLOAD DUP1 SWAP2 SUB SWAP1 REVERT JUMPDEST PUSH0 PUSH2 0x5DA DUP13 DUP13 PUSH2 0x963 JUMP JUMPDEST SWAP1 POP PUSH0 PUSH0 PUSH0 DUP4 DUP2 MSTORE PUSH1 0x20 ADD SWAP1 DUP2 MSTORE PUSH1 0x20 ADD PUSH0 KECCAK256 SWAP1 POP PUSH0 DUP2 PUSH1 0x2 ADD SLOAD SUB PUSH2 0x61B JUMPI DUP11 SWAP5 POP DUP10 SWAP4 POP PUSH2 0x614 DUP5 DUP7 PUSH2 0x60F SWAP2 SWAP1 PUSH2 0xFED JUMP JUMPDEST PUSH2 0x9DA JUMP JUMPDEST SWAP3 POP PUSH2 0x746 JUMP JUMPDEST PUSH0 DUP2 PUSH0 ADD SLOAD DUP3 PUSH1 0x1 ADD SLOAD DUP14 PUSH2 0x630 SWAP2 SWAP1 PUSH2 0xFED JUMP JUMPDEST PUSH2 0x63A SWAP2 SWAP1 PUSH2 0x105B JUMP JUMPDEST SWAP1 POP DUP11 DUP2 GT PUSH2 0x691 JUMPI DUP9 DUP2 LT ISZERO PUSH2 0x686 JUMPI PUSH1 0x40 MLOAD PUSH32 0x8C379A000000000000000000000000000000000000000000000000000000000 DUP2 MSTORE PUSH1 0x4 ADD PUSH2 0x67D SWAP1 PUSH2 0x113D JUMP JUMPDEST PUSH1 0x40 MLOAD DUP1 SWAP2 SUB SWAP1 REVERT JUMPDEST DUP12 SWAP6 POP DUP1 SWAP5 POP PUSH2 0x6FD JUMP JUMPDEST PUSH0 DUP3 PUSH1 0x1 ADD SLOAD DUP4 PUSH0 ADD SLOAD DUP14 PUSH2 0x6A6 SWAP2 SWAP1 PUSH2 0xFED JUMP JUMPDEST PUSH2 0x6B0 SWAP2 SWAP1 PUSH2 0x105B JUMP JUMPDEST SWAP1 POP DUP11 DUP2 LT ISZERO PUSH2 0x6F5 JUMPI PUSH1 0x40 MLOAD PUSH32 0x8C379A000000000000000000000000000000000000000000000000000000000 DUP2 MSTORE PUSH1 0x4 ADD PUSH2 0x6EC SWAP1 PUSH2 0x10D5 JUMP JUMPDEST PUSH1 0x40 MLOAD DUP1 SWAP2 SUB SWAP1 REVERT JUMPDEST DUP1 SWAP7 POP DUP12 SWAP6 POP POP JUMPDEST PUSH2 0x742 DUP3 PUSH0 ADD SLOAD DUP4 PUSH1 0x2 ADD SLOAD DUP9 PUSH2 0x714 SWAP2 SWAP1 PUSH2 0xFED JUMP JUMPDEST PUSH2 0x71E SWAP2 SWAP1 PUSH2 0x105B JUMP JUMPDEST DUP4 PUSH1 0x1 ADD SLOAD DUP5 PUSH1 0x2 ADD SLOAD DUP9 PUSH2 0x733 SWAP2 SWAP1 PUSH2 0xFED JUMP JUMPDEST PUSH2 0x73D SWAP2 SWAP1 PUSH2 0x105B JUMP JUMPDEST PUSH2 0xB74 JUMP JUMPDEST SWAP4 POP POP JUMPDEST PUSH0 DUP4 GT PUSH2 0x788 JUMPI PUSH1 0x40 MLOAD PUSH32 0x8C379A000000000000000000000000000000000000000000000000000000000 DUP2 MSTORE PUSH1 0x4 ADD PUSH2 0x77F SWAP1 PUSH2 0x126E JUMP JUMPDEST PUSH1 0x40 MLOAD DUP1 SWAP2 SUB SWAP1 REVERT JUMPDEST DUP13 PUSH20 0xFFFFFFFFFFFFFFFFFFFFFFFFFFFFFFFFFFFFFFFF AND PUSH4 0x23B872DD CALLER DUP10 DUP9 PUSH1 0x40 MLOAD DUP5 PUSH4 0xFFFFFFFF AND PUSH1 0xE0 SHL DUP2 MSTORE PUSH1 0x4 ADD PUSH2 0x7C5 SWAP4 SWAP3 SWAP2 SWAP1 PUSH2 0x128C JUMP JUMPDEST PUSH1 0x20 PUSH1 0x40 MLOAD DUP1 DUP4 SUB DUP2 PUSH0 DUP8 GAS CALL ISZERO DUP1 ISZERO PUSH2 0x7E1 JUMPI RETURNDATASIZE PUSH0 PUSH0 RETURNDATACOPY RETURNDATASIZE PUSH0 REVERT JUMPDEST POP POP POP POP PUSH1 0x40 MLOAD RETURNDATASIZE PUSH1 0x1F NOT PUSH1 0x1F DUP3 ADD AND DUP3 ADD DUP1 PUSH1 0x40 MSTORE POP DUP2 ADD SWAP1 PUSH2 0x805 SWAP2 SWAP1 PUSH2 0x11F9 JUMP JUMPDEST POP DUP12 PUSH20 0xFFFFFFFFFFFFFFFFFFFFFFFFFFFFFFFFFFFFFFFF AND PUSH4 0x23B872DD CALLER DUP10 DUP8 PUSH1 0x40 MLOAD DUP5 PUSH4 0xFFFFFFFF AND PUSH1 0xE0 SHL DUP2 MSTORE PUSH1 0x4 ADD PUSH2 0x843 SWAP4 SWAP3 SWAP2 SWAP1 PUSH2 0x128C JUMP JUMPDEST PUSH1 0x20 PUSH1 0x40 MLOAD DUP1 DUP4 SUB DUP2 PUSH0 DUP8 GAS CALL ISZERO DUP1 ISZERO PUSH2 0x85F JUMPI RETURNDATASIZE PUSH0 PUSH0 RETURNDATACOPY RETURNDATASIZE PUSH0 REVERT JUMPDEST POP POP POP POP PUSH1 0x40 MLOAD RETURNDATASIZE PUSH1 0x1F NOT PUSH1 0x1F DUP3 ADD AND DUP3 ADD DUP1 PUSH1 0x40 MSTORE POP DUP2 ADD SWAP1 PUSH2 0x883 SWAP2 SWAP1 PUSH2 0x11F9 JUMP JUMPDEST POP DUP5 DUP2 PUSH0 ADD PUSH0 DUP3 DUP3 SLOAD PUSH2 0x896 SWAP2 SWAP1 PUSH2 0xEDA JUMP JUMPDEST SWAP3 POP POP DUP2 SWAP1 SSTORE POP DUP4 DUP2 PUSH1 0x1 ADD PUSH0 DUP3 DUP3 SLOAD PUSH2 0x8B0 SWAP2 SWAP1 PUSH2 0xEDA JUMP JUMPDEST SWAP3 POP POP DUP2 SWAP1 SSTORE POP DUP3 DUP2 PUSH1 0x2 ADD PUSH0 DUP3 DUP3 SLOAD PUSH2 0x8CA SWAP2 SWAP1 PUSH2 0xEDA JUMP JUMPDEST SWAP3 POP POP DUP2 SWAP1 SSTORE POP DUP3 PUSH1 0x1 PUSH0 DUP5 DUP2 MSTORE PUSH1 0x20 ADD SWAP1 DUP2 MSTORE PUSH1 0x20 ADD PUSH0 KECCAK256 PUSH0 CALLER PUSH20 0xFFFFFFFFFFFFFFFFFFFFFFFFFFFFFFFFFFFFFFFF AND PUSH20 0xFFFFFFFFFFFFFFFFFFFFFFFFFFFFFFFFFFFFFFFF AND DUP2 MSTORE PUSH1 0x20 ADD SWAP1 DUP2 MSTORE PUSH1 0x20 ADD PUSH0 KECCAK256 PUSH0 DUP3 DUP3 SLOAD PUSH2 0x92C SWAP2 SWAP1 PUSH2 0xEDA JUMP JUMPDEST SWAP3 POP POP DUP2 SWAP1 SSTORE POP POP POP SWAP9 POP SWAP9 POP SWAP9 SWAP6 POP POP POP POP POP POP JUMP JUMPDEST PUSH1 0x1 PUSH1 0x20 MSTORE DUP2 PUSH0 MSTORE PUSH1 0x40 PUSH0 KECCAK256 PUSH1 0x20 MSTORE DUP1 PUSH0 MSTORE PUSH1 0x40 PUSH0 KECCAK256 PUSH0 SWAP2 POP SWAP2 POP POP SLOAD DUP2 JUMP JUMPDEST PUSH0 PUSH0 PUSH0 DUP4 PUSH20 0xFFFFFFFFFFFFFFFFFFFFFFFFFFFFFFFFFFFFFFFF AND DUP6 PUSH20 0xFFFFFFFFFFFFFFFFFFFFFFFFFFFFFFFFFFFFFFFF AND LT PUSH2 0x9A0 JUMPI DUP4 DUP6 PUSH2 0x9A3 JUMP JUMPDEST DUP5 DUP5 JUMPDEST SWAP2 POP SWAP2 POP DUP2 DUP2 PUSH1 0x40 MLOAD PUSH1 0x20 ADD PUSH2 0x9BA SWAP3 SWAP2 SWAP1 PUSH2 0x1306 JUMP JUMPDEST PUSH1 0x40 MLOAD PUSH1 0x20 DUP2 DUP4 SUB SUB DUP2 MSTORE SWAP1 PUSH1 0x40 MSTORE DUP1 MLOAD SWAP1 PUSH1 0x20 ADD KECCAK256 SWAP3 POP POP POP SWAP3 SWAP2 POP POP JUMP JUMPDEST PUSH0 PUSH1 0x1 DUP3 GT PUSH2 0x9EB JUMPI DUP2 SWAP1 POP PUSH2 0xB6F JUMP JUMPDEST PUSH0 DUP3 SWAP1 POP PUSH0 PUSH1 0x1 SWAP1 POP PUSH17 0x100000000000000000000000000000000 DUP3 LT PUSH2 0xA1B JUMPI PUSH1 0x80 DUP3 SWAP1 SHR SWAP2 POP PUSH1 0x40 DUP2 SWAP1 SHL SWAP1 POP JUMPDEST PUSH9 0x10000000000000000 DUP3 LT PUSH2 0xA3A JUMPI PUSH1 0x40 DUP3 SWAP1 SHR SWAP2 POP PUSH1 0x20 DUP2 SWAP1 SHL SWAP1 POP JUMPDEST PUSH5 0x100000000 DUP3 LT PUSH2 0xA55 JUMPI PUSH1 0x20 DUP3 SWAP1 SHR SWAP2 POP PUSH1 0x10 DUP2 SWAP1 SHL SWAP1 POP JUMPDEST PUSH3 0x10000 DUP3 LT PUSH2 0xA6E JUMPI PUSH1 0x10 DUP3 SWAP1 SHR SWAP2 POP PUSH1 0x8 DUP2 SWAP1 SHL SWAP1 POP JUMPDEST PUSH2 0x100 DUP3 LT PUSH2 0xA86 JUMPI PUSH1 0x8 DUP3 SWAP1 SHR SWAP2 POP PUSH1 0x4 DUP2 SWAP1 SHL SWAP1 POP JUMPDEST PUSH1 0x10 DUP3 LT PUSH2 0xA9D JUMPI PUSH1 0x4 DUP3 SWAP1 SHR SWAP2 POP PUSH1 0x2 DUP2 SWAP1 SHL SWAP1 POP JUMPDEST PUSH1 0x4 DUP3 LT PUSH2 0xAAD JUMPI PUSH1 0x1 DUP2 SWAP1 SHL SWAP1 POP JUMPDEST PUSH1 0x1 DUP2 PUSH1 0x3 MUL SWAP1 SHR SWAP1 POP PUSH1 0x1 DUP2 DUP6 DUP2 PUSH2 0xAC9 JUMPI PUSH2 0xAC8 PUSH2 0x102E JUMP JUMPDEST JUMPDEST DIV DUP3 ADD SWAP1 SHR SWAP1 POP PUSH1 0x1 DUP2 DUP6 DUP2 PUSH2 0xAE2 JUMPI PUSH2 0xAE1 PUSH2 0x102E JUMP JUMPDEST JUMPDEST DIV DUP3 ADD SWAP1 SHR SWAP1 POP PUSH1 0x1 DUP2 DUP6 DUP2 PUSH2 0xAFB JUMPI PUSH2 0xAFA PUSH2 0x102E JUMP JUMPDEST JUMPDEST DIV DUP3 ADD SWAP1 SHR SWAP1 POP PUSH1 0x1 DUP2 DUP6 DUP2 PUSH2 0xB14 JUMPI PUSH2 0xB13 PUSH2 0x102E JUMP JUMPDEST JUMPDEST DIV DUP3 ADD SWAP1 SHR SWAP1 POP PUSH1 0x1 DUP2 DUP6 DUP2 PUSH2 0xB2D JUMPI PUSH2 0xB2C PUSH2 0x102E JUMP JUMPDEST JUMPDEST DIV DUP3 ADD SWAP1 SHR SWAP1 POP PUSH1 0x1 DUP2 DUP6 DUP2 PUSH2 0xB46 JUMPI PUSH2 0xB45 PUSH2 0x102E JUMP JUMPDEST JUMPDEST DIV DUP3 ADD SWAP1 SHR SWAP1 POP PUSH2 0xB68 DUP2 DUP6 DUP2 PUSH2 0xB60 JUMPI PUSH2 0xB5F PUSH2 0x102E JUMP JUMPDEST JUMPDEST DIV DUP3 GT PUSH2 0xB8A JUMP JUMPDEST DUP2 SUB SWAP3 POP POP POP JUMPDEST SWAP2 SWAP1 POP JUMP JUMPDEST PUSH0 PUSH2 0xB82 DUP3 DUP5 LT DUP5 DUP5 PUSH2 0xB95 JUMP JUMPDEST SWAP1 POP SWAP3 SWAP2 POP POP JUMP JUMPDEST PUSH0 DUP2 ISZERO ISZERO SWAP1 POP SWAP2 SWAP1 POP JUMP JUMPDEST PUSH0 PUSH2 0xB9F DUP5 PUSH2 0xB8A JUMP JUMPDEST DUP3 DUP5 XOR MUL DUP3 XOR SWAP1 POP SWAP4 SWAP3 POP POP POP JUMP JUMPDEST PUSH0 PUSH0 REVERT JUMPDEST PUSH0 PUSH20 0xFFFFFFFFFFFFFFFFFFFFFFFFFFFFFFFFFFFFFFFF DUP3 AND SWAP1 POP SWAP2 SWAP1 POP JUMP JUMPDEST PUSH0 PUSH2 0xBDB DUP3 PUSH2 0xBB2 JUMP JUMPDEST SWAP1 POP SWAP2 SWAP1 POP JUMP JUMPDEST PUSH2 0xBEB DUP2 PUSH2 0xBD1 JUMP JUMPDEST DUP2 EQ PUSH2 0xBF5 JUMPI PUSH0 PUSH0 REVERT JUMPDEST POP JUMP JUMPDEST PUSH0 DUP2 CALLDATALOAD SWAP1 POP PUSH2 0xC06 DUP2 PUSH2 0xBE2 JUMP JUMPDEST SWAP3 SWAP2 POP POP JUMP JUMPDEST PUSH0 DUP2 SWAP1 POP SWAP2 SWAP1 POP JUMP JUMPDEST PUSH2 0xC1E DUP2 PUSH2 0xC0C JUMP JUMPDEST DUP2 EQ PUSH2 0xC28 JUMPI PUSH0 PUSH0 REVERT JUMPDEST POP JUMP JUMPDEST PUSH0 DUP2 CALLDATALOAD SWAP1 POP PUSH2 0xC39 DUP2 PUSH2 0xC15 JUMP JUMPDEST SWAP3 SWAP2 POP POP JUMP JUMPDEST PUSH0 PUSH0 PUSH0 PUSH0 PUSH0 PUSH0 PUSH0 PUSH1 0xE0 DUP9 DUP11 SUB SLT ISZERO PUSH2 0xC5A JUMPI PUSH2 0xC59 PUSH2 0xBAE JUMP JUMPDEST JUMPDEST PUSH0 PUSH2 0xC67 DUP11 DUP3 DUP12 ADD PUSH2 0xBF8 JUMP JUMPDEST SWAP8 POP POP PUSH1 0x20 PUSH2 0xC78 DUP11 DUP3 DUP12 ADD PUSH2 0xBF8 JUMP JUMPDEST SWAP7 POP POP PUSH1 0x40 PUSH2 0xC89 DUP11 DUP3 DUP12 ADD PUSH2 0xC2B JUMP JUMPDEST SWAP6 POP POP PUSH1 0x60 PUSH2 0xC9A DUP11 DUP3 DUP12 ADD PUSH2 0xC2B JUMP JUMPDEST SWAP5 POP POP PUSH1 0x80 PUSH2 0xCAB DUP11 DUP3 DUP12 ADD PUSH2 0xC2B JUMP JUMPDEST SWAP4 POP POP PUSH1 0xA0 PUSH2 0xCBC DUP11 DUP3 DUP12 ADD PUSH2 0xBF8 JUMP JUMPDEST SWAP3 POP POP PUSH1 0xC0 PUSH2 0xCCD DUP11 DUP3 DUP12 ADD PUSH2 0xC2B JUMP JUMPDEST SWAP2 POP POP SWAP3 SWAP6 SWAP9 SWAP2 SWAP5 SWAP8 POP SWAP3 SWAP6 POP JUMP JUMPDEST PUSH2 0xCE5 DUP2 PUSH2 0xC0C JUMP JUMPDEST DUP3 MSTORE POP POP JUMP JUMPDEST PUSH0 PUSH1 0x40 DUP3 ADD SWAP1 POP PUSH2 0xCFE PUSH0 DUP4 ADD DUP6 PUSH2 0xCDC JUMP JUMPDEST PUSH2 0xD0B PUSH1 0x20 DUP4 ADD DUP5 PUSH2 0xCDC JUMP JUMPDEST SWAP4 SWAP3 POP POP POP JUMP JUMPDEST PUSH0 PUSH0 PUSH0 PUSH0 PUSH0 PUSH0 PUSH0 PUSH0 PUSH2 0x100 DUP10 DUP12 SUB SLT ISZERO PUSH2 0xD2F JUMPI PUSH2 0xD2E PUSH2 0xBAE JUMP JUMPDEST JUMPDEST PUSH0 PUSH2 0xD3C DUP12 DUP3 DUP13 ADD PUSH2 0xBF8 JUMP JUMPDEST SWAP9 POP POP PUSH1 0x20 PUSH2 0xD4D DUP12 DUP3 DUP13 ADD PUSH2 0xBF8 JUMP JUMPDEST SWAP8 POP POP PUSH1 0x40 PUSH2 0xD5E DUP12 DUP3 DUP13 ADD PUSH2 0xC2B JUMP JUMPDEST SWAP7 POP POP PUSH1 0x60 PUSH2 0xD6F DUP12 DUP3 DUP13 ADD PUSH2 0xC2B JUMP JUMPDEST SWAP6 POP POP PUSH1 0x80 PUSH2 0xD80 DUP12 DUP3 DUP13 ADD PUSH2 0xC2B JUMP JUMPDEST SWAP5 POP POP PUSH1 0xA0 PUSH2 0xD91 DUP12 DUP3 DUP13 ADD PUSH2 0xC2B JUMP JUMPDEST SWAP4 POP POP PUSH1 0xC0 PUSH2 0xDA2 DUP12 DUP3 DUP13 ADD PUSH2 0xBF8 JUMP JUMPDEST SWAP3 POP POP PUSH1 0xE0 PUSH2 0xDB3 DUP12 DUP3 DUP13 ADD PUSH2 0xC2B JUMP JUMPDEST SWAP2 POP POP SWAP3 SWAP6 SWAP9 POP SWAP3 SWAP6 SWAP9 SWAP1 SWAP4 SWAP7 POP JUMP JUMPDEST PUSH0 PUSH1 0x60 DUP3 ADD SWAP1 POP PUSH2 0xDD6 PUSH0 DUP4 ADD DUP7 PUSH2 0xCDC JUMP JUMPDEST PUSH2 0xDE3 PUSH1 0x20 DUP4 ADD DUP6 PUSH2 0xCDC JUMP JUMPDEST PUSH2 0xDF0 PUSH1 0x40 DUP4 ADD DUP5 PUSH2 0xCDC JUMP JUMPDEST SWAP5 SWAP4 POP POP POP POP JUMP JUMPDEST PUSH0 DUP2 SWAP1 POP SWAP2 SWAP1 POP JUMP JUMPDEST PUSH2 0xE0A DUP2 PUSH2 0xDF8 JUMP JUMPDEST DUP2 EQ PUSH2 0xE14 JUMPI PUSH0 PUSH0 REVERT JUMPDEST POP JUMP JUMPDEST PUSH0 DUP2 CALLDATALOAD SWAP1 POP PUSH2 0xE25 DUP2 PUSH2 0xE01 JUMP JUMPDEST SWAP3 SWAP2 POP POP JUMP JUMPDEST PUSH0 PUSH1 0x20 DUP3 DUP5 SUB SLT ISZERO PUSH2 0xE40 JUMPI PUSH2 0xE3F PUSH2 0xBAE JUMP JUMPDEST JUMPDEST PUSH0 PUSH2 0xE4D DUP5 DUP3 DUP6 ADD PUSH2 0xE17 JUMP JUMPDEST SWAP2 POP POP SWAP3 SWAP2 POP POP JUMP JUMPDEST PUSH0 PUSH0 PUSH1 0x40 DUP4 DUP6 SUB SLT ISZERO PUSH2 0xE6C JUMPI PUSH2 0xE6B PUSH2 0xBAE JUMP JUMPDEST JUMPDEST PUSH0 PUSH2 0xE79 DUP6 DUP3 DUP7 ADD PUSH2 0xE17 JUMP JUMPDEST SWAP3 POP POP PUSH1 0x20 PUSH2 0xE8A DUP6 DUP3 DUP7 ADD PUSH2 0xBF8 JUMP JUMPDEST SWAP2 POP POP SWAP3 POP SWAP3 SWAP1 POP JUMP JUMPDEST PUSH0 PUSH1 0x20 DUP3 ADD SWAP1 POP PUSH2 0xEA7 PUSH0 DUP4 ADD DUP5 PUSH2 0xCDC JUMP JUMPDEST SWAP3 SWAP2 POP POP JUMP JUMPDEST PUSH32 0x4E487B7100000000000000000000000000000000000000000000000000000000 PUSH0 MSTORE PUSH1 0x11 PUSH1 0x4 MSTORE PUSH1 0x24 PUSH0 REVERT JUMPDEST PUSH0 PUSH2 0xEE4 DUP3 PUSH2 0xC0C JUMP JUMPDEST SWAP2 POP PUSH2 0xEEF DUP4 PUSH2 0xC0C JUMP JUMPDEST SWAP3 POP DUP3 DUP3 ADD SWAP1 POP DUP1 DUP3 GT ISZERO PUSH2 0xF07 JUMPI PUSH2 0xF06 PUSH2 0xEAD JUMP JUMPDEST JUMPDEST SWAP3 SWAP2 POP POP JUMP JUMPDEST PUSH0 DUP3 DUP3 MSTORE PUSH1 0x20 DUP3 ADD SWAP1 POP SWAP3 SWAP2 POP POP JUMP JUMPDEST PUSH32 0x4578706972656400000000000000000000000000000000000000000000000000 PUSH0 DUP3 ADD MSTORE POP JUMP JUMPDEST PUSH0 PUSH2 0xF51 PUSH1 0x7 DUP4 PUSH2 0xF0D JUMP JUMPDEST SWAP2 POP PUSH2 0xF5C DUP3 PUSH2 0xF1D JUMP JUMPDEST PUSH1 0x20 DUP3 ADD SWAP1 POP SWAP2 SWAP1 POP JUMP JUMPDEST PUSH0 PUSH1 0x20 DUP3 ADD SWAP1 POP DUP2 DUP2 SUB PUSH0 DUP4 ADD MSTORE PUSH2 0xF7E DUP2 PUSH2 0xF45 JUMP JUMPDEST SWAP1 POP SWAP2 SWAP1 POP JUMP JUMPDEST PUSH32 0x4E6F7420656E6F756768204C5020746F6B656E73000000000000000000000000 PUSH0 DUP3 ADD MSTORE POP JUMP JUMPDEST PUSH0 PUSH2 0xFB9 PUSH1 0x14 DUP4 PUSH2 0xF0D JUMP JUMPDEST SWAP2 POP PUSH2 0xFC4 DUP3 PUSH2 0xF85 JUMP JUMPDEST PUSH1 0x20 DUP3 ADD SWAP1 POP SWAP2 SWAP1 POP JUMP JUMPDEST PUSH0 PUSH1 0x20 DUP3 ADD SWAP1 POP DUP2 DUP2 SUB PUSH0 DUP4 ADD MSTORE PUSH2 0xFE6 DUP2 PUSH2 0xFAD JUMP JUMPDEST SWAP1 POP SWAP2 SWAP1 POP JUMP JUMPDEST PUSH0 PUSH2 0xFF7 DUP3 PUSH2 0xC0C JUMP JUMPDEST SWAP2 POP PUSH2 0x1002 DUP4 PUSH2 0xC0C JUMP JUMPDEST SWAP3 POP DUP3 DUP3 MUL PUSH2 0x1010 DUP2 PUSH2 0xC0C JUMP JUMPDEST SWAP2 POP DUP3 DUP3 DIV DUP5 EQ DUP4 ISZERO OR PUSH2 0x1027 JUMPI PUSH2 0x1026 PUSH2 0xEAD JUMP JUMPDEST JUMPDEST POP SWAP3 SWAP2 POP POP JUMP JUMPDEST PUSH32 0x4E487B7100000000000000000000000000000000000000000000000000000000 PUSH0 MSTORE PUSH1 0x12 PUSH1 0x4 MSTORE PUSH1 0x24 PUSH0 REVERT JUMPDEST PUSH0 PUSH2 0x1065 DUP3 PUSH2 0xC0C JUMP JUMPDEST SWAP2 POP PUSH2 0x1070 DUP4 PUSH2 0xC0C JUMP JUMPDEST SWAP3 POP DUP3 PUSH2 0x1080 JUMPI PUSH2 0x107F PUSH2 0x102E JUMP JUMPDEST JUMPDEST DUP3 DUP3 DIV SWAP1 POP SWAP3 SWAP2 POP POP JUMP JUMPDEST PUSH32 0x536C697070616765204100000000000000000000000000000000000000000000 PUSH0 DUP3 ADD MSTORE POP JUMP JUMPDEST PUSH0 PUSH2 0x10BF PUSH1 0xA DUP4 PUSH2 0xF0D JUMP JUMPDEST SWAP2 POP PUSH2 0x10CA DUP3 PUSH2 0x108B JUMP JUMPDEST PUSH1 0x20 DUP3 ADD SWAP1 POP SWAP2 SWAP1 POP JUMP JUMPDEST PUSH0 PUSH1 0x20 DUP3 ADD SWAP1 POP DUP2 DUP2 SUB PUSH0 DUP4 ADD MSTORE PUSH2 0x10EC DUP2 PUSH2 0x10B3 JUMP JUMPDEST SWAP1 POP SWAP2 SWAP1 POP JUMP JUMPDEST PUSH32 0x536C697070616765204200000000000000000000000000000000000000000000 PUSH0 DUP3 ADD MSTORE POP JUMP JUMPDEST PUSH0 PUSH2 0x1127 PUSH1 0xA DUP4 PUSH2 0xF0D JUMP JUMPDEST SWAP2 POP PUSH2 0x1132 DUP3 PUSH2 0x10F3 JUMP JUMPDEST PUSH1 0x20 DUP3 ADD SWAP1 POP SWAP2 SWAP1 POP JUMP JUMPDEST PUSH0 PUSH1 0x20 DUP3 ADD SWAP1 POP DUP2 DUP2 SUB PUSH0 DUP4 ADD MSTORE PUSH2 0x1154 DUP2 PUSH2 0x111B JUMP JUMPDEST SWAP1 POP SWAP2 SWAP1 POP JUMP JUMPDEST PUSH0 PUSH2 0x1165 DUP3 PUSH2 0xC0C JUMP JUMPDEST SWAP2 POP PUSH2 0x1170 DUP4 PUSH2 0xC0C JUMP JUMPDEST SWAP3 POP DUP3 DUP3 SUB SWAP1 POP DUP2 DUP2 GT ISZERO PUSH2 0x1188 JUMPI PUSH2 0x1187 PUSH2 0xEAD JUMP JUMPDEST JUMPDEST SWAP3 SWAP2 POP POP JUMP JUMPDEST PUSH2 0x1197 DUP2 PUSH2 0xBD1 JUMP JUMPDEST DUP3 MSTORE POP POP JUMP JUMPDEST PUSH0 PUSH1 0x40 DUP3 ADD SWAP1 POP PUSH2 0x11B0 PUSH0 DUP4 ADD DUP6 PUSH2 0x118E JUMP JUMPDEST PUSH2 0x11BD PUSH1 0x20 DUP4 ADD DUP5 PUSH2 0xCDC JUMP JUMPDEST SWAP4 SWAP3 POP POP POP JUMP JUMPDEST PUSH0 DUP2 ISZERO ISZERO SWAP1 POP SWAP2 SWAP1 POP JUMP JUMPDEST PUSH2 0x11D8 DUP2 PUSH2 0x11C4 JUMP JUMPDEST DUP2 EQ PUSH2 0x11E2 JUMPI PUSH0 PUSH0 REVERT JUMPDEST POP JUMP JUMPDEST PUSH0 DUP2 MLOAD SWAP1 POP PUSH2 0x11F3 DUP2 PUSH2 0x11CF JUMP JUMPDEST SWAP3 SWAP2 POP POP JUMP JUMPDEST PUSH0 PUSH1 0x20 DUP3 DUP5 SUB SLT ISZERO PUSH2 0x120E JUMPI PUSH2 0x120D PUSH2 0xBAE JUMP JUMPDEST JUMPDEST PUSH0 PUSH2 0x121B DUP5 DUP3 DUP6 ADD PUSH2 0x11E5 JUMP JUMPDEST SWAP2 POP POP SWAP3 SWAP2 POP POP JUMP JUMPDEST PUSH32 0x4C49513D30000000000000000000000000000000000000000000000000000000 PUSH0 DUP3 ADD MSTORE POP JUMP JUMPDEST PUSH0 PUSH2 0x1258 PUSH1 0x5 DUP4 PUSH2 0xF0D JUMP JUMPDEST SWAP2 POP PUSH2 0x1263 DUP3 PUSH2 0x1224 JUMP JUMPDEST PUSH1 0x20 DUP3 ADD SWAP1 POP SWAP2 SWAP1 POP JUMP JUMPDEST PUSH0 PUSH1 0x20 DUP3 ADD SWAP1 POP DUP2 DUP2 SUB PUSH0 DUP4 ADD MSTORE PUSH2 0x1285 DUP2 PUSH2 0x124C JUMP JUMPDEST SWAP1 POP SWAP2 SWAP1 POP JUMP JUMPDEST PUSH0 PUSH1 0x60 DUP3 ADD SWAP1 POP PUSH2 0x129F PUSH0 DUP4 ADD DUP7 PUSH2 0x118E JUMP JUMPDEST PUSH2 0x12AC PUSH1 0x20 DUP4 ADD DUP6 PUSH2 0x118E JUMP JUMPDEST PUSH2 0x12B9 PUSH1 0x40 DUP4 ADD DUP5 PUSH2 0xCDC JUMP JUMPDEST SWAP5 SWAP4 POP POP POP POP JUMP JUMPDEST PUSH0 DUP2 PUSH1 0x60 SHL SWAP1 POP SWAP2 SWAP1 POP JUMP JUMPDEST PUSH0 PUSH2 0x12D7 DUP3 PUSH2 0x12C1 JUMP JUMPDEST SWAP1 POP SWAP2 SWAP1 POP JUMP JUMPDEST PUSH0 PUSH2 0x12E8 DUP3 PUSH2 0x12CD JUMP JUMPDEST SWAP1 POP SWAP2 SWAP1 POP JUMP JUMPDEST PUSH2 0x1300 PUSH2 0x12FB DUP3 PUSH2 0xBD1 JUMP JUMPDEST PUSH2 0x12DE JUMP JUMPDEST DUP3 MSTORE POP POP JUMP JUMPDEST PUSH0 PUSH2 0x1311 DUP3 DUP6 PUSH2 0x12EF JUMP JUMPDEST PUSH1 0x14 DUP3 ADD SWAP2 POP PUSH2 0x1321 DUP3 DUP5 PUSH2 0x12EF JUMP JUMPDEST PUSH1 0x14 DUP3 ADD SWAP2 POP DUP2 SWAP1 POP SWAP4 SWAP3 POP POP POP JUMP INVALID LOG2 PUSH5 0x6970667358 0x22 SLT KECCAK256 DUP13 PUSH28 0xDF1141CDE75F642BAC4B7544F7883FA06CB8F8A331792ADBB89A3618 SDIV 0x26 PUSH5 0x736F6C6343 STOP ADDMOD 0x1E STOP CALLER "
		},
		"gasEstimates": {
			"creation": {
				"codeDepositCost": "993400",
				"executionCost": "1032",
				"totalCost": "994432"
			},
			"external": {
				"addLiquidity(address,address,uint256,uint256,uint256,uint256,address,uint256)": "infinite",
				"addLiquidityWithTtl(address,address,uint256,uint256,uint256,uint256,address,uint256)": "infinite",
				"lpBalance(bytes32,address)": "3121",
				"pools(bytes32)": "infinite",
				"removeLiquidity(address,address,uint256,uint256,uint256,address,uint256)": "infinite",
				"removeLiquidityWithTtl(address,address,uint256,uint256,uint256,address,uint256)": "infinite"
			},
			"internal": {
				"_key(address,address)": "infinite"
			}
		},
		"methodIdentifiers": {
			"addLiquidity(address,address,uint256,uint256,uint256,uint256,address,uint256)": "e8e33700",
			"addLiquidityWithTtl(address,address,uint256,uint256,uint256,uint256,address,uint256)": "5c923960",
			"lpBalance(bytes32,address)": "f4e3f766",
			"pools(bytes32)": "b5217bb4",
			"removeLiquidity(address,address,uint256,uint256,uint256,address,uint256)": "baa2abde",
			"removeLiquidityWithTtl(address,address,uint256,uint256,uint256,address,uint256)": "0760eaec"
		}
	},
	"abi": [
		{
			"inputs": [
				{
					"internalType": "address",
					"name": "tokenA",
					"type": "address"
				},
				{
					"internalType": "address",
					"name": "tokenB",
					"type": "address"
				},
				{
					"internalType": "uint256",
					"name": "amountADesired",
					"type": "uint256"
				},
				{
					"internalType": "uint256",
					"name": "amountBDesired",
					"type": "uint256"
				},
				{
					"internalType": "uint256",
					"name": "amountAMin",
					"type": "uint256"
				},
				{
					"internalType": "uint256",
					"name": "amountBMin",
					"type": "uint256"
				},
				{
					"internalType": "address",
					"name": "to",
					"type": "address"
				},
				{
					"internalType": "uint256",
					"name": "deadline",
					"type": "uint256"
				}
			],
			"name": "addLiquidity",
			"outputs": [
				{
					"internalType": "uint256",
					"name": "amountASent",
					"type": "uint256"
				},
				{
					"internalType": "uint256",
					"name": "amountBSent",
					"type": "uint256"
				},
				{
					"internalType": "uint256",
					"name": "liquidity",
					"type": "uint256"
				}
			],
			"stateMutability": "nonpayable",
			"type": "function"
		},
		{
			"inputs": [
				{
					"internalType": "address",
					"name": "tokenA",
					"type": "address"
				},
				{
					"internalType": "address",
					"name": "tokenB",
					"type": "address"
				},
				{
					"internalType": "uint256",
					"name": "amountADesired",
					"type": "uint256"
				},
				{
					"internalType": "uint256",
					"name": "amountBDesired",
					"type": "uint256"
				},
				{
					"internalType": "uint256",
					"name": "amountAMin",
					"type": "uint256"
				},
				{
					"internalType": "uint256",
					"name": "amountBMin",
					"type": "uint256"
				},
				{
					"internalType": "address",
					"name": "to",
					"type": "address"
				},
				{
					"internalType": "uint256",
					"name": "ttlSeconds",
					"type": "uint256"
				}
			],
			"name": "addLiquidityWithTtl",
			"outputs": [
				{
					"internalType": "uint256",
					"name": "amountA",
					"type": "uint256"
				},
				{
					"internalType": "uint256",
					"name": "amountB",
					"type": "uint256"
				},
				{
					"internalType": "uint256",
					"name": "liquidity",
					"type": "uint256"
				}
			],
			"stateMutability": "nonpayable",
			"type": "function"
		},
		{
			"inputs": [
				{
					"internalType": "bytes32",
					"name": "",
					"type": "bytes32"
				},
				{
					"internalType": "address",
					"name": "",
					"type": "address"
				}
			],
			"name": "lpBalance",
			"outputs": [
				{
					"internalType": "uint256",
					"name": "",
					"type": "uint256"
				}
			],
			"stateMutability": "view",
			"type": "function"
		},
		{
			"inputs": [
				{
					"internalType": "bytes32",
					"name": "",
					"type": "bytes32"
				}
			],
			"name": "pools",
			"outputs": [
				{
					"internalType": "uint256",
					"name": "reserveA",
					"type": "uint256"
				},
				{
					"internalType": "uint256",
					"name": "reserveB",
					"type": "uint256"
				},
				{
					"internalType": "uint256",
					"name": "totalLiquidity",
					"type": "uint256"
				}
			],
			"stateMutability": "view",
			"type": "function"
		},
		{
			"inputs": [
				{
					"internalType": "address",
					"name": "tokenA",
					"type": "address"
				},
				{
					"internalType": "address",
					"name": "tokenB",
					"type": "address"
				},
				{
					"internalType": "uint256",
					"name": "liquidity",
					"type": "uint256"
				},
				{
					"internalType": "uint256",
					"name": "amountAMin",
					"type": "uint256"
				},
				{
					"internalType": "uint256",
					"name": "amountBMin",
					"type": "uint256"
				},
				{
					"internalType": "address",
					"name": "to",
					"type": "address"
				},
				{
					"internalType": "uint256",
					"name": "deadline",
					"type": "uint256"
				}
			],
			"name": "removeLiquidity",
			"outputs": [
				{
					"internalType": "uint256",
					"name": "amountASent",
					"type": "uint256"
				},
				{
					"internalType": "uint256",
					"name": "amountBSent",
					"type": "uint256"
				}
			],
			"stateMutability": "nonpayable",
			"type": "function"
		},
		{
			"inputs": [
				{
					"internalType": "address",
					"name": "tokenA",
					"type": "address"
				},
				{
					"internalType": "address",
					"name": "tokenB",
					"type": "address"
				},
				{
					"internalType": "uint256",
					"name": "liquidity",
					"type": "uint256"
				},
				{
					"internalType": "uint256",
					"name": "amountAMin",
					"type": "uint256"
				},
				{
					"internalType": "uint256",
					"name": "amountBMin",
					"type": "uint256"
				},
				{
					"internalType": "address",
					"name": "to",
					"type": "address"
				},
				{
					"internalType": "uint256",
					"name": "ttlSeconds",
					"type": "uint256"
				}
			],
			"name": "removeLiquidityWithTtl",
			"outputs": [
				{
					"internalType": "uint256",
					"name": "amountASent",
					"type": "uint256"
				},
				{
					"internalType": "uint256",
					"name": "amountBSent",
					"type": "uint256"
				}
			],
			"stateMutability": "nonpayable",
			"type": "function"
		}
	]
}